:0200000480007A
:100000007370043073504030971100109381819CBD
:1000100017010110130101FF9712000093828282E1
:100020007390523073F051301705000013054509E5
:10003000970500009385C5086300B5021786000088
:10004000130646A263FAC5008322050023A05500CB
:1000500011059105E3EAC5FE17850000130585A08B
:1000600097050010938505FA1386818663FAC5000B
:100070008322050023A0550011059105E3EAC5FE82
:10008000138581869385019C6377B5002320050045
:100090001105E36DB5FEEF00D0181735000013050C
:1000A0006580EF20207FEF205003EF00B026014550
:0A00B00081452920EF00F03001A087
:1000BC001D7186CEA2CCA6CACAC8CEC6D2C4D6C220
:1000CC00DAC0054513010181EF10D02385661008B5
:1000DC0093860682B2967D773697AA872314F77E8D
:1000EC0009453AC6EF1010223247AA870D45231551
:1000FC00F77EEF1030213247AA8711452316F77E81
:10010C00EF10502085478545177500001305C5D3A2
:10011C003EDAEF3060201545EF10D01E630205501B
:10012C002ADC0567130707821408FD773697BA9700
:10013C003EC683A7877E6391074CB2478397C77EE1
:10014C0063890750E2570564130404820408FD76A2
:10015C002694A296901013F7270013F51700B335C9
:10016C00E00036C623A8C67E231C010493F6470084
:10017C00AA882E9581C60505420541819306007D0E
:10018C0033D5A6020564FD76130404820408938615
:10019C00867E269481450143854EA2960D4E2AD823
:1001AC003398BE003378F800631B08428505E39949
:1001BC00C5FF6399083A631B073C918B85C30567A0
:1001CC00130707821408FD773697BA9703A6C77FE3
:1001DC008395877E42553EC6EF10804BD257ADEBD0
:1001EC0085473EDA85677D7993870782180813095E
:1001FC00897EBA9797090010938989FE3E995257C8
:10020C0093172700BA9786073EDAEF10603C4A85B1
:10021C00EF00F069EF10E03EEF10C041EF108043AB
:10022C0003A6090083A64900AA842E84EF10D07778
:10023C00E34705FC2685A285EF2060016309054094
:10024C00A947B3D7A70252578507B387E7023EDA0F
:10025C00EF100038856418087D7493870482BA9770
:10026C001305847E3E95EF009064EF108039EF10FB
:10027C00603C180893870482BA97A2972A89039541
:10028C00877EAE8981453EC6EF10B012B247AA8573
:10029C000395A77EEF10F011B247AA850395C77E90
:1002AC00EF103011AA8503150103EF109010A16710
:1002BC00938757B0AA84630CF54663E0A73089672F
:1002CC009387278F630DF54695679387F7EA63103D
:1002DC00F54817750000130565BFEF304020094A3B
:1002EC00E257231C010413F717001DCB93161A00B9
:1002FC001777000013070716369703562105835608
:10030C000700630FD600814517750000130585C4DF
:10031C00EF30800003578105E2570507231CE104E9
:10032C0013F727001DCB93161A001777000013073D
:10033C00271336970356410583560700630FD600E3
:10034C008145177500001305E5C3EF20F07C0357BA
:10035C008105E2570507231CE104918B91CF1317FC
:10036C001A009777000093876710BA9703566105B8
:10037C0083D607006319D62A03548105EF10D003E6
:10038C00C2552A9417750000130505C6EF20D078C6
:10039C00CA85177500001305A5C6EF20F0774A85AE
:1003AC00CE85EF10202B2A86AE861775000013051C
:1003BC00A5C6EF2070764A85CE85EF10A0294204A1
:1003CC00014681464180EF10D0536359A00252552B
:1003DC00EF10F06D2A8BAE8A4A85CE85EF10802700
:1003EC002A86AE865A85D685EF10407D2A86AE8643
:1003FC00177500001305C5C3EF2010724A85CE8512
:10040C00EF10402597070010938707DE9043D443E5
:10041C00EF109059634B052E42044184D255177549
:10042C000000130565FBEF20306F97750000938576
:10043C0065D8177500001305A5FBEF20F06D9775B7
:10044C000000938525C9177500001305E5FBEF2007
:10045C00B06C97750000938565D81775000013056F
:10046C0025FCEF20706BA685177500001305C5FCE5
:10047C00EF20906AE25713F71700631D072613F756
:10048C002700631E0724918B6391072403560105F3
:10049C00814517750000130525EDEF20F06763000B
:1004AC00041C635F801817750000130525D4EF300A
:1004BC0000035255B7470F0093870724B335F50255
:1004CC003305F502EF20801C2A84CE854A85EF2067
:1004DC00E01BAA852285EF10F0762A842945EF20AF
:1004EC0070672945EF20106717750000130545D775
:1004FC00EF20F07E2945EF20F065D25517750000EE
:10050C001305C5D9EF205061CA8517750000130576
:10051C00A5DAEF207060177500001305A5DBEF203E
:10052C00107C17750000130565DDEF20507B2285CC
:10053C00EF2020232A86AE8617750000130505DFF1
:10054C00EF20905D2945EF20F0601301017FF6400C
:10055C006644D6444649B649264A964A064B014556
:10056C002561828005671408130707823697FD778B
:10057C00BA970396877E83A5477F3EC6EF0050212E
:10058C00E2572ADE13F72700E30907C205671408B0
:10059C00130707823697FD77BA973EC63247839783
:1005AC00A77E42550316877E8325877FC2075D8E03
:1005BC009400EF009035E25709B1A567938727A007
:1005CC00630FF514BD679387579F6312F518177562
:1005DC0000001305A592EF2090700D4A11B3330F54
:1005EC00A302139825000503369842031353030105
:1005FC00329F2326E8015DBE0547E395E7B4B24779
:10060C008397C77EE39007B43247B7371534938787
:10061C0057412324F77E930760062316F77E1DB6F9
:10062C009D473EDCFDBC8145177500001305C59840
:10063C00EF20904E835781058507231CF1042DBBB9
:10064C0017750000130585BBEF2070699DB5054536
:10065C00C5BE3247930760062316F77EE5B41775BF
:10066C000000130565A2EF2090678D47E313FAE4B1
:10067C005255EF10D043AA842E844A85CE85EF00C4
:10068C00707D2A86AE862685A285EF1020532A8699
:10069C00AE86977700009387E7A3177700001307C0
:1006AC0067B1177500001305A5B1EF20F0469775DB
:1006BC0000009385A5B2177500001305A5B2EF20B5
:1006CC00B0452945EF201049EDB30356610581452E
:1006DC0017750000130505CBEF20104445BB0356DE
:1006EC004105814517750000130585CBEF20D042DD
:1006FC00E25751BB035621058145177500001305C0
:10070C00E5CBEF207041E2579DBB05041775000047
:10071C00130585934204EF20905C418401B3176567
:10072C00000013052575EF20905B014A55BE176537
:10073C0000001305E576EF20905A054A55B617656B
:10074C0000001305657EEF209059114A51BE41649B
:10075C007D147D5A25B1A54723ACF19A7D55828035
:10076C007D15854763E6A7008967DCC1014582805A
:10077C00A54723ACF19A7D558280054582800145C1
:10078C00828019C17D55828041113735011022C4F8
:10079C0006C62E84A52A2300A400B2402244054597
:1007AC004101828017070010130707A21C43938690
:1007BC00019C3E95636BD50097F600109386C6039B
:1007CC0063E5A60008C33E858280FD573E85828086
:1007DC00011122CC4EC606CE26CA4AC82E84B28936
:1007EC00EF20905129C533093401A94463990900BC
:1007FC003DA0050437350110012263022403834513
:10080C000400E39895FEB54537350110F520834576
:10081C000400373501100504C520E31224FF4E8572
:10082C00F2406244D2444249B249056182807D550E
:10083C00C5BF00005D7106C012C216C41AC61EC820
:10084C002ACA2ECC32CE36D03AD23ED442DC46DE48
:10085C00F2C0F6C2FAC4FEC6F322103416D6F32246
:10086C00203416D8F322003016DA732520348A850A
:10087C00652AB25273901234C25273902234D252FF
:10088C007390023082401242A2423243C24352451C
:10089C00E245724682561257A2576258F258064EDB
:1008AC00964E264FB64F616173002030AA8711C552
:1008BC00584D0145D98DCCCF82807D558280AA8739
:1008CC0015C91707001003276790B355B702130714
:1008DC00000858C50145FD1513D785001377F70F90
:1008EC00D8C393F5F50F8CC31307600C98C70D474D
:1008FC00D8C782807D55828001C95C4993F7070275
:10090C00EDDF0CC1014582807D55828001C95C49B7
:10091C00858BF5DF08411375F50F82801305F00FF9
:10092C008280B7C7000203A787FF83A7C7FF2A8669
:10093C00BA85B7C6000203A786FF83A7C6FFBA878E
:10094C00732800B0E389E5FEB7C8000203A588FF51
:10095C0083A5C8FF3307F540F32600B0E368C7FE54
:10096C00B386064133F5E602B3D6E6023E053355AF
:10097C00E502BE06369582804111054506C65537FF
:10098C00B24013054006410169BF411122C42A84BB
:10099C00176500001305C53E06C6EF205034A2852E
:1009AC00176500001305053FEF201017F3251034D1
:1009BC00176500001305053FEF201016F3253034A2
:1009CC00176500001305053FEF20101501A041111C
:1009DC0022C42A84176500001305C53E06C6EF2005
:1009EC001030A285176500001305C53AEF20D01210
:1009FC00F3251034176500001305C53AEF20D0110C
:100A0C00F32530342244B240176500001305853AB3
:100A1C0041016F207010B7B7C4049387074017F7D4
:100A2C00FF0F2325F77A828041119317450106C6E3
:100A3C0022C4D183634E050229462A87AE86637E83
:100A4C00F60097070000938787F4B6853A8582975E
:100A5C00B24022440145410182808A071386C18B32
:100A6C00B2979C43FDF3B240224401454101828080
:100A7C002D476389E7008A0713874189BA979C43FE
:100A8C00F9F7F9B7F32740F13707200CB207110734
:100A9C00BA978043C147E3ED87FA13172400938775
:100AAC00818EBA979C4391C38297F32740F1370705
:100ABC00200CB2071107BA9780C359BF41111766B2
:100ACC00000013066631976500009385A531176504
:100ADC0000001305E53106C6EF20100497650000F1
:100AEC00938585331765000013054533EF20D0023D
:100AFC00B24097F5FF0F83A5656D176500001305D0
:100B0C00253341016F205001411106C6B535AA8726
:100B1C00B70503003725011017F7FF0F2328F76AD5
:100B2C007133F1659385052037350110493B7937D1
:100B3C00970600009386A6E59387C18B1387818E59
:100B4C0094C39107E39EE7FE17070000130767E8BD
:100B5C009387818E9386C19298C39107E39ED7FEAB
:100B6C00938741899386C18B98C39107E39EF6FEC8
:100B7C003706000C8146B728000C05484545F3277D
:100B8C0040F19E07C6978C433317D8001347F7FFE5
:100B9C006D8F98C32320060085061106E391A6FEEF
:100BAC00F32740F13707200CB240B207BA9723A0C5
:100BBC0007004101828082808280828019C60315E1
:100BCC002500839725001D8D8280831705001397C0
:100BDC0007014183218393F707F0D98F2310F50088
:100BEC008397050003152500139707014183218383
:100BFC0093F707F0D98F2390F500839725001D8D6F
:100C0C008280011122CC0314050006CE26CA93570C
:100C1C0074404AC84EC6858B91CBF2401375F407CD
:100C2C006244D2444249B24905618280AE849355F4
:100C3C003440BD89139745009376740083D78403A1
:100C4C00AA89D98DB9CE0547638CE6021315040128
:100C5C0041812289BE85EF00D06EAA87137404F0FF
:100C6C001375F907498C239CF40213640408239030
:100C7C008900F2406244D2444249B2490561828003
:100C8C003E8613858402EF00D01283D7C403131958
:100C9C00050113590941B9E383D78403239EA402A8
:100CAC0055BF930620022E8763D4D500130720026C
:100CBC008396240003960400CC48884C1377F70FD6
:100CCC00EF00B05183D7E4031319050113590941FF
:100CDC0091E783D78403239FA402ADBF83D78403FA
:100CEC0095BF411126C2AE84B28506C622C4328499
:100CFC00093FAA87A28526853E842137B240330559
:100D0C00A440224492444101828003972500634C05
:100D1C00070001E53DA008411DC15C4183972700F8
:100D2C00E39BE7FE828001CD0397050019A00841E3
:100D3C0001C95C4183C70700E39BE7FE8280014544
:100D4C0082808280797126D256CA5EC666C26AC01B
:100D5C0006D622D44AD04ECE52CC5AC862C4AA84EB
:100D6C00AE8B328D854A854CBDC8014C0149014B77
:100D7C00050CA68701449C43050499C3E39D8AFE98
:100D8C00268AD689BE8405C4638E090285CCCC40E4
:100D9C0003254A006A86829B6356A002A68784407C
:100DAC00FD19630E09002320F9003E8971FC638054
:100DBC00090299CCA687FD198440E31609FE3E8BE7
:100DCC003E89EDB7D2877D14032A0A00D9BFCDF036
:100DDC002320090063089C01860ADA8471B723205A
:100DEC0000000290B250225492540259F249624AC5
:100DFC00D24AB24B224C924C024D5A85424B456121
:100E0C008280397162CC031C450022DC56D25AD048
:100E1C0006DE26DA4AD84ED652D45ECE66CA2317E0
:100E2C00B10040512A8BAE8A63508017AE8C0149B9
:100E3C00814B81498144130AC1009377F90FD28504
:100E4C0022852316F100D13501C8014711A03E843B
:100E5C001C4018C02287E5FF29C55C418509C209E1
:100E6C008397070093D9090113F7170011C7A587BA
:100E7C00858BBE94C204C1801C4191C7984318C194
:100E8C00184098C31CC063C50C00850C2317910136
:100E9C00050942091359094163022C03831CE10023
:100EAC0069BF1C40850BC20BDC4393DB0B018387B2
:100EBC001700858BBE94C204C180F1B78A09B38B2D
:100ECC007941DE94C204C180635A500122855A864E
:100EDC0097050000938525E1B5352A841C40D28501
:100EEC00228583A9070003AA470083A6490003A70C
:100EFC000900D4C323A2490198C323A009003135AA
:100F0C002A8935CD5C40A68503950700EF00704A11
:100F1C0003290900AA84E31709FE0329040003AA84
:100F2C0049000327490083270900228523A2E900F1
:100F3C002322490123A0F9002320390101469705FA
:100F4C0000009385E5C7FD3B00412A8919C883271A
:100F5C004900A68503950700EF00B0450040AA8420
:100F6C007DF4F25062544259B259225A925A025BA1
:100F7C00F24B624CD24C2685D254216182800329DB
:100F8C000400E31109F871BF8144130AC1002DBF9D
:100F9C00514E335EC503E17723A005001387070884
:100FAC00938605012E8513838500791E131F3E0041
:100FBC002E9F23A2E501931F2E002310EF00231177
:100FCC000F00FA9F13074F0063FFE60D93088F0085
:100FDC0063FBF80DD8C523A4050023A0650093C7B7
:100FEC00F7FF7D572312EF002313FF00630E0E044F
:100FFC0093120601E17393D20201014893C3F3FFEC
:10100C00131708014183B3C7E2008E071D8B93F7BA
:10101C008707D98F13978700938586000508938ED1
:10102C004800D98F63F0E50363FEFE0123A0660040
:10103C0014C123A216012390F80023917800368363
:10104C00F688AE86E31E0EFB032803006307080434
:10105C0095479165335EFE028546FD1509A88327E9
:10106C0008002311D7004283850685CB3E88139751
:10107C000601418393071700A207318F93F707707E
:10108C00D98FED8F03274300E3EBC6FD2311F70047
:10109C008327080042838506F1FB01469705000073
:1010AC00938505B245B19A86BA88014381B741113F
:1010BC004AC00329C50106C622C426C2232C050238
:1010CC00232E0502630C09022A848144854522855E
:1010DC000D3B83558403EF00D026FD55231CA40241
:1010EC002285053383558403EF00B025231CA4020D
:1010FC0099E0231DA4028504E31A99FCB240224412
:10110C0092440249014541018280411126C422C604
:10111C004AC24EC02A88B68411E205468D0513F4E6
:10112C00C5FF81476304080A3E8585073387F702AC
:10113C000E07E36B07FFB303A502AA898603B30668
:10114C00740035C5416E8142814F054FB30ED440BA
:10115C007D1E1309F5FF93951200B6957A88814888
:10116C003306060393170801C1833383BE00890538
:10117C00850805081357F64141833A963376C60124
:10118C00198E3387C70042074183BA97239FE5FE28
:10119C0093F7F70F2310F300E3E4A8FC050F814746
:1011AC0011C1CA87850F3E9FAA92E3E6AFFAB387B7
:1011BC007600C0C08D073244F19B23A0340194C447
:1011CC00DCC41249A2448249410182809306240066
:1011DC00FD597D558943BDB71DCD131F2500131334
:1011EC0015002E8E2E9F3693814E93951E00B29530
:1011FC00B68701480397050083980700890789057E
:10120C00330717033A98E317F3FE23200E01110E50
:10121C00AA9EE31CCFFD82802DC541112A8F0605A5
:10122C0022C6AE833684B28E3308A600814F81422B
:10123C0093982F009E982283014E9A86F68701463A
:10124C0003970700839506008907AA963307B70210
:10125C003A96E317F8FE23A0C80093071E009108E6
:10126C0009036304FF003E8EC9BF93871200AA9E38
:10127C00FA9F2A986384C201BE825DBF3244410149
:10128C00828082802DCD41112A8F060522C6AE8325
:10129C003684B28E3308A600814F814293982F007A
:1012AC009E982283014E1A86F68681450317060006
:1012BC008397060089062A96B387E70213D727403F
:1012CC0095873D8B93F7F707B307F702BE95E31F9E
:1012DC00D8FC23A0B80093071E00910809036304EF
:1012EC00FF003E8EC9B793871200AA9EFA9F2A98D8
:1012FC006384C201BE825DB7324441018280828028
:10130C00797126D24AD052CC56CA7D7906D622D4CF
:10131C004ECE5AC85EC662C466C26AC0AE8A328AF3
:10132C00B684336927016308052493151500AA8830
:10133C00B2953305A040931907011313150093D9E7
:10134C0009012E86814B0A053308C300C28783D658
:10135C0007008907CE96239FD7FEE31AF6FE138467
:10136C001B003306A84063848800A28BF1BFB30C2A
:10137C00804001458148139C2C003308B3001316A0
:10138C0025005696C2878396070011068907B386F7
:10139C00E602232ED6FEE398B7FE9387180022951B
:1013AC00B305884163847801BE88C1BF131B240038
:1013BC00569B5A8801450147014601438E0CB308E0
:1013CC008801C68701A8139505019107418501463F
:1013DC006303F802BA86984342054181B3A6E6003E
:1013EC003A969305A5003695E34FC9FC4205910743
:1013FC004185E311F8FE9307130033889841630489
:10140C0073013E836DBF8145EF00A07A52862A8D11
:10141C00A6862285D685C9330145014701468148F8
:10142C0033086C01C28701A813950501910741850A
:10143C0001466303FB02BA86984342054181B3A679
:10144C00E6003A969305A5003695E34FC9FC420594
:10145C0091074185E311FBFE93871800330B9841EC
:10146C0063847801BE886DBFEA85A127A6862A8B86
:10147C0052862285D6854D330143014581478146ED
:10148C008148131623005696814509A813150801A7
:10149C00850541858146110663F485023E871C4211
:1014AC00420541813327F700BE961308A5003A95F3
:1014BC00E34ED9FC4205850541851106E3E085FE26
:1014CC0085082293E3EF88FADA85E525AA87A686B4
:1014DC0022855286D685BE847533014301458147EA
:1014EC0081468148131623005696814509A8131589
:1014FC000801850541858146110663F485023E8706
:10150C001C42420541813327F700BE961308A50003
:10151C003A95E34ED9FC4205850541851106E3E079
:10152C0085FE85082293E3EF88FAA6855925814527
:10153C00014693971500D297814603D70700890778
:10154C00850633073741239FE7FEE3E886FE050651
:10155C00A295E36086FEB250225442059254025981
:10156C00F249624AD24A424BB24B224C924C024D47
:10157C0041854561828081452D2DA68652862A841F
:10158C00D68501459139A28501452525A686528629
:10159C002A84D68501454931A2850145192D2A8415
:1015AC00D685A68652860145F139A28501451125BD
:1015BC005DB7411122C4144532842E8750414C45ED
:1015CC00084106C6353BA2852244B2404101D5A351
:1015DC004111F32700B83EC2F32700B03EC4F327F5
:1015EC0000B83EC61247B2476305F700F32700B0B8
:1015FC003EC4B246224793878187D4C398C3410126
:10160C0082804111F32700B83EC2F32700B03EC4DC
:10161C00F32700B83EC61247B2476305F700F3271D
:10162C0000B03EC4B246224793870188D4C398C306
:10163C004101828093870188138781878C430843FB
:10164C00DC4358433385A540B3B5A500998FB385CA
:10165C00B740828093978501218141115D8DA181D5
:10166C0006C622C426C2EF007049AA8417F5FF0FE4
:10167C000325C5B521812E84EF0070432A86AE86E2
:10168C002685A285252BB2402244924441018280BA
:10169C001308F5FF854763F2070F8505C205411155
:1016AC00C18193D7350022C626C44AC24EC01D4EF6
:1016BC0093F675000147976300009383E3E61143AB
:1016CC0097620000938242E98548976F0000938FE0
:1016DC00AFE6176F0000130F2FE7930EC0028D8B30
:1016EC00638BC6056365D308F516C206C1828A07EB
:1016FC0063EAD806FE979C432544A1493A94637447
:10170C0004053297BA863389370183C407008507ED
:10171C008506A38F96FEE39A27FF8505C2054E9793
:10172C00C1812300D70193D7350093F6750022872A
:10173C008D8BE399C6FB8A0725449E973A949C436C
:10174C00A149E36004FD6379A70032972A96230030
:10175C0007000507E31DE6FE3244A2441249824904
:10176C0041018280FA979C431544914941BF8A07F5
:10177C0096979C432544A14951B7014732972A9625
:10178C00230007000507E31DE6FE82801C412A8E1C
:10179C00014503C707003E884DCB9306C002138852
:1017AC001700630AD7208841130607FD1376F60F3E
:1017BC00A548050563EEC80888C183C81700638C6B
:1017CC000810138727006387D810138508FD93072B
:1017DC00E002A5461306C0021375F50F6384F802E8
:1017EC0063ECA60883481800130517003A88638336
:1017FC00080E6381C81E2A87138508FD1375F50F23
:10180C00E390F8FE9C49154585079CC903431800D5
:10181C003A88630C03029307C0029308170063090C
:10182C00F31893075004A5461306C002130503FDD5
:10183C001373F30D1375F50F6301F30A63F9A61215
:10184C00DC49468805458507DCC923200E018280CA
:10185C001306B002630AC7021306D0026306C7025E
:10186C001306E0026300C712DC4188C105458507F9
:10187C00DCC123200E0182809C493A8805458507EE
:10188C009CC923200E01828088C103C61700630EF9
:10189C00061213882700630AD6129445130706FD17
:1018AC001377F70F25458506637BE5001307E002E8
:1018BC006305E60E94C5054523200E01828094C570
:1018CC0083C82700638908009307C0021307180018
:1018DC00E39DF8EE3A8811458DBFDC498507DCC9DC
:1018EC0083471700F1CF9306C00213881800638A50
:1018FC00D70CD845938757FD93F7D70F0507D8C555
:10190C0089C7054523200E01828083C71800C5CFE7
:10191C00138828006389D70A984D938707FD93F79E
:10192C00F70F0507254698CDE36DF6FC03C7280095
:10193C0051C7938738006302D708A5461305C00228
:10194C00130707FD1377F70F63F9E600D8413E88BC
:10195C00054593071700DCC1CDBD0347180013865E
:10196C0017003E8839CB6304A706B287D1BF034367
:10197C001700138818004687630C0302630BC3021D
:10198C00C2886DB588C103C3170063040302938832
:10199C002700630FD300428769B594C503C32700A2
:1019AC00630903009307C00293081800E315F3FEC4
:1019BC004688154559BD014549BD3E881D4571B543
:1019CC0046880D4559B5194549B50945BDBD3288FF
:1019DC001D45A5BD2A8811458DBD1971A6DACED637
:1019EC00040893090103A2DCCAD8D2D4D6D2DAD027
:1019FC00DECEB68A3A8A3E8986DEE2CC2E84AA8B6B
:101A0C00328B2EC694082687CE8723A0070023206E
:101A1C00070091071107E39AD7FE0347040061CF33
:101A2C00130CC1000C18628595339C089315250086
:101A3C00BE95324783A705FC03470700850723A003
:101A4C00F5FC6DF322C6A29B03470400637A740B6A
:101A5C00A2871306C00219A003C70700B34667018B
:101A6C006304C7002380D700B247D2973EC6E3E594
:101A7C0077FF8347040022C6130CC10085C70C18DE
:101A8C00628529339C08131625003E96324783271E
:101A9C0006FC0347070085072320F6FC6DF322C6DE
:101AAC00637174039306C0028347040033C7570164
:101ABC006384D7002300E4003244529422C6E365C9
:101ACC0074FF138404028840CA859104E920AA8516
:101ADC0003A509009109C1202A89E31694FEF6504A
:101AEC006654D6544659B659265A965A065BF64B46
:101AFC00664C0961828022C6A29BE36B74F5D1B758
:101B0C003DFFC1B7954763ECA702176700001307A9
:101B1C00A7A50A053A951C41BA97828703A50187A8
:101B2C00828003A58186828003A5C186828017E509
:101B3C00FF0F0325E569828003A5C18082800145E2
:101B4C008280AA8669782E8513F6F60FA1470508C0
:101B5C003347C500FD170581058B93F7F70FB34588
:101B6C000501058201C7139505014181F5F3E9755E
:101B7C00A182A14785053347D500FD170581058B4B
:101B8C0093F7F70F3346B500858201C7131506018D
:101B9C004181F5F38280411122C42A84420541819E
:101BAC0006C64537AA85135504012244B2404101AB
:101BBC0049BF4205418171B701458280797193D744
:101BCC00450126D24AD052CC5EC662C49394C5005D
:101BDC0006D622D44ECE56CA5AC8139757012A8914
:101BEC00B28B368CB18013DAF50151C793FAF77FBB
:101BFC009307F07F638BFA0C9359D5018E04B3E4F1
:101C0C009900B7098000B3E9340113143500938AA5
:101C1C001AC0014B93574C019314CC0013975701E6
:101C2C00B18093F5F77F135CFC0179C39307F07FC8
:101C3C00638BF5101395340093D7DB015D8DB704DE
:101C4C008000C98C939F3B00138515C001469317E8
:101C5C002B00D18FFD173947B3468A01B385AA40B3
:101C6C006365F71017670000130787918A07BA9707
:101C7C009C43BA978287B3E9A400638209069DC886
:101C8C002685EF00B03C930755FF71476349F70277
:101C9C00F549130485FFB389F940B3948400B35913
:101CAC003901B3E99900331489009305D0C0B38A84
:101CBC00A54085B7EF00903913050502E9B79304E9
:101CCC0085FDB31999000144CDB7B3E9A400638C29
:101CDC0009002A84A689930AF07F0D4B25BF014485
:101CEC00814A054B05BF0144930AF07F094B1DB790
:101CFC00B3EF740163820F069DC82685EF00103583
:101D0C00AA85938755FF71476349F702F546938F70
:101D1C0085FF9D8E3395F401B3D6DB00B3E4A600AA
:101D2C00B39FFB011307D0C03305B74005B75E85E1
:101D3C00EF00D03193050502E9B7138585FDB39407
:101D4C00AB00814FC5B7B3EF7401638B0F00DE8F0F
:101D5C001305F07F0D46E5BD814401450546C5BD23
:101D6C0081441305F07F0946DDB563E634016396C3
:101D7C00992A6364F42B1396F901135714009317E3
:101D8C00F40193D919003364E6001395840093D8B9
:101D9C008F01B3E8A800418133D8A902939E0801B2
:101DAC0093DE0E011357040113938F00B3F4A902B1
:101DBC00C28F33860E039399040133673701637C1A
:101DCC00C7004697930FF8FF636717016375C70049
:101DDC00930FE8FF4697118F335EA70242044180B0
:101DEC003377A70272863388CE034207418F637C18
:101DFC00070146971306FEFF63671701637507011A
:101E0C001306EEFF469733040741C20F4168B3EF48
:101E1C00CF00130EF8FF13D60F0133F7CF01135F6A
:101E2C000301337EC301B303EE02B304C6033307CD
:101E3C00EF02B302E6033306970013D70301329780
:101E4C0063739700C292135607011696C162FD1276
:101E5C00337857004208B3F353001E986367C400ED
:101E6C00FE84631EC40263FC07039A9733B76700B2
:101E7C0046973A949384FFFF63E688006391880247
:101E8C0063EF67006366C400631B860063F9070198
:101E9C009A9733B7670046979384EFFF3A94338849
:101EAC000741118CB3B707011D8CFD5F6387880E4A
:101EBC00B35FA402135708013374A4027E86B38760
:101ECC00FE034204598C637CF40046941386FFFF96
:101EDC00636714016375F4001386EFFF46941D8C41
:101EEC003357A4024208135808013374A402BA876A
:101EFC00B38EEE02420433648800637CD4014694B2
:101F0C009307F7FF636714016375D4019307E7FF29
:101F1C00469442065D8E93170601C1831357060142
:101F2C003308EF023304D441330FFF02B38EC703DF
:101F3C00330EC70393D70E01729FFA9763F4C70150
:101F4C0041673A9813D70701429741687D1833F5DA
:101F5C0007014205B3FE0E0176956366E40063103B
:101F6C00E41AB28F1DC94694930FF6FF63611403F4
:101F7C006366E4006314E418637DA30093171300F5
:101F8C0033B367009A98930FE6FF46943E8363142D
:101F9C00E4006304650093EF1F009387F53F635BD8
:101FAC00F00A13F77F0001CF13F7FF001146630807
:101FBC00C70013864F00B33FF601FE94B28F139700
:101FCC00740063580700B70700FFFD17FD8C93875B
:101FDC0005401307E07F6342F70693DF3F0013973A
:101FEC00D4013367F70113D53400D2073706F07FDD
:101FFC003205B2502254F18F31815D8DFE06B367EC
:10200C00D50092540259F249624AD24A424BB24B21
:10201C00224C3A85BE8545618280FD158147B5B35A
:10202C00D286CE84A28F5A868D47630BF60A8547DB
:10203C00630FF60A8947E312F6F601450147930749
:10204C00F07F65B7E286CDB7B7040800814F8146B3
:10205C000D46D9BF05451D8D130780036349A7089D
:10206C007D476349A7049385E541B397B40033D703
:10207C00AF00B395BF00D98FB335B000CD8F33D53A
:10208C00A40013F7770001CF13F7F700114663088C
:10209C00C70013874700B337F7003E95BA8713176D
:1020AC008500634907041317D5018D835D8F0D815E
:1020BC00814725BF0557B307F74013060002B3D776
:1020CC00F40001476306C5009385E5433397B400DC
:1020DC00B36FF701B33FF001B3E7F701014555B713
:1020EC003705080001479307F07F8146FDBD014588
:1020FC0001477DBF014501478547C5BD7E86B28F2F
:10210C0059BD370710007D1713D84501B378B700B8
:10211C00AA872A831378F87F13D5F501930EF07FE5
:10212C0093D54601758F328E93F5F57FFD8263183A
:10213C00D801B3EEF80063840E067955828063965D
:10214C00D501B36EC700E39A0EFE631C0804B3E717
:10215C00F80093B7170099E1598E0DCE81EB6314FB
:10216C00D50063D905010DC57D5582807D5591C67D
:10217C00368582806354B80065D98280E36517FF89
:10218C00639CE800E3616EFEE368C3FF0145828057
:10219C0005458280E5FFC1BFE3E0E8FEC5BFE382F1
:1021AC0005FBD5FD81474DBF370710007D1713D8B0
:1021BC004501B378B700AA872A831378F87F13D523
:1021CC00F501930EF07F93D54601758F328E93F502
:1021DC00F57FFD826318D801B3EEF80063840E0618
:1021EC00094582806396D501B36EC700E39A0EFE53
:1021FC00631C0804B3E7F80093B7170099E1598EF4
:10220C000DCE81EB6314D50063D905010DC57D5549
:10221C0082807D5591C6368582806354B80065D91D
:10222C008280E36517FF639CE800E3616EFEE36860
:10223C00C3FF0145828005458280E5FFC1BFE3E015
:10224C00E8FEC5BFE38205FBD5FD81474DBF13D723
:10225C004501370810009307F8FF1377F77F130633
:10226C00E03FED8FAA86FD816351E6041306F04131
:10227C000D8E1385F5FF635BC702014585E91305D8
:10228C003043198D7D46B3E70701634AA600130757
:10229C00D7BEB397E70033D5A6005D8D82801305BA
:1022AC003041198D33D5A7008280014582804111C0
:1022BC0022C406C62A8421C1512B1307E041A94729
:1022CC00098F63C4A702AD47898F5505B357F40036
:1022DC003314A400B2402285B20722445207B183C2
:1022EC00B366F700B68541018280930755FFB3179B
:1022FC00F4000144C5B781470147E9BF011106CE7F
:10230C0022CC26CA4AC84EC652C4B367B5006387EE
:10231C0007122A842E89AE84ADC12E85052BAA897D
:10232C00130AE043330A3A419307304363C147072A
:10233C002D47A287635337031307A0026343370566
:10234C009304B002138759FFB3843441B3549400FF
:10235C00B315E900CD8CB317E400F24062449395B9
:10236C00C400520AB1813367BA00D2444249B2491F
:10237C00224A3E85BA8505618280C92993090502E6
:10238C0045B7938559FDB314B4008147F9B793074A
:10239C00604363D34703138689032285CA85512181
:1023AC004D8D2146B334A000CA85228533063641B3
:1023BC00A12133E4A4002E892147A287CA85635446
:1023CC0037031307700263453707138789FFB3156B
:1023DC00E900130980023309394133592401B365EB
:1023EC00B900B317E400370780FF7D17F98D13F799
:1023FC00770001CF13F7F70091466308D7001387D6
:10240C004700B337F700BE95BA8713978500635A18
:10241C000700370780FF7D17130AF043F98D330A45
:10242C003A418D831395D501C98F93D4350035B7B7
:10243C00938589FDB315B400814775B781448147F5
:10244C00014A21BF011126CA935475014AC84EC6D0
:10245C0052C49319950006CE22CC56C293F4F40FB5
:10246C002E8A93D999001359F501ADC49307F00F37
:10247C00638EF4068E09B7070004B3E9F900938460
:10248C0014F8814A93577A0113149A0093F7F70FB3
:10249C002580135AFA01ADC71307F00F638DE706B9
:1024AC000E0437070004598C938717F8814613964E
:1024BC002A00558E9D8C7D16B9473345490163E53D
:1024CC00C706175700001307670F0A063A961C42F7
:1024DC00BA978287638309024E858D2E9307B5FFC9
:1024EC009304A0F8B399F900898C61BF9304F00FA1
:1024FC00894AE38909F88D4A71B78144854A59B7ED
:10250C000DC02285A1269307B5FF3314F400930761
:10251C00A0F8898F61BF9307F00F894649D88D4683
:10252C0079B78147854661B79315540063FC890CD4
:10253C00FD14814613D40501B3D88902C167FD1778
:10254C00ED8FC18233F78902468633881703420721
:10255C00558F637C07012E971386F8FF6367B700CE
:10256C00637507011386E8FF2E973307074133582D
:10257C00870233778702B3860703931707014287D5
:10258C0063FCD700AE971307F8FF63E7B70063F55A
:10259C00D7001307E8FFAE9713140601958F598CDB
:1025AC00B337F0005D8C1387F4076359E008937719
:1025BC00740099C79377F40091466383D700110494
:1025CC009317440063D80700B70700F8FD177D8CFC
:1025DC00138704089307E00F0D8063C6E704931775
:1025EC00770126043707807FF98F25805D8C7E0567
:1025FC00F240418D6244D2444249B249224A924A45
:10260C00056182809396F90193D9190025B74A8503
:10261C004E84D6868D476382F60685476385F6061B
:10262C008947E392F6F801441307F00F4DBF52852A
:10263C00D5B73704400001458D46E9BF8547998FD2
:10264C006D476342F7049384E409B357F4003314E1
:10265C009400333480005D8C9377740099C7937722
:10266C00F40011476383E7001104931754000D80A5
:10267C0063DC0700014405479DB73704400013078E
:10268C00F00F0145A9BF0144014791BF011106CECE
:10269C0022CC26CA4AC84EC652C4B367B500DDCF99
:1026AC002A84AE89A9C12E855522AA841309E00B70
:1026BC00330999409307600963CB27039307800282
:1026CC0063D69700938484FD331494002604131569
:1026DC0079012580F240418D6244D2444249B2498D
:1026EC00224A056182809D2293040502C1B793079B
:1026FC00900963D227031386B4012285CE85152257
:10270C004D8D13065002333AA000058E2285CE85DE
:10271C00E5203364AA009307500263D69700938791
:10272C00B4FD3314F400370500FC7D159377740069
:10273C00618D91C73D8891476303F4001105931790
:10274C00550063DA0700B70700FCFD171309F00BFF
:10275C007D8D33099940135435008DBF01440149D7
:10276C00B5B793577501411193F7F70F22C426C2E1
:10277C00131495009354F5011385170006C61375B1
:10278C00E50F25800DC51385073893573400760463
:10279C00B2075205B183C98F1395F401B24033E7E8
:1027AC00A700228522449244BA854101828095EB90
:1027BC0065D022856128A94763CFA700AD47898FD3
:1027CC0013075501B357F4003314E4001307903882
:1027DC003305A74075BF930755FFB317F4000144A9
:1027EC00F5B7814719C493573400370708007604AE
:1027FC00D98F1305F07F69BF01CE93070002918F2B
:10280C006349F000130506FE014733D5A500BA85D0
:10281C00828033D7C5003355C500B395F5004D8D77
:10282C00FDB701CE93070002918F6349F000930529
:10283C0006FE0147B315B5003A8582803317C500F3
:10284C00B395C5003355F500C98DFDB7C1676376E7
:10285C00F5029307F00FB3B7A7008E07130700021A
:10286C001D8F3355F500975700009387E7D83E9599
:10287C00034505003305A740828037070001C14797
:10288C00E36EE5FCE147D9BFAA85814601460145C7
:10289C006F00F0634111975700009387E71B22C428
:1028AC00175400001304441B1D8C26C206C6098451
:1028BC00BE8419E42244B240924441016FE0EFAF70
:1028CC007D1493172400A6979C438297DDB7411182
:1028DC00975700009387471822C41754000013041D
:1028EC00A4171D8C26C24AC006C6098481443E89A1
:1028FC0063988402EFE04FAC975700009387C7159D
:10290C0017540000130444151D8C098481443E891E
:10291C00639F8400B2402244924402494101828068
:10292C0093972400CA979C4385048297D1B79397B9
:10293C002400CA979C4385048297D9BF797122D40D
:10294C004AD052CC56CA5AC806D626D24ECE2E8A59
:10295C00328436893A8BC28A6352060C3707008060
:10296C003344C7001307D0022380E70093F4F8FD2B
:10297C00930760048D466388F400930750048946DE
:10298C006393F4000509D6879308C10013088100EE
:10299C004A87D2852286EF00906E93077004AA892D
:1029AC006396F400137B1B00630A0B04930760040B
:1029BC00338B29016397F40203C7090093070003C3
:1029CC00631EF700014681465285A285EF30605A9E
:1029DC0011C585463389264123A02A0183A70A0005
:1029EC003E9B014681465285A285EF30805811E10D
:1029FC005AC613070003B24763E56703B247425751
:102A0C00B2502254B38737411CC392540259624AC4
:102A1C00D24A424B4E85F2494561828023800700A1
:102A2C00B1B79386170036C62380E700E9B72300B9
:102A3C00C500930725001307B00263D60500B30544
:102A4C00B0401307D002A300E50025476352B70638
:102A5C0041111307F1003A88A9481303300633E6F5
:102A6C001503BA867D1713060603A38FC6FE2E86A2
:102A7C00B3C51503E345C3FE9388E6FF93850503B1
:102A8C00A30FB7FE3E864687636D0701014763655A
:102A9C00180113071101158FBA973385A74041010F
:102AAC0082808345070005070506A30FB6FEE9BF24
:102ABC00930700032301F500938505039307450055
:102ACC00A301B5003385A7408280197186DEA2DC94
:102ADC00A6DA2E84CAD8CED6D2D4D6D23A8ADAD0B6
:102AEC00DECEE2CC3289B689E6CAEAC8EEC6AA8442
:102AFC00EF103058032C05006285EF00D01E032B1D
:102B0C00040002DC834A840113770B1083270A002C
:102B1C00AA8B71CF138747002320EA009C4308102F
:102B2C0098433AD0D8433AD298473AD4DC473ED669
:102B3C00EF40000028C46CC4832DC40497D7FF0F4A
:102B4C009387076B03A8070083A84700832C840492
:102B5C00139A1D00135A1A004286C6866685D285C2
:102B6C0042CC46CEEF30506C51ED6248F24866854F
:102B7C004286C686D285EFF02FE36355A008014646
:102B8C0081466685EE85EFF02FE2635605009307CC
:102B9C00D002A301F40493077004175A0000130A1F
:102BAC00AAB563F65701175A0000130A2AB5137B0E
:102BBC00BBFF8D47232064011CC8014B4E87CA867E
:102BCC007018A2852685C92EFD5C631D95157D5553
:102BDC00F6506654D6544659B659265A965A065B40
:102BEC00F64B664CD64C464DB64D096182809D071E
:102BFC00E19B138787002320EA009843DC4338C409
:102C0C007CC41DBF6686EE866685EE85EF30D0618E
:102C1C0011CD93077004175A0000130A6AAEE3F83B
:102C2C0057F9175A0000130AEAAD51B75C407D57AB
:102C3C0013FDFA0D6393E70899475CC05440136782
:102C4C000B403C183EC0E6859307310318C002C206
:102C5C00D688130841036E862685CD319307700400
:102C6C00D2552A8A631BFD00F55763C5F5005C40FD
:102C7C0063D7B708F91A93FAFA0F9307500663E56E
:102C8C005705FD155686130504052EDA4D3362578C
:102C9C0085462A8BB307A7001CC863C5E6001840FD
:102CAC00058B19C385071CC883473103E38807F0DC
:102CBC009307D002A301F40411B713077004E31FA8
:102CCC00EDF6ADFF854795BF93076006639BFA024F
:102CDC005C40635BB0000CC881E71840058B09CFE2
:102CEC008507AE971CC809A889E718408546058B4F
:102CFC0019C39386270014C82CCC014B75B7930AC3
:102D0C007006E25763C9F5001C400CC8858BEDD7E3
:102D1C0093871500C1BF05476344B00009470D8F69
:102D2C00BA97C9B71C4013F7074015E314485286ED
:102D3C00CA8526858299E30C95E91C40898B63989A
:102D4C000724F2574844E355F5E83E8551B513077F
:102D5C005006637D571928446C4401468146EF3078
:102D6C00402139E98546175600001306E699CA85B5
:102D7C0026858299E30D95E55257E2576345F70096
:102D8C001C40858BDDDBDE866286CA8526858299B2
:102D9C00FD57E30EF5E2014A930AA4017D5BE2576D
:102DAC00FD17E35CFAF885465686CA852685829916
:102DBC00E30F65E1050AE5B7D2576346F006854691
:102DCC001756000013064694CA8526858299E3009F
:102DDC0095E1D2576257D98F81E71C40858BB1DFC3
:102DEC00DE866286CA8526858299FD57E301F5DE6B
:102DFC00814A130BA401FD5BD257B307F04063CBA0
:102E0C00FA00E2565286CA8526858299FD57E3164A
:102E1C00F5F275BB85465A86CA8526858299E308E4
:102E2C0075DB850AD1BF3C4CE25A63D35701BE8A8D
:102E3C0063495007014B130DA401FD5D832C8405E0
:102E4C00D68763D30A008147B387FC406344FB06F3
:102E5C005257E2576349F7061C40858BADE7E25A9F
:102E6C005257B3879A41B38AEA4063D35701BE8A5B
:102E7C0063445007014A130BA401FD5B5257E25700
:102E8C00998F568763D30A000147998FE357FAEA63
:102E9C0085465A86CA8526858299E30A75D3050A22
:102EAC00F1BFD6865286CA8526858299FD57E313D3
:102EBC00F5F831BB85466A86CA8526858299E30872
:102ECC00B5D1050BA5BFDE866286CA85268582999B
:102EDC00FD57E316F5F8E5B9D68633069A01CA858F
:102EEC0026858299FD57E317F5F8D5B1E2560547CB
:102EFC006344D700858BB5C785465286CA8526851F
:102F0C008299FD5AE30555CDDE866286CA852685F3
:102F1C008299E30E55CB28446C4401468146EF3030
:102F2C0040051DC9E25613061A00CA85FD162685F2
:102F3C008299E30E55C9DA8613060405E9B5854670
:102F4C005686CA8526858299E30375C9050AE25718
:102F5C00FD17E346FAFEC5B7014A930AA401FD5BCF
:102F6C00FDB785465286CA8526858299E31595FD5F
:102F7C00B9B985465686CA8526858299E30965C501
:102F8C00050A5C447257998FE345FAFE5DBB014A12
:102F9C00930A94017D5BF5B7797152CC9C493A8ABE
:102FAC00984522D426D24ECE56CA06D64AD05AC8F6
:102FBC005EC6AA892E84B284B68A63D3E700BA8728
:102FCC009CC00347340419C385079CC01C4093F76D
:102FDC00070281C79C4089079CC003290400137910
:102FEC006900631A0900130B9401FD5B5C44984063
:102FFC00998F634CF90483473404B336F0001C40BA
:10300C0093F70702A5EB13063404D6854E85029A76
:10301C00FD576303F5041C4011469840998B5444AA
:10302C0081446397C700B384E64063D304008144B2
:10303C001C4418486354F700998FBE9401496904E5
:10304C007D5B63982405014509A885465A86D6857B
:10305C004E85029A631E75017D55B25022549254CE
:10306C000259F249624AD24A424BB24B45618280C4
:10307C000509ADBF3307D40013060003A301C70431
:10308C000347540493871600A2978906A381E7048B
:10309C009DBF85462286D6854E85029AE30E65FB3A
:1030AC00050945B7797122D426D24AD04ECE06D620
:1030BC0052CC56CA5AC82E84B6899386350483C519
:1030CC00850193078007AA84328963ECB7009307C4
:1030DC00200663EDB7006386051C93078005638BA0
:1030EC00F512930A24042301B40415A89387D5F987
:1030FC0093F7F70F5546E366F6FE174600001306E6
:10310C0066638A07B2979C43B29782871C43930AE3
:10311C002404938647009C4314C32301F40485477D
:10312C006DA21C40084313F60708930545000DC219
:10313C001C410CC363D807001307D002B307F0403F
:10314C00A301E404174600001306465C2947A9A016
:10315C0013F607041C410CC371DEC207C187D9BF2B
:10316C0010401C43137806081385470063050800BC
:10317C0008C39C4339A01376060408C37DDA83D7B1
:10318C0007001307F0061746000013062658638441
:10319C00E50E2947A30104044C400CC463C505008B
:1031AC0008406D9908C099E3B68A99CDB68AB3F5F3
:1031BC00E702FD1AB29583C505002380BA00BE85CF
:1031CC00B3D7E702E3F5E5FEA147631EF7001C4009
:1031DC00858B91CB58401C4863C7E70093070003CD
:1031EC00A38FFAFEFD1AB386564114C84E87CA86C1
:1031FC007000A28526854D337D5A631C450D7D5587
:10320C00B250225492540259F249624AD24A424B69
:10321C0045618280A302B404174600001306064FD2
:10322C000C40084313F805081C411105630D0802F6
:10323C0008C313F7150001C793E505020CC04147FD
:10324C00B1FB0C4093F5F5FD0CC0A9B71C4093E7FE
:10325C0007021CC093078007A302F4041746000062
:10326C001306064C75BF13F8050408C3E30308FCEA
:10327C00C207C1837DBF214731BF10401C434C485E
:10328C0013780608138547006306080008C39C439F
:10329C008CC301A808C3137606049C4375DA2390EB
:1032AC00B70023280400B68A91B71C4350408145CF
:1032BC009386470014C383AA07005685EF10C0708D
:1032CC0001C53305554148C05C401CC8A30104042A
:1032DC0031BF14485686CA8526858299E30145F389
:1032EC001C40898B8DE7B2474844E35BF5F03E8583
:1032FC0001BF85465686CA8526858299E30165F10C
:10330C00050A5C443247998FE345FAFEE9BF014A4E
:10331C00930A94017D5BF5B75D7122D406D62A849D
:10332C002EDA32DC36DEBAC0BEC2C2C4C6C603A5B3
:10333C00018119C51C4D89E72AC6EF10003D3245A5
:10334C000C455418228636CEEF208019B2502254E8
:10335C0061618280AA8503A5018119CD1C4D89EF7D
:10336C00011106CE2EC62AC4EF10203A2245B245D2
:10337C00F2401045056119A01045F5BF011122CC92
:10338C0006CE2A8409C91C4D99E732C62EC4EF100B
:10339C00C0373246A2459747000093872742631CEB
:1033AC00F60250401C46FD171CC663DA0700184E87
:1033BC0063C3E70493F7F50F2947638EE7021C42BA
:1033CC0013F5F50F1387170018C22380B700F240CE
:1033DC0062440561828097470000938727406314FD
:1033EC00F6001044C1B7974700009387273BE31BB7
:1033FC00F6FA504445BF22856244F2400561FDA8AF
:10340C00011126CA4AC806CE22CC4EC652C4AA8482
:10341C002E8909C51C4D99E3EF10202F9C4C80443C
:10342C0081E72685EF10602E9747000093870739B8
:10343C00631CF402C0408357C400A18BB1C71C4865
:10344C00A1C7FD59294A1C4483450900FD17B1E960
:10345C001CC463DE07062286A94526854520FD5738
:10346C006308F502294535A0974700009387073775
:10347C006314F4008044C1B7974700009387073268
:10348C00E31BF4FAC04445BFA28526851D2A55D9F5
:10349C007D55F2406244D2444249B249224A056108
:1034AC0082801CC4050963D70700184C63CBE70066
:1034BC00638945011C401387170018C02380B7008F
:1034CC0059B7228626851D28E31F35F7D1B71C4036
:1034DC001387170018C029472380E70061B7AA8516
:1034EC0003A5018131BFAA8703C7070085076DFFBC
:1034FC003385A7407D1582806FD02FA8011122CC77
:10350C0026CA4AC806CE4EC6AA842E89328409C55C
:10351C001C4D99E3EF10601F974700009387072A13
:10352C00631BF406C0401C4C1CC48357C400A18B05
:10353C00D9C31C48C9C31C4808409379F90F1379A7
:10354C00F90F1D8D5C486347F500A2852685EF10A9
:10355C00000A35E51C440505FD171CC41C401387E7
:10356C00170018C0238037015C486389A700835774
:10357C00C400858B89CBA9476317F900A2852685E2
:10358C00EF10E0060DEDF2406244D244B2494A8598
:10359C004249056182809747000093872724631472
:1035AC00F400804449B7974700009387271FE31C1A
:1035BC00F4F6C0448DBFA285268521202DDD7D59D2
:1035CC00D9B7411122C426C24AC006C683A40181C0
:1035DC002A892E8491C49C4C81E72685EF10E01239
:1035EC00974700009387871D6317F402C040831729
:1035FC00C4001397070193F687004183B5EA9376CD
:10360C00070195EA25472320E90093E707042316D1
:10361C00F4007D5545A0974700009387271C631441
:10362C00F4008044E9B79747000093872717E3100D
:10363C00F4FCC0446DBF118B15C74C5891C993074E
:10364C0044046385F5004A85EF10904B232A04024D
:10365C008357C4002322040093F7B7FD2316F4000C
:10366C001C481CC08357C40093E787002316F40042
:10367C001C4889EF8357C4001307002093F70728D1
:10368C006386E700A2854A85EF10C0258317C40026
:10369C001397070193F6170041839DC254482324C6
:1036AC000400B306D04014CC1448014581E61377CE
:1036BC00070821FFB2402244924402494101828012
:1036CC0093762700014691E2504810C4F1BFAA88B6
:1036DC00138581881C4191EF1387C19218C117D5AE
:1036EC00FF7F13056591BA8709C51C412324F70890
:1036FC00BA87D8437D487D556346E804638D08023C
:10370C0003A887086300080413152700429510C10D
:10371C000323081005463316E6003363C300232049
:10372C0068102320D50889466397D8008326481053
:10373C00558E2322C810930617000A07D4C3BA97D4
:10374C008CC701458280011122CC1C49804906CED0
:10375C0026CA4AC84EC652C456C263C087127D14CC
:10376C002A89138A450113152400B30AAA00930968
:10377C00490183A70A004E9518418507B354F702F7
:10378C006365F7064168D2884E83014E814E7D18E1
:10379C0003A6080011039108337706014182330711
:1037AC00970233069602729793560701B377070177
:1037BC00B387FE4036968326C3FF135E060133762D
:1037CC00060133F70601BA97C18213D70741918ED0
:1037DC00BA9693DE0641B3F70701C206D58F232EA6
:1037EC00F3FEE3F71AFB1C41B5CB4A85EF10F00A48
:1037FC006349050441668504CE8501457D16032881
:10380C000A0098419105B376C800158DB376C700B0
:10381C00AA96935707011358080113D70641B3878B
:10382C000741BA9713D50741F18EC207D58F110AFC
:10383C0023AEF5FEE3F54AFD93172400CE9798438B
:10384C001DC72685F2406244D2444249B249224AFD
:10385C00924A056182801C4189E77D147115E3EC65
:10386C00A9FE2328890051B7984309E77D14F11765
:10387C00E3ECF9FE23288900E9B70145E1B735717E
:10388C003EDC5C5122CD26CB4AC94EC752C55AC12B
:10389C0006CF56C3DEDEE2DCE6DAEAD8EED636CA6E
:1038AC003ACE46D0AA842E8B328442892E8AB28993
:1038BC0089EF4145EF10000DC8D0232205002324C9
:1038CC0005002320050023260500DC508C4389CD00
:1038DC00D84385472685B397E7009CC5D8C1EF1020
:1038EC00C030DC5023A007006353040485479319B0
:1038FC0014002320F90093D91900B707F07F33F790
:10390C00F9006314F70662578967B2099387F77059
:10391C0093D9C9001CC3B3E96901E3870932825703
:10392C0091EB97470000938727E73EC639A82320E1
:10393C000900E1B797470000938707E63EC6974713
:10394C000000938797E502571CC3FA406A4432453E
:10395C00DA444A49BA492A4A9A4A0A4BF65B665CE7
:10396C00D65C465DB65D0D618280014681465A8506
:10397C00CE855AD44ED6EF20C05F05E162578547FD
:10398C001CC397470000938727D83EC68257D5DFC4
:10399C0097470000938757D77DB7B808F4084E8631
:1039AC00DA852685EF10300693D749011397570116
:1039BC00E64A2A8413F9F77F63060712B257225599
:1039CC00130919C09395C700B181B707F03FDD8D7E
:1039DC0082C097D7FF0F938727829043D443EF2061
:1039EC00902497D7FF0F9387A7819043D443EF2060
:1039FC00E05E97D7FF0F938727819043D443EF1056
:103A0C005078AA8B4A852E8BEF30E00B97D7FF0F9F
:103A1C00938707809043D443EF20405C2A86AE8680
:103A2C005E85DA85EF10F075AA8B2E8BEF30600374
:103A3C00AA8D014681465E85DA85EFE0EFF6635B81
:103A4C0005006E85EF3020085E86DA86EF20605226
:103A5C0011C1FD1D0547D9473AD863E3B703139746
:103A6C003D00974700009387A7DCBA979043D44357
:103A7C002255B255EFE04FF363530500FD1D02D8FC
:103A8C0033892A41930BF9FF014B63D60B00054B8D
:103A9C00330B2B41814B63C80D08EE9B6ED2814CCE
:103AAC005247A54763EBE7149547854A63D6E70071
:103ABC009307C7FF3ECA814A52479147630BF706EB
:103ACC0095476300F7128947630BF7108D4702CCBB
:103ADC00630BF71085473ECCFD573EC87D5DC9474B
:103AEC0002CE95A076499307000256999305294377
:103AFC0063D6B702130500040D8D93052941339548
:103B0C00A900335BBB0033656501EFE04FFAB707E3
:103B1C0010FEBE9585477D19BEC065BD3385B74087
:103B2C003315AB00DDB7330BBB41B30CB04102D244
:103B3C0085BF85473ECCF2476344F00C854705476B
:103B4C003EC8054D3ACE03A9440211472322090071
:103B5C00930647018325490063F8D70A2685EF10A1
:103B6C000000DC502320A9009C433EC6B94763E704
:103B7C00A71D63850A1C6350B00D13F7FD00931746
:103B8C003700174700001307A7CA3E9713D94D40BB
:103B9C001C43032C470013770901894A15C31747A7
:103BAC000000130767C6105354532255B2553EDA22
:103BBC001379F900EFE08F80D2572A8AAE898D4AAB
:103BCC0017470000130747C4631509043E86E286B5
:103BDC005285CE85EFD09FFE2A8AAE8969A802CC89
:103BEC0099BF85473ECCF247EE973EC8138D170020
:103BFC00EA87E34AA0F58547B9B7854A02CAD9BD19
:103C0C00F2473EC83E8D81B785052322B9000607D1
:103C1C0081B79376190081CE104354433E85E285DB
:103C2C003ADAEF20A03B5257850AAA872E8C1359FB
:103C3C001940210751BF894A638F0D023309B041E6
:103C4C009377F9001397370097470000938747BE87
:103C5C00BA979043D4432255B25513594940174C47
:103C6C000000130C6CBAEF2060372A8AAE898147AA
:103C7C00631A0912B5F3C2576385071417C7FF0FF0
:103C8C0013070756104354435285CE8552DAEFE0A2
:103C9C00AFD16358051263090D12C247635EF00879
:103CAC00D25717C7FF0F13072754104354433E85B1
:103CBC00CE85EF20A032C247138CFDFF2A8AAE8935
:103CCC00850A5685BEC24EDA52DEEF20D05F72589E
:103CDC0052574E894286BA86EF20403097C6FF0F66
:103CEC00938686539042D442B709C0FCEF107049BA
:103CFC009647AA8AAE99E1EF97C7FF0F9387475271
:103D0C00725852579043D4434285BA85EF20A07124
:103D1C005686CE862A8A2E89EFE0AFBE6348A05421
:103D2C00B7070080B3C737015686BE865285CA8551
:103D3C00EFE08FC763490552225AB259F64763C464
:103D4C00073039476341B73113973D00974700005F
:103D5C00938707AEBA9703AB070083AB4700F247D4
:103D6C0063DF071E634DA01F631F0D4E97C7FF0F28
:103D7C009387074B9043D4435A85DE85EF2000266A
:103D8C005286CE86EFE0EFB7814A01496355054A6A
:103D9C00B2473247850D9389170093071003230010
:103DAC00F70071A91377190009CB03260C008326A1
:103DBC004C00850AEF208022854713591940210CAD
:103DCC0045BD6E8CEA87F5BD6E8C8147DDBDB24575
:103DDC009386F7FF13963600AE973EDEE247974682
:103DEC0000009386E6A4B2969042D442DDCB97C7EE
:103DFC00FF0F938767438843CC43CEC256DAEFD08C
:103E0C00FFDB525816474286BA86EF20C061B24992
:103E1C00AA8A2EDACA855285EF20B044AAC2EF20B6
:103E2C00904A2A86AE865285CA85EF20C05F964797
:103E3C00D256850993870703A38FF9FE56862A89E4
:103E4C002E8AEFE06FB66341051097C7FF0F93877B
:103E5C0027398843CC434A86D286EF20C05CD256A1
:103E6C005686EFE06FB4634A0518F257E386F9EC17
:103E7C0097C7FF0F938747379043D443D255568546
:103E8C00EF20C01597C7FF0F938707369043D44395
:103E9C002EDAAA8AD2854A85EF2040142A8A2E89E6
:103EAC0095BF5685CE85EF206013F257B249AAC252
:103EBC00AEC43EDA97CAFF0F938A0A33CA8552857D
:103ECC00EF20303AAAC6EF2010402A86AE865285E3
:103EDC00CA85EF2040553647F2578509130707036B
:103EEC00A38FE9FE2A8A2E896392F90697CAFF0FDF
:103EFC00938A8A3303A60A0083A64A001645A64570
:103F0C00EF1030282A86AE865285CA85EFE06F9F67
:103F1C006345A00E1646A64603A50A0083A54A00D3
:103F2C00EF2060502A86AE865285CA85EFE0CFA777
:103F3C00E35405E093070003D2591387F9FF3ADAEB
:103F4C0003C7F9FFE30AF7FEE28D79A003A60A0086
:103F5C0083A64A00EF2080082A8A2E8985B7B247AB
:103F6C00D28C4E8C138A17003E9D97CAFF0F938AF2
:103F7C00AA275A86DE866685E285EFD03FC4EF20FD
:103F8C00502E2A89EF2030345A86DE86EF20000529
:103F9C00AE862A86E2856685EF20E0489306090303
:103FAC00A30FDAFED28963114D092A86AE86EF1073
:103FBC00501D5A86DE86AA8A2E8AEFE08F94634DB6
:103FCC00A0025A86DE865685D285EF10907A09E5D6
:103FDC0013791900631209022685A285EF00F040BF
:103FEC00E2572380090013851D0088C38257E38E96
:103FFC00079423A0370191BA6E8CCE8713079003D8
:10400C00BE8983C6F7FFFD17639AE600B246E399B3
:10401C00F6FE13070003050C2380E60003C7070018
:10402C0005072380E7000DB703A60A0083A64A0004
:10403C00050AEF10B07A01468146AA8C2E8CEF103F
:10404C00507305F951BF624763010710D24605470B
:10405C006346D70C06479387374309E766479307B0
:10406C006003998FE68A5A8C854526853E9BBE9BBC
:10407C00EF00D0502A89635E8001635C7001E28797
:10408C0063D38B01DE87330BFB40330CFC40B38BCB
:10409C00FB4063810C04E247CDCF63545003CA85C7
:1040AC0056862685EF0070652286AA852A89268584
:1040BC00EF00704E2AD4A2852685EF001033A2574C
:1040CC003E8433865C4163875C01A2852685EF00C4
:1040DC00D0622A8485452685EF00504A9257AA8AD9
:1040EC00635BF0063E86AA852685EF001061524779
:1040FC008547AA8A814C63C8E706814C63120A067D
:10410C009397C900D28CA9EFB705F07FB3F9B9002A
:10411C0063880904050B850B854C99A0930AFDFF58
:10412C0063CA5C01B38A5C41635E0D00330CAB4126
:10413C0081471DBF9257B38C9A41E6973ED2D68CDD
:10414C00814ADDB75A8CEA8705B7E68A5A8C014951
:10415C001DB766869DBF52478547814CE3DFE7F864
:10416C009257054589CF83A70A018D078A07D697F1
:10417C00C843EF00B035930700023385A7405E9526
:10418C007D8951C193070002898F1147635AF70645
:10419C00F1473385A7402A9B2A9CAA9B6358600150
:1041AC00A2855A862685EF00D0602A846358700158
:1041BC00D6855E862685EF00D05FAA8AC257B1C726
:1041CC00D6852285EF00706D63510504A28581466A
:1041DC0029462685EF00D025E247FD1D2A846383FE
:1041EC000728CA85814629462685EF007024C247D8
:1041FC002A896345F0085247894763D1E70829A803
:10420C00E38EE7F83E85710579B76345A007524701
:10421C00894763D1E7066AC8C24791EFD6858146C4
:10422C0015462685EF00D020AA8AAA852285EF00A4
:10423C00D066E34FA0B4F247B24993CDF7FF014BE0
:10424C00D6852685EF00701AE30809D863080B00A1
:10425C0063062B01DA852685EF003019CA85268581
:10426C00EF00B01895BB814A0149F1B7E28D814A44
:10427C00014939BEE2476AC8638D071E6358800145
:10428C00CA8562862685EF00D0522A894A856386C4
:10429C000C02832549002685EF00700C03260901CA
:1042AC00AA899305C90009060A063105EF00607357
:1042BC000546CE852685EF00D04FB24742474A8B44
:1042CC00138C1700BA973ECC93771A002A893EC8F4
:1042DC00D6852285EFF02FC7DA85AA8C130A050341
:1042EC002285EF00905BD685AA8B4A862685EF0047
:1042FC00705E5445130DFCFFAA85054799E62ACE3E
:10430C002285EF009059F2452A8726853ACEEF0098
:10431C00D00DD2477247E289B3E6E700C247DD8E83
:10432C0081EE130790036308EA0463547001138A47
:10433C001C0323004D0129B763CA0B00D247B3EB12
:10434C007701C247B3EBFB0063980B04E353E0FE29
:10435C00A28505462685EF00D045D6852A84EF0038
:10436C00D0536346A00071F513771A0079D3130765
:10437C009003E31EEAFA930790032300FD00CE8717
:10438C0093069003BE8903C7F9FFFD176305D70A8F
:10439C0005072380E7006DB5635BE000130790030E
:1043AC00E30BEAFC93071A002300FD0051BDE24722
:1043BC00A30F4CFF63888705A28581462946268575
:1043CC00EF0010072A8481462946DA852685631872
:1043DC002B01EF00F0052A8B2A89050CD5BDEF00C7
:1043EC003005CA852A8B814629462685EF00500464
:1043FC002A89E5B7C24785496353F000BE89B247A5
:10440C00014BBE99A28505462685EF00903AD685CC
:10441C002A84EF009048E344A0F601E593771A0054
:10442C00B9FFCE8713070003BE8983C6F7FFFD17BC
:10443C00E38CE6FE31B53247E316F7F4930710032D
:10444C00850D2300F700EDBB0257973700009387CB
:10445C00E7333EC6973700009387C733631507CE03
:10446C006FF0AFCEC2476346F00052478947E3C5B1
:10447C00E7DA8149D6852285EFF0EFACB247130A13
:10448C00050333873701C247230047018509E3D36E
:10449C00F9F6A285814629462685EF0060792A84A3
:1044AC00D1BF83D7C500011122CC26CA06CE4AC87B
:1044BC004EC613F78700AA842E846DE7D841634754
:1044CC00E000B8416344E0000145C9A058546DDFD9
:1044DC0003A904009396370123A0040063DF0606AA
:1044EC0068488357C400918B99C75C401D8D5C58FC
:1044FC0099C33C401D8D5C540C502A868146268500
:10450C008297FD570357C400631DF5009440F5478F
:10451C0063E5D708B70740208507B3D7D700858B4D
:10452C00ADCF1C48232204001CC09317370163D85D
:10453C000700FD576314F5009C4091E368C84C5884
:10454C0023A02401D1D1930744046385F50026856B
:10455C00EF00105B232A040285BF0C5085460146F0
:10456C0026850297FD57E31EF5F69C40BDDB75478B
:10457C006385E70059476395E70023A02401A9B799
:10458C008357C40093E707042316F400F2406244F7
:10459C00D2444249B249056182801367070423164D
:1045AC00E400EDB783A90501E38009F203A9050036
:1045BC008D8B23A0350133093941014791E3D8494B
:1045CC0018C4E35320F11C540C50CA864E86268521
:1045DC008297634AA0008357C4007D5593E7070474
:1045EC002316F40065B7AA993309A940D9BF9C4991
:1045FC00B9CF011122CC06CE2A8411C51C4D81E7FE
:10460C002EC62122B245973700009387271B639B48
:10461C00F5004C408397C50095C722856244F24053
:10462C00056141B5973700009387471B6394F500EC
:10463C000C44CDB79737000093874716E39CF5FCE5
:10464C004C44C9BFF240624401450561828001457A
:10465C008280411122C406C62A842316B500231772
:10466C00C500232005002322050023240500232256
:10467C00050623280500232A0500232C05002146C6
:10468C0081451305C5050529971700009387E71188
:10469C005CD097170000938747141CD49717000021
:1046AC00938787185CD4971700009387471BB240F9
:1046BC0000D01CD8224441018280970500009385CC
:1046CC0045F399A2411126C2130680069384F5FF87
:1046DC00B384C4024AC02E8922C406C693854407FB
:1046EC00EF00304C2A8419C9232005002322250110
:1046FC00310508C4138684068145752EB240228587
:10470C00224492440249410182801C4DADE3411187
:10471C0022C406C697070000938767FA1CD523248A
:10472C000504232605042328050483A741812A8434
:10473C006314F50085471CCD22851D2848C02285B1
:10474C00052808C422852D2048C4484001469145BF
:10475C00093708440546A545ED3D48440946C94579
:10476C00CD3D8547B2401CCC2244410182808280E1
:10477C00411126C283A441819C4C4AC006C622C466
:10478C002A8999E326855137938484048044DC403C
:10479C00FD1763D607009C40B1CF8440C5BF0317FB
:1047AC00C40031E7C17785072322040623200400C7
:1047BC0023220400232404005CC423280400232A9D
:1047CC000400232C0400214681451305C405E5246F
:1047DC00232A0402232C0402232404042326040485
:1047EC00B240228522449244024941018280130442
:1047FC00840679BF91454A85F13588C02A8451FDDC
:10480C00B1472320F900E9BF797122D44AD04ECEAA
:10481C0052CC5AC85EC606D626D256CA2A892E8AC9
:10482C00130485048149054BFD5B0444832A440031
:10483C00FD1A63D00A0200406DF8B2502254925413
:10484C000259624AD24A424BB24B4E85F2494561FB
:10485C00828083D7C400637BFB008397E40063876B
:10486C007701A6854A85029AB3E9A9009384840648
:10487C00C1B783A70181885309E517B5FF0F13054D
:10488C00A57D1305050F82805971CAD02E89839599
:10489C00E500A2D4A6D286D63284B68463DC0500A9
:1048AC008357C90023A0040093F7070895E39307E7
:1048BC0000400DA03000EF10E001E34305FE32474D
:1048CC00BD67F98F7977BA9793B717009CC0C5B7B6
:1048DC0093070004B6501CC0265496540659014543
:1048EC006561828083D7C500011122CC06CE26CA11
:1048FC004AC8898B2E8489CF930774041CC01CC8AA
:10490C0085475CC8F2406244D244424905618280CA
:10491C00740030002A898D3FA245AA844A85EF0095
:10492C00502801ED8317C40013F7072061FFF19B9A
:10493C0093E727002316F400C1B79707000093876D
:10494C0007D82324F9028357C40008C008C893E78A
:10495C0007082316F400A2475CC8B24791CF831511
:10496C00E4004A85EF00B07901C98357C400F19B7C
:10497C0093E717002316F4000355C400C98C2316C3
:10498C00940049B7AA8503A501816F00902185E1A8
:10499C0041116C00014511CA795581CA8347060043
:1049AC009CC1034506003335A000410182800145BE
:1049BC0019CA795589CA834706009CC1034506006C
:1049CC003335A0008280828093F5F50F2A9663140C
:1049DC00C5000145828083470500E38DB7FE0505C0
:1049EC00FDB7B3C7A5008D8BB306C50081E78D4716
:1049FC0063EEC700AA876378D50A03C7050085074D
:104A0C008505A38FE7FEE3EAD7FE82801377350096
:104A1C00AA8711CB03C7050085078505A38FE7FE81
:104A2C0013F73700FDB713F7C6FF130607FE63FB3A
:104A3C00C70483A3050083A2450083AF850003AFA1
:104A4C00C50083AE050103AE450103A3850183A810
:104A5C00C50123A0770023A2570003A8050223A4B5
:104A6C00F70123A6E70123A8D70123AAC70123AC8A
:104A7C00670023AE1701938545029387470223AE47
:104A8C0007FF75B72E883E866360E6021388D7FF52
:104A9C000146636607010D071D8F1376C7FFB2979A
:104AAC00B295E3ECD7F48280832808001106110834
:104ABC00232E16FFD1BF3D432A876373C30293771E
:104ACC00F700BDEFADE5937606FF3D8ABA960CC3B1
:104ADC004CC30CC74CC74107E36BD7FE11E2828075
:104AEC00B306C3408A069702000096966780A6001C
:104AFC002307B700A306B7002306B700A305B7002A
:104B0C002305B700A304B7002304B700A303B70021
:104B1C002303B700A302B7002302B700A301B70019
:104B2C002301B700A300B7002300B700828093F5E0
:104B3C00F50F93968500D58D93960501D58D61B7AC
:104B4C00939627009702000096968682E78086FA55
:104B5C009680C1171D8F3E96E374C3F8A5B75C51C0
:104B6C00411122C426C206C64AC02A84AE8481EFF3
:104B7C004145093D48D0232205002324050023206C
:104B8C00050023260500032944028327C90095C785
:104B9C005850939724005847BA97884321E1054908
:104BAC0033199900130659000A06854522853527C5
:104BBC0019CD44C12324250125A0130610029145CB
:104BCC002285212F5C502326A900DC47F1F30145F7
:104BDC00B24022449244024941018280184198C358
:104BEC002328050023260500E5B75C51411122C49A
:104BFC0026C206C6AA842E8489EF4145EFF09FD8C1
:104C0C00C8D02322050023240500232005002326D9
:104C1C00050011C8D4505C4013972700DC46BA97A6
:104C2C00984318C080C3B240224492444101828010
:104C3C00011122CC26CA4AC884492E84368993860F
:104C4C004501C16552C406CE2A8A4EC60145FD15E2
:104C5C009C429106050533F7B7003307C702C183A1
:104C6C00B387C7024A97135807016D8FC29713D9A0
:104C7C000701C207BA9723AEF6FEE34B95FC630E11
:104C8C0009021C4463C3F4024C4052858505C13DA6
:104C9C0010489305C400AA8909060A063105EFF0ED
:104CAC005FD4A285528591374E84938744008A073E
:104CBC00A29723A22701850404C8F24022856244EE
:104CCC00D2444249B249224A056182804177698FB8
:104CDC00AA87014519E3C2074145370700FF7D8FBD
:104CEC0019E32105A207370700F07D8F19E31105A1
:104CFC009207370700C07D8F19E309058A0763C93E
:104D0C0007001397170005056344070013050002FD
:104D1C0082801C412A8793F6770085C293F6170090
:104D2C000145A1EE93F6270089C685831CC3054572
:104D3C00828089831CC30945828093960701C182B6
:104D4C00014599E2C183414593F6F70F99E221059C
:104D5C00A18393F6F70099E21105918393F637003E
:104D6C0099E20905898393F6170081E68583050589
:104D7C0099C31CC38280130500028280411122C496
:104D8C002E84854506C6E13BB24040C92244054706
:104D9C0018C94101828098491C4A011122CC4AC889
:104DAC0006CE26CA4EC652C42E8432896354F700EE
:104DBC0032842E89032A0401832909011C444C40A6
:104DCC00B3043A0163D397008505EFF05FD99306DE
:104DDC004501139824003698B68763E6070513033C
:104DEC00440193152A0013064901939829009A95BA
:104DFC0093075401B298114E63E8F5003384854053
:104E0C002D147198130E4400C16EFD1E63611603C0
:104E1C00634F900CF240624404C94249D244B249F7
:104E2C00224A0561828023A0070091077DB7832F5A
:104E3C000600B3FFDF01638B0F04B6839A8201492E
:104E4C0003A7020003A403009103337FD701330FA0
:104E5C00FF03B377D401418091023E9F9357070122
:104E6C00B387F7034A9F13570F01337FDF01A297D4
:104E7C00BA9713D90701C207B3E7E70123AEF3FED4
:104E8C00E3E0B2FCB387C60123A0270183532600BD
:104E9C00638C03049C42B68F1A8F814203270F0048
:104EAC0003D42F00B3F7D7013377D7013307770239
:104EBC00910F110F2297169793120701B3E7F20087
:104ECC0023AEFFFE8357EFFF83A20F004183B3870E
:104EDC007702B3F2D2019697BA9793D20701E36F98
:104EEC00BFFA3387C6011CC31106910605B7832789
:104EFC00C8FF711885F3FD1421BF011126CA4AC8D9
:104F0C004EC606CE22CC52C4937736002A89B28480
:104F1C00AE8989CFFD17173700001307E79D8A0765
:104F2C00BA9790438146EFF0BFD0AA898984ADC867
:104F3C008327490291EF4145EFF0DFA42322A90218
:104F4C002322050023240500232005002326050029
:104F5C00032A490203248A0011E8930510274A8585
:104F6C00313D2324AA002A842320050093F7140042
:104F7C0099CBCE8522864A85393D2A8ACE854A85AB
:104F8C00EFF0BFC6D289858481CC084001E9228626
:104F9C00A2854A85093508C0232005002A84F9B763
:104FAC00F2406244D2444249224A4E85B2490561DC
:104FBC008280011122CC2E845AC0032B040126CAF4
:104FCC00CC41935456401C44269B4AC852C456C2EA
:104FDC0006CE4EC6AA8A3289130A1B0063C0470B41
:104FEC005685EFF0DFB793074501AA89BE860147C6
:104FFC0091066348970863D3040081448A04B386FE
:10500C0097001C48130744011376F9018A07BA97D5
:10501C002DCE130800023308C840B68881450843DA
:10502C00910811073315C500C98D23AEB8FE832531
:10503C00C7FFB3D50501E364F7FE1307540111460E
:10504C0063E7E700818FAD17F19B13864700B2969B
:10505C008CC299C1130A2B007D1A23A849015685CD
:10506C00A285EFF09FB8F2406244D2444249224AF2
:10507C00924A024B4E85B2490561828085058607AE
:10508C00B1BF23AE06FE0507A5B710431107910665
:10509C0023AEC6FEE36BF7FEC1B714499849AA8745
:1050AC003385E6406397E6020A07D107D105B3863C
:1050BC00E700BA9503A6C6FF03A7C5FFF116F115C5
:1050CC006307E6007D556366E60005458280E3E3F1
:1050DC00D7FE8280011122CC2E844AC8B2852A893F
:1050EC00228526CA06CE4EC6B284453F05E18145CF
:1050FC004A85EFF0DFA685471CC9232A0500F2403C
:10510C006244D2444249B249056182808549634672
:10511C000500A6878149A2843E84CC404A85EFF0E5
:10512C001FA483A804011848138344011398280072
:10513C00930744010A07416F232635011A98BA9741
:10514C0013064501D14E014E7D1F3387D401144304
:10515C003307D401832F0700B3F5E601F29533F73B
:10516C00EF01998D93DF0F0113D706013307F74138
:10517C0093D605413697135E0741B3F5E501420717
:10518C00B306D5014D8F910E98C233878E00E36E16
:10519C00F7FA93065401114763E7D700818FAD17D7
:1051AC00F19B13874700B306E30032974163BA8E35
:1051BC00B6857D1363E405031386D6FF81476367C9
:1051CC00C8000D083308D8409377C8FFBA9703A7D7
:1051DC00C7FFF1171DC72328150115B79C41910E68
:1051EC00910533F667007296135E0641C183F29700
:1051FC0013DE074133766600C207D18F23AEFEFE65
:10520C0055BFFD18E9B7797156CAAE8A854522D4C7
:10521C0026D232844AD04ECE52CCB6893A8906D6A2
:10522C00EFF0FF93370710009307F7FFE18F5180E2
:10523C0093165401AA84137AF47FB5E23EC66384B4
:10524C000A06280056C4EFF0DFACA24639C9324733
:10525C0093070002898FB317F700D58F3357A70038
:10526C00DCC83AC6324480CC33348000050480C894
:10527C0063060A04130ADABC2A9A9307500323A084
:10528C0049013385A7402320A900B250225402596A
:10529C00F249624AD24A2685925445618280D98F5E
:1052AC0071BFD4C8C1B76800EFF0BFA6B2471305F1
:1052BC0005020544DCC885479CC85DBF9307E5BC67
:1052CC0023A0F90093172400A697884B1604EFF03F
:1052DC00FF9F098C232089004DBF3386C502011125
:1052EC0022CC06CEB28532C66D282A8409C5324638
:1052FC008145EFF04FFCF2402285624405618280CB
:10530C00C5C183A7C5FF011122CC06CE1384C5FFEE
:10531C0063D307003E942AC62D2D1387C1881C43E6
:10532C0032453A8681EB2322040000C36244F240EA
:10533C0005610DA5637EF40014403307D400639619
:10534C00E7009843DC43369718C05CC000C2F9BF35
:10535C003E87DC4399C3E37DF4FE14433306D70048
:10536C00631F86001040B29614C33306D700E39F28
:10537C00C7FA9043DC43B29614C35CC345BF637554
:10538C00C400B1471CC15DB71040B306C40063969E
:10539C00D7009443DC43B29614C05CC040C379B7C9
:1053AC008280011126CA93843500F1984AC806CE32
:1053BC0022CC4EC6A104B1472A8963F1F404B1444E
:1053CC0063E0B4044A8571239387C1889843BE86F1
:1053DC003A8431E0138401891C4089E781454A8570
:1053EC00792E08C0A6854A85592EFD5963183507B4
:1053FC00B1472320F9004A85B12B31A0E3D204FC3C
:10540C00B1472320F9000145F2406244D24442499D
:10541C00B249056182801C40858F63CE07022D4600
:10542C006376F6001CC03E9404C029A05C40631255
:10543C0087029CC24A85392B1305B400930744009C
:10544C0061993307F540E301F5FC3A94898F1CC050
:10545C0065BF5CC3C5B722874040A5BF13043500A8
:10546C007198E30385FCB305A4404A85092EE31D1E
:10547C0035FBBDBF1C46FD171CC663DA0700184E72
:10548C0063C5E700A9476394F5006FE02F871C42C2
:10549C002E851387170018C22380B7008280011154
:1054AC0022CC26CA4AC84EC652C406CE2A89AE8918
:1054BC003284B304D6007D5A63149400014509A8C4
:1054CC00834504004E864A8575370504E31645FF6F
:1054DC00F2406244D2444249B249224A0561828078
:1054EC00357122CD26CB4AC94EC706CF52C556C3FD
:1054FC005AC1DEDEE2DCE6DAAA89AE843289368471
:10550C0009C51C4D99E3EFF04FA097270000938736
:10551C00E72A639CF40C83A4490083D7C400A18BB5
:10552C00FDC79C48EDC793070002A304F102930743
:10553C00000302D22305F10222C6930B5002972AD4
:10554C000000938A2A3C054C294B4A84834704006B
:10555C0099C36391770FB30C2441630D2401E68644
:10556C004A86A6854E85253FFD576307F51E925743
:10557C00E6973ED2834704006380071EFD5713094C
:10558C00140002C802CE3ECA02CCA309010482D484
:10559C008345090015465685EFF00FC3C247130427
:1055AC00190059E913F7070109C713070002A309EA
:1055BC00E10413F7870009C71307B002A309E1043C
:1055CC00834609001307A0026380E608F2474A8469
:1055DC00814625460347040093051400130707FD75
:1055EC006379E60AB5CA3ECE85A897270000938753
:1055FC00E71E6395F40083A4890005B79727000084
:10560C009387C719E39BF4F083A4C90039B7A68527
:10561C004E85EFD01FFB01D97D55FA406A44DA4420
:10562C004A49BA492A4A9A4A0A4BF65B665CD65CE6
:10563C000D618280050419BF330555413315AC004B
:10564C00C98F3EC82289A9B7324793064700184331
:10565C0036C6634907023ACE034704009307E002BB
:10566C00631FF704034714009307A002631BF702A0
:10567C00B2470904138747009C433AC663C107022B
:10568C003ECA35A83307E04093E727003ACE3EC820
:10569C00E1B7B38767032E848546BA9725BFFD57BC
:1056AC00C5B7050402CA8146814725460347040055
:1056BC0093051400130707FD6378E606F1F28345A2
:1056CC0004000D461725000013054524EFF0CFAF5D
:1056DC0011CD97270000938767231D8D9307000436
:1056EC00B397A700424505045D8D2AC88345040085
:1056FC001946172500001305A521130914002304CE
:10570C00B102EFF06FAC2DC197D7FFFF9387273C09
:10571C0095E74247B2471377071009CF91073EC66A
:10572C009257D2973ED215B5B38767032E84854620
:10573C00BA97ADBF9D07E19BA107D5B77800970637
:10574C000000938606D626860C084E85EFD0EFB760
:10575C00FD572A8AE316F5FC83D7C40093F7070498
:10576C00E39C07EA125555BD780097060000938616
:10577C0046D326860C084E85EFD0DF92D1BF41115F
:10578C0022C42A842E8523AC019A06C6EFB08F81E1
:10579C00FD576316F50083A7819B91C31CC0B240D3
:1057AC00224441018280411122C42E848395E5005C
:1057BC0006C65522634905007C48AA977CC8B240AE
:1057CC002244410182808357C4007D777D17F98F75
:1057DC002316F400EDB783D7C500011122CC26CADD
:1057EC004AC84EC606CE93F70710AA842E84328977
:1057FC00B68991C78395E500894601462D228357CA
:10580C00C4007D777D17F98F8315E4002316F4000F
:10581C006244F240CE864A86B24942492685D24439
:10582C000561B9A8411122C42E848395E50006C6F2
:10583C00DD28FD570357C400631BF500FD77FD17EA
:10584C00F98F2316F400B24022444101828085670F
:10585C00D98F2316F40068C8FDB78395E500B9A06D
:10586C0091CD9307F00F63F7C7009307A0081CC1F5
:10587C007D5582802380C50005458280014582804C
:10588C00411122C42A842E85B285368623AC019A16
:10589C0006C6EFA0FFF3FD576316F50083A7819BA7
:1058AC0091C31CC0B240224441018280411122C4E8
:1058BC002A842E8523AC019A06C6EFA0DFE9FD579A
:1058CC006316F50083A7819B91C31CC0B240224490
:1058DC0041018280411122C42A842E85B28523ACD9
:1058EC00019A06C6EFA0DFE7FD576316F50083A704
:1058FC00819B91C31CC0B240224441018280411162
:10590C0022C42A842E8523AC019A06C6EFA0FFE69A
:10591C00FD576316F50083A7819B91C31CC0B24051
:10592C00224441018280411122C42A842E85B285F1
:10593C00368623AC019A06C6EFA07FE4FD576316AA
:10594C00F50083A7819B91C31CC0B2402244410146
:10595C00828082808280411122C42A842E85B28565
:10596C00368623AC019A06C6EFA0BFE1FD5763163D
:10597C00F50083A7819B91C31CC0B2402244410116
:10598C008280370810007D180111B377B80013D747
:10599C0045013378D80093D8460122CC8E07137476
:1059AC00F77F1357D50126CAD98F93D4F501135716
:1059BC00D60193F8F87F93D5F6010E0806CE4AC8A7
:1059CC004EC60E05336707010E06B30614416395E8
:1059DC00B4226351D00E63980802B365C700638B81
:1059EC0005209385F6FF89E92A963335A600BA97E8
:1059FC00AA9732850544B1A81308F07F639D060170
:105A0C001304F07F71AA9305F07F630BB418B705EC
:105A1C0080004D8FB6859306800363C9B608FD469A
:105A2C0063C0B606130800023308B840B31607016A
:105A3C00B358B60033160601B3E616013336C00070
:105A4C00558E3357B7002A963E97B337A600BA97B0
:105A5C003285139787006355071405041307F07FED
:105A6C006305E448B70680FFFD16FD8E93551500BF
:105A7C0005899397F6014D8D5D8D93D716000DA278
:105A8C00938605FE93080002B356D700014863883D
:105A9C00150113080004B305B8403318B70033667A
:105AAC00C8003336C000558E014771BF598E33364E
:105ABC00C000DDBFD5CAB38588400DE4B3E6A700AE
:105ACC00638C06409386F5FF99E63295BA97333688
