:0200000480007A
:100000007370043073504030971100109381819CBD
:1000100017010110130101FF971200009382C28B98
:100020007390523073F051301705000013058509A5
:1000300097050000938505096300B5021776000057
:10004000130606D863FAC5008322050023A05500D5
:1000500011059105E3EAC5FE17750000130545D6A5
:1000600097050010938505FA1386C18663FAC500CB
:100070008322050023A0550011059105E3EAC5FE82
:100080001385C18697350010938545B16377B50018
:10009000232005001105E36DB5FEEF00D0211715F3
:1000A00000001305C540EF10803FEF10A043EF00A4
:0E00B000B02F014581452920EF00F03901A055
:1000C00071711305000306D722D54ECF5EC726D324
:1000D0004AD152CD56CB5AC962C566C36AC1EEDE5B
:1000E000EF1020472A84938B018A1305000323A075
:1000F0008B00EF100046176700001307A71C9767D7
:1001000000009387677483220700832E4700032E25
:1001100087000323C7008328070183AF070003AFCD
:100120004700032847010C4F0356C7018346E701E8
:1001300089439847232475009389418A9303800259
:100140002326750023285500232AD501232CC50119
:10015000232E6500232015037ED87ADA2322050397
:100160000CD52316C5022307D50200C123220500A2
:1001700023A0A90003A8C7008C4BD04B944F3ADCB6
:1001800003D7C70183C7E70129452316E1042307E5
:10019000F1041707001013072726A947232EF76439
:1001A00042DEAEC0B2C2B6C4EF1070751765000073
:1001B00013054513EF20800D2945EF10507483A7D8
:1001C000818A638A0760176500001305A514EF2074
:1001D000E00B2945EF10B0721765000013054519B3
:1001E000EF10F06D2945EF109071954517650000EF
:1001F0001305851BEF10B06C0145EF00D049AA87AD
:100200001387418701451CC3EF005046AA87138717
:10021000018701451CC3EF00D04297670000938718
:10022000A764984783AD070003AD47003AC4D84799
:100230008544138AC1873AC6984B938A8187138471
:10024000D1873AC8D84B138B81893ACA984F3ACC98
:1002500003D7C70183C7E701231EE100A30FF10005
:100260009387C18688C3130710042300EA0013078D
:1002700020042300E400224785478C08BACC32478B
:10028000081823A0FA00BACE42473ED6EEC8BAD02C
:100290005247EACABAD26247BAD40357C1012316F9
:1002A000E1060347F1012307E106EF00903593379C
:1002B000150030108D4523A0FA0009459D473ED416
:1002C000EF00102EA2560D46970500109385C5121B
:1002D0001385C195EF00502D03A50900EF0090197B
:1002E000034704009307000463F5E74E930C1004E2
:1002F0000D49176C0000130C2C5901A8834704000A
:10030000850C93FCFC0F63E5970793053004668525
:10031000EF00B02DB257E313F5FE6C100145EF006E
:1003200010248347EC0103230C0083284C0003288E
:100330008C000325CC0083250C0103264C01832669
:100340008C010357CC012307F10683470400850C79
:100350009AC8C6CAC2CCAACEAED0B2D2B6D42316E0
:10036000E10623209B0093FCFC0F2689E3FF97F90D
:100370002258931719003E993346090383460A0011
:1003800013071004B2876397E60003270B00930757
:100390009600998F85041947E397E4EC014542C81C
:1003A00032C63EC4EF00F0292A87138C81880145AC
:1003B0002320EC00EF00302E2A87138D01890145A0
:1003C0002320ED00EF00902A2A87938CC1881765BF
:1003D00000001305650023A0EC00EF10306B2945E9
:1003E000EF10F0511765000013050500EF10106ABB
:1003F0002945EF10D05083250B0017650000130529
:1004000025029384C18AEF10904B95451765000033
:100410001305C502EF10B04A83A50A001765000056
:1004200013058503938A0188EF1070498545176588
:1004300000001305A500EF10904883450A001765DA
:10044000000013052503EF1090479305100417656E
:1004500000001305E503EF1090468345040017657F
:1004600000001305A504EF109045930520041765BF
:1004700000001305E501EF10904483A5C1971765AF
:10048000000013056504EF1090439D4517650000BB
:100490001305C5FAEF10B042970700109387C7F510
:1004A00083A5C765176500001305C503EF1030412C
:1004B000176500001305C504EF10505D17650000B7
:1004C0001305C506EF10905C03A70900176500002F
:1004D000130585060C43EF10903E176500001305C9
:1004E0006507EF10B05A03A7090017650000130550
:1004F00065094C43EF10B03C8145176500001305BA
:10050000E5F3EF10D03B03A70900176500001305C2
:1005100025090C47EF10B03A89451765000013050F
:10052000E5F1EF10D03903A70900176500001305A6
:10053000E5084C47EF10B038C545176500001305B6
:10054000E5EFEF10D03783A509001765000013050C
:10055000A508C105EF10B036176500001305850921
:10056000EF10D052176500001305050CEF10105264
:1005700003A70B0017650000130505FC0C43EF10E3
:100580001034176500001305250BEF10305003A73A
:100590000B00176500001305E5FE4C43EF103032E9
:1005A000814517650000130565E9EF10503103A779
:1005B0000B00176500001305A5FE0C47EF10303047
:1005C000854517650000130565E7EF10502F03A759
:1005D0000B0017650000130565FE4C47EF10302E29
:1005E000C94517650000130565E5EF10502D83A57B
:1005F0000B0017650000130525FEC105EF10302C18
:1006000017650000130505FFEF105048A247176556
:10061000000013056506BE85EF10702A9545176525
:1006200000001305A5E1EF109029424832461765F6
:100630000000130525063309094193153900B385D8
:100640002541918DEF10B027B545176500001305C2
:10065000E5DEEF10D026A25517650000130545050D
:10066000EF10F0259D4517650000130525DDEF10FF
:100670001025B2551765000013054505EF1030240D
:10068000854517650000130565DBEF1050230C1836
:100690001765000013054505EF107022176500006F
:1006A00013054506EF10903E8C08176500001305F2
:1006B000A508EF10D020176500001305A509EF105D
:1006C000F03C2945EF10B0239387418794439387EB
:1006D000018798439387C1869C4303250D0003A49B
:1006E0000C0003290C00158D198C3309F94023A047
:1006F000240123A8818A23AAA18AEF0090419705AB
:10070000001083A525B3AA89EF00D01E970500101D
:1007100083A585B2EF008079AA87CE8517050010E2
:10072000032585B123AEF188EF0040789547334427
:10073000F40223A2A1884A8523AA8188EF00703D94
:100740009705001083A545AFEF004076AA851705F1
:100750000010032525AEEF0060759705001083A5F6
:10076000E5ADEF00A074AA87954517650000130555
:10077000A50123A0FA00EF1090148C40176500002B
:100780001305C504EF10B0131765000013058504A9
:10079000EF10D02F03A50A00EF0050432A86AE8643
:1007A0001765000013050506EF1070112945EF10BD
:1007B0001015BA502A549A540A59FA496A4ADA4A20
:1007C0004A4BBA4B2A4C9A4C0A4DF65D01454D6195
:1007D00082800D4971BE17650000130565B6EF10E4
:1007E000F02A2945EF10B011C5BAA5471727001008
:1007F0002322F73A7D5582807D15854763E6A70061
:100800008967DCC101458280A54717270010232393
:10081000F7387D558280054582800145828019C167
:100820007D55828041113735011022C406C62E84C1
:10083000B52A2300A400B24022440545410182802C
:1008400017070010130707991C439726001093867B
:10085000E6343E95636BD50097F60010938686FAD2
:1008600063E5A60008C33E858280FD573E858280F1
:10087000011122CC4EC606CE26CA4AC82E84B289A1
:10088000EF10903729C533093401A9446399090051
:100890003DA005043735011001226302240383457E
:1008A0000400E39895FEB54537350110F5208345E2
:1008B0000400373501100504C520E31224FF4E85DE
:1008C000F2406244D2444249B249056182807D557A
:1008D000C5BF00005D7106C012C216C41AC61EC88C
:1008E0002ACA2ECC32CE36D03AD23ED442DC46DEB4
:1008F000F2C0F6C2FAC4FEC6F322103416D6F322B2
:10090000203416D8F322003016DA732520348A8575
:10091000652AB25273901234C25273902234D2526A
:100920007390023082401242A2423243C243524587
:10093000E245724682561257A2576258F258064E46
:10094000964E264FB64F616173002030AA8711C5BD
:10095000584D0145D98DCCCF82807D558280AA87A4
:1009600015C91707001003272787B355B7021307C8
:10097000000858C50145FD1513D785001377F70FFB
:10098000D8C393F5F50F8CC31307600C98C70D47B8
:10099000D8C782807D55828001C95C4993F70702E0
:1009A000EDDF0CC1014582807D55828001C95C4923
:1009B000858BF5DF08411375F50F82801305F00F65
:1009C0008280B7C7000203A787FF83A7C7FF2A86D5
:1009D000BA85B7C6000203A786FF83A7C6FFBA87FA
:1009E000732800B0E389E5FEB7C8000203A588FFBD
:1009F00083A5C8FF3307F540F32600B0E368C7FEC0
:100A0000B386064133F5E602B3D6E6023E0533551A
:100A1000E502BE06369582804111054506C655376A
:100A2000B24013054006410169BF411122C42A8426
:100A3000175500001305857C06C6EF103005A2850A
:100A4000175500001305C57CEF106067F3251034BF
:100A5000175500001305C57CEF106066F325303490
:100A6000175500001305C57CEF10606501A041110A
:100A700022C42A84175500001305857C06C6EF1092
:100A8000F000A2851755000013058578EF1020634C
:100A9000F32510341755000013058578EF102062F8
:100AA000F32530342244B240175500001305457831
:100AB00041016F10C060B7B7C4049387074017F7B0
:100AC000FF0F232BF770828041119317450106C653
:100AD00022C4D183634E050229462A87AE86637EEF
:100AE000F60097070000938787F4B6853A858297CA
:100AF000B24022440145410182808A071386C18E9B
:100B0000B2979C43FDF3B2402244014541018280EB
:100B10002D476389E7008A071387418CBA979C4366
:100B2000F9F7F9B7F32740F13707200CB20711079F
:100B3000BA978043C147E3ED87FA131724009387E0
:100B40008191BA979C4391C38297F32740F137076D
:100B5000200CB2071107BA9780C359BF411117562D
:100B600000001306266F975500009385656F175593
:100B700000001305A56F06C6EF10605497550000DE
:100B8000938545711755000013050571EF1020532B
:100B9000B24097F5FF0F83A5256417550000130594
:100BA000E57041016F10A051411106C6B535AA8705
:100BB000B70503003725011017F7FF0F232EF76045
:100BC0007133F1659385052037350110493B79373D
:100BD000970600009386A6E59387C18E13878191BF
:100BE00094C39107E39EE7FE17070000130767E829
:100BF000938781919386C19598C39107E39ED7FE11
:100C00009387418C9386C18E98C39107E39EF6FE2D
:100C10003706000C8146B728000C05484545F327E8
:100C200040F19E07C6978C433317D8001347F7FF50
:100C30006D8F98C32320060085061106E391A6FE5A
:100C4000F32740F13707200CB240B207BA9723A030
:100C50000700410182808280828082809387418A5E
:100C6000904301C6184218C19043310683A581897B
:100C700029453DA241114AC01389418A83270900B1
:100C800022C40041984383AE470003AE870003A30C
:100C9000070183A8470103A887018C53D0539457B9
:100CA00026C206C6AA84C84FDC5718C0984048CC54
:100CB0005CD42322D40195472324C4012328640053
:100CC000232A1401232C04010CD050D014D4DCC4EA
:100CD0005CC418C0228559375C40B1CF9C40B240FB
:100CE000224483AF070003AF470083AE870003AE03
:100CF000C70003A3070183A8470103A88701CC4FBE
:100D00009053D4539857DC5723A0F40123A2E40155
:100D100023A4D40123A6C40123A8640023AA140198
:100D200023AC0401CCCC90D0D4D098D4DCD40249EC
:100D300092444101828088449947930584005CC4B1
:100D400039288327090048441306C4009C43B24055
:100D500092441CC022440249A945410191A009477F
:100D6000630DE5028D479CC18547630FF50063D78E
:100D7000A70091476318F50098C1828009E523A078
:100D8000050082808280828003A7818993074006C4
:100D9000E3D5E7FE23A00500828085479CC18280C1
:100DA0000905AA950CC28280130756001308800C0F
:100DB000330807030A06931727003E9514C138DD50
:100DC00054C1B307C800AE97944BD8CB98CF1387C4
:100DD000160098CB1841C295B2958567BE95954788
:100DE00023AAE5FA23ACF18882801375F50F93F5F9
:100DF000F50F6304B50001458280238EA186054569
:100E00008280411106C61388C1878347250003C726
:100E100035000346080081466382E70299C2230039
:100E2000C800EF10604A81476356A000A94723AC71
:100E3000F1888547B2403E854101828085463E86E5
:100E4000E1BF4111F32700B83EC2F32700B03EC412
:100E5000F32700B83EC61247B2476305F700F327F1
:100E600000B03EC4B2472245410182804111F327C0
:100E700020B83EC2F32720B03EC4F32720B83EC6B8
:100E80001247B2476305F700F32720B03EC4B247CC
:100E9000224541018280B7C7000203A787FF83A7CD
:100EA000C7FF3D8313951701598D8280011126CA12
:100EB000935475014AC84EC652C49319950006CE84
:100EC00022CC56C293F4F40F2E8A93D99900135969
:100ED000F501ADC49307F00F638EF4068E09B707D2
:100EE0000004B3E9F900938414F8814A93577A0116
:100EF00013149A0093F7F70F2580135AFA01ADC720
:100F00001307F00F638DE7060E0437070004598CB2
:100F1000938717F8814613962A00558E9D8C7D166F
:100F2000B9473345490163E5C70617670000130752
:100F3000A7970A063A961C42BA97828763830902EA
:100F40004E8505239307B5FF9304A0F8B399F900E4
:100F5000898C61BF9304F00F894AE38909F88D4AAF
:100F600071B78144854A59B70DC02285DD299307A1
:100F7000B5FF3314F4009307A0F8898F61BF93077E
:100F8000F00F894649D88D4679B78147854661B7C4
:100F90009315540063FC890CFD14814613D405019C
:100FA000B3D88902C167FD17ED8FC18233F789027B
:100FB0004686338817034207558F637C07012E97B7
:100FC0001386F8FF6367B700637507011386E8FFB0
:100FD0002E97330707413358870233778702B3864A
:100FE000070393170701428763FCD700AE971307E7
:100FF000F8FF63E7B70063F5D7001307E8FFAE9784
:1010000013140601958F598CB337F0005D8C13874C
:10101000F4076359E0089377740099C79377F40055
:1010200091466383D70011049317440063D80700E7
:10103000B70700F8FD177D8C138704089307E00FAE
:101040000D8063C6E7049317770126043707807F76
:10105000F98F25805D8C7E05F240418D6244D2443B
:101060004249B249224A924A056182809396F90127
:1010700093D9190025B74A854E84D6868D47638259
:10108000F60685476385F6068947E392F6F801443C
:101090001307F00F4DBF5285D5B737044000014507
:1010A0008D46E9BF8547998F6D476342F704938466
:1010B000E409B357F40033149400333480005D8C9A
:1010C0009377740099C79377F40011476383E7001F
:1010D0001104931754000D8063DC07000144054799
:1010E0009DB7370440001307F00F0145A9BF014425
:1010F000014791BF01114AC81359750126CA4EC64E
:1011000052C49314950006CE22CC56C21379F90F1F
:101110002E8AA5809359F501630709069307F00FFE
:10112000630FF9068E04B7070004DD8C130919F864
:10113000814A93577A0113149A0093F7F70F258089
:10114000135AFA01B5C71307F00F638EE7060E04B2
:1011500037070004598C938717F8014793962A00A4
:10116000D98ECA97FD16B94533C5490113861700B4
:1011700063E4D506975500009385C5768A06AE963A
:101180009C42AE97828795C02685E12C9307B5FFD8
:101190001309A0F8B394F4003309A94051BF13090F
:1011A000F00F894AD9D48D4A69B70149854A51B7A8
:1011B0000DC022857D249307B5FF3314F4009307F7
:1011C000A0F8898F59BF9307F00F094741D80D4701
:1011D00071B78147054759B741679308F7FF93D621
:1011E000040193550401B3F414013374140133085A
:1011F000940233848602B386B602B3859502935473
:101200000801A295AE9463F38400BA9633F71401F3
:10121000420733781801429713146700C1803334B2
:1012200080006983B694418F9A0433E4E4001397F5
:101230004400635707069357140005885D8C130715
:10124000F6076351E0069377740099C79377F4002B
:1012500091466383D70011049317440063D80700B5
:10126000B70700F8FD177D8C130706089307E00FFA
:101270000D8063DDE70601441307F00F85A84E8556
:10128000268456878947E308F7FE8D47630BF704EA
:101290008547E316F7FA0144014789A85285DDB76F
:1012A0003E8671BF8547998F6D47E346F7FE13066B
:1012B000E609B357F4003314C400333480005D8C66
:1012C0009377740099C79377F40011476383E7001D
:1012D0001104931754000D80E3D007FC0144054727
:1012E00031A0370440001307F00F01459317770131
:1012F00026043707807FF98F25805D8C7E05F240BC
:10130000418D6244D2444249B249224A924A05611F
:101310008280411106C622C426C255C59357F541A5
:1013200033C4A7001D8C9354F50122851D2A930711
:10133000E0092A873385A7409307600963C4A702A1
:10134000A14763D5E70061173314E40026045E0566
:101350002580498C1395F401B240418D224492447A
:10136000410182809307900963DDA7009547998F1B
:101370009306B701B357F4003314D400333480001C
:101380005D8C954763D6E7009307B7FF3314F400ED
:10139000B70700FCFD1793767400E18F91C63D8876
:1013A00091466303D40091079396570063DA0600D1
:1013B000B70600FCFD161304F009F58F3305E44071
:1013C00013D4370061B78144014449B7935775017D
:1013D000411193F7F70F22C426C2131495009354BA
:1013E000F5011385170006C61375E50F25800DC599
:1013F00013850738935734007604B2075205B1833A
:10140000C98F1395F401B24033E7A7002285224427
:101410009244BA854101828095EB65D02285912066
:10142000A94763CFA700AD47898F13075501B3576D
:10143000F4003314E400130790383305A74075BF58
:10144000930755FFB317F4000144F5B7814719C45A
:1014500093573400370708007604D98F1305F07FBF
:1014600069BFC1676376F5029307F00FB3B7A700B2
:101470008E07130700021D8F3355F50097570000A4
:101480009387074A3E95034505003305A7408280B0
:1014900037070001C147E36EE5FCE147D9BFAA85E4
:1014A0008146014601456F10C01241119767000047
:1014B0009387079122C417640000130464901D8C65
:1014C00026C206C60984BE8419E42244B24092446E
:1014D00041016FF08FF87D1493172400A6979C4369
:1014E0008297DDB74111976700009387678D22C40B
:1014F000176400001304C48C1D8C26C24AC006C6A3
:10150000098481443E8963988402EFF0EFF4976781
:1015100000009387E78A176400001304648A1D8C17
:10152000098481443E89639F8400B24022449244EE
:1015300002494101828093972400CA979C43850405
:101540008297D1B793972400CA979C4385048297CA
:10155000D9BFAA8517F5FF0F032545C865A0D5C1DA
:1015600083A7C5FF011122CC06CE1384C5FF63D328
:1015700007003E942AC6EF20A04E1387818B1C43A0
:1015800032453A8689EB2322040000C36244F240CC
:1015900005616F20004D637EF40014403307D400D2
:1015A0006396E7009843DC43369718C05CC000C2DE
:1015B000F1BF3E87DC4399C3E37DF4FE1443330659
:1015C000D700631F86001040B29614C33306D700BD
:1015D000E39EC7FA9043DC43B29614C35CC37DB765
:1015E0006375C400B1471CC155B71040B306C400B1
:1015F0006396D7009443DC43B29614C05CC040C3EA
:1016000071B78280011126CA93843500F1984AC8C7
:1016100006CE22CC4EC6A104B1472A8963F5F40454
:10162000B14463E4B4044A85EF2080439387818BFF
:101630009843BE863A8429E41384C18B1C4091E709
:1016400081454A85EF00504508C0A6854A85EF00D0
:10165000B044FD59631A3507B1472320F9004A8584
:10166000EF20204031A0E3DE04FAB1472320F90047
:101670000145F2406244D2444249B2490561828048
:101680001C40858F63CF07022D466376F6001CC091
:101690003E9404C029A05C40631387029CC24A8523
:1016A000EF20203C1305B4009307440061993307F1
:1016B000F540E300F5FC3A94898F1CC05DBF5CC324
:1016C000F9BF2287404085BF130435007198E302BB
:1016D00085FCB305A4404A85EF00103CE31B35FBB5
:1016E000A5BF797122D44AD052CC56CA5AC806D660
:1016F00026D24ECE2E8A328436893A8BC28A6352E3
:10170000060C370700803344C7001307D00223803C
:10171000E70093F4F8FD930760048D466388F400B6
:101720009307500489466393F4000509D68793080C
:10173000C100130881004A87D2852286EF10A004D9
:1017400093077004AA896396F400137B1B00630A55
:101750000B0493076004338B29016397F40203C7DA
:10176000090093070003631EF70001468146528576
:10177000A285EF30D02D11C585463389264123A09F
:101780002A0183A70A003E9B014681465285A28515
:10179000EF30F02B11E15AC613070003B24763E59F
:1017A0006703B2474257B2502254B38737411CC334
:1017B00092540259624AD24A424B4E85F2494561DF
:1017C000828023800700B1B79386170036C6238036
:1017D000E700E9B72300C500930725001307B0020F
:1017E00063D60500B305B0401307D002A300E5009F
:1017F00025476352B70641111307F1003A88A948FB
:101800001303300633E61503BA867D171306060365
:10181000A38FC6FE2E86B3C51503E345C3FE93888A
:10182000E6FF93850503A30FB7FE3E864687636DEB
:10183000070101476365180113071101158FBA9756
:101840003385A740410182808345070005070506CF
:10185000A30FB6FEE9BF930700032301F5009385AC
:10186000050393074500A301B5003385A740828097
:10187000197186DEA2DCA6DA2E84CAD8CED6D2D4DE
:10188000D6D23A8ADAD0DECEE2CC3289B689E6CA3E
:10189000EAC8EEC6AA84EF10506E032C05006285DC
:1018A000EF007034032B040002DC834A84011377B9
:1018B0000B1083270A00AA8B71CF138747002320C0
:1018C000EA009C43081098433AD0D8433AD298474C
:1018D0003AD4DC473ED6EF40206D28C46CC4832D3B
:1018E000C40497F7FF0F9387E78F03A8070083A827
:1018F0004700832C8404139A1D00135A1A00428651
:10190000C6866685D28542CC46CEEF40605451ED06
:101910006248F24866854286C686D285EF3030241A
:101920006355A008014681466685EE85EF30302379
:10193000635605009307D002A301F40493077004D3
:10194000175A0000130ACA0D63F65701175A000010
:10195000130A4A0D137BBBFF8D47232064011CC86B
:10196000014B4E87CA867018A2852685C92EFD5C5C
:10197000631D95157D55F6506654D6544659B65993
:10198000265A965A065BF64B664CD64C464DB64DDB
:10199000096182809D07E19B138787002320EA006D
:1019A0009843DC4338C47CC41DBF6686EE866685DA
:1019B000EE85EF40E04911CD93077004175A0000FF
:1019C000130A8A06E3F857F9175A0000130A0A06A1
:1019D00051B75C407D5713FDFA0D6393E7089947B3
:1019E0005CC0544013670B403C183EC0E68593072B
:1019F000310318C002C2D688130841036E862685BB
:101A0000CD3193077004D2552A8A631BFD00F55728
:101A100063C5F5005C4063D7B708F91A93FAFA0F6B
:101A20009307500663E55705FD1556861305040513
:101A30002EDA4D33625785462A8BB307A7001CC8A0
:101A400063C5E6001840058B19C385071CC883478A
:101A50003103E38807F09307D002A301F40411B720
:101A600013077004E31FEDF6ADFF854795BF93079D
:101A70006006639BFA025C40635BB0000CC881E7C0
:101A80001840058B09CF8507AE971CC809A889E7C0
:101A900018408546058B19C39386270014C82CCCA3
:101AA000014B75B7930A7006E25763C9F5001C40F5
:101AB0000CC8858BEDD793871500C1BF05476344DC
:101AC000B00009470D8FBA97C9B71C4013F70740FC
:101AD00015E314485286CA8526858299E30C95E958
:101AE0001C40898B63980724F2574844E355F5E876
:101AF0003E8551B513075006637D571928446C4441
:101B000001468146EF30A07439E98546175600003A
:101B1000130606F2CA8526858299E30D95E552578C
:101B2000E2576345F7001C40858BDDDBDE8662866D
:101B3000CA8526858299FD57E30EF5E2014A930A8C
:101B4000A4017D5BE257FD17E35CFAF885465686F3
:101B5000CA8526858299E30F65E1050AE5B7D25764
:101B60006346F006854617560000130666ECCA85E4
:101B700026858299E30095E1D2576257D98F81E794
:101B80001C40858BB1DFDE866286CA8526858299F8
:101B9000FD57E301F5DE814A130BA401FD5BD2572B
:101BA000B307F04063CBFA00E2565286CA85268519
:101BB0008299FD57E316F5F275BB85465A86CA85AC
:101BC00026858299E30875DB850AD1BF3C4CE25A31
:101BD00063D35701BE8A63495007014B130DA4011B
:101BE000FD5D832C8405D68763D30A008147B387C4
:101BF000FC406344FB065257E2576349F7061C401A
:101C0000858BADE7E25A5257B3879A41B38AEA40CF
:101C100063D35701BE8A63445007014A130BA401E2
:101C2000FD5B5257E257998F568763D30A000147ED
:101C3000998FE357FAEA85465A86CA85268582999E
:101C4000E30A75D3050AF1BFD6865286CA85268572
:101C50008299FD57E313F5F831BB85466A86CA853C
:101C600026858299E308B5D1050BA5BFDE8662867D
:101C7000CA8526858299FD57E316F5F8E5B9D6861B
:101C800033069A01CA8526858299FD57E317F5F830
:101C9000D5B1E25605476344D700858BB5C7854665
:101CA0005286CA8526858299FD5AE30555CDDE8682
:101CB0006286CA8526858299E30E55CB28446C44FA
:101CC00001468146EF30A0581DC9E25613061A009E
:101CD000CA85FD1626858299E30E55C9DA86130654
:101CE0000405E9B585465686CA8526858299E303AB
:101CF00075C9050AE257FD17E346FAFEC5B7014A62
:101D0000930AA401FD5BFDB785465286CA852685E8
:101D10008299E31595FDB9B985465686CA8526850B
:101D20008299E30965C5050A5C447257998FE345BA
:101D3000FAFE5DBB014A930A94017D5BF5B77971A8
:101D400052CC9C493A8A984522D426D24ECE56CAC5
:101D500006D64AD05AC85EC6AA892E84B284B68AEC
:101D600063D3E700BA879CC00347340419C38507CF
:101D70009CC01C4093F7070281C79C4089079CC008
:101D80000329040013796900631A0900130B9401F5
:101D9000FD5B5C449840998F634CF904834734049D
:101DA000B336F0001C4093F70702A5EB130634048A
:101DB000D6854E85029AFD576303F5041C401146F3
:101DC0009840998B544481446397C700B384E6409C
:101DD00063D3040081441C4418486354F700998F6E
:101DE000BE94014969047D5B63982405014509A8F7
:101DF00085465A86D6854E85029A631E75017D55A5
:101E0000B250225492540259F249624AD24A424B89
:101E1000B24B456182800509ADBF3307D40013067C
:101E20000003A301C7040347540493871600A29735
:101E30008906A381E7049DBF85462286D6854E8507
:101E4000029AE30E65FB050945B7797122D426D2C3
:101E50004AD04ECE06D652CC56CA5AC82E84B6891F
:101E60009386350483C5850193078007AA84328948
:101E700063ECB7009307200663EDB7006386051C8B
:101E800093078005638BF512930A24042301B4049D
:101E900015A89387D5F993F7F70F5546E366F6FE35
:101EA00017560000130686BB8A07B2979C43B29769
:101EB00082871C43930A2404938647009C4314C3DF
:101EC0002301F40485476DA21C40084313F607085C
:101ED000930545000DC21C410CC363D807001307CE
:101EE000D002B307F040A301E40417560000130624
:101EF00066B42947A9A013F607041C410CC371DE80
:101F0000C207C187D9BF10401C4313780608138548
:101F100047006305080008C39C4339A013760604F4
:101F200008C37DDA83D707001307F00617560000B1
:101F3000130646B06384E50E2947A30104044C4010
:101F40000CC463C5050008406D9908C099E3B68AC2
:101F500099CDB68AB3F5E702FD1AB29583C505009F
:101F60002380BA00BE85B3D7E702E3F5E5FEA147BB
:101F7000631EF7001C40858B91CB58401C4863C7FB
:101F8000E70093070003A38FFAFEFD1AB3865641BC
:101F900014C84E87CA867000A28526854D337D5AA7
:101FA000631C450D7D55B250225492540259F2499A
:101FB000624AD24A424B45618280A302B40417565A
:101FC0000000130626A70C40084313F805081C411F
:101FD0001105630D080208C313F7150001C793E547
:101FE00005020CC04147B1FB0C4093F5F5FD0CC058
:101FF000A9B71C4093E707021CC093078007A30200
:10200000F40417560000130626A475BF13F8050440
:1020100008C3E30308FCC207C1837DBF214731BF6A
:1020200010401C434C48137806081385470063068C
:10203000080008C39C438CC301A808C31376060498
:102040009C4375DA2390B70023280400B68A91B721
:102050001C43504081459386470014C383AA070060
:102060005685EF10900601C53305554148C05C40C8
:102070001CC8A301040431BF14485686CA852685AE
:102080008299E30145F31C40898B8DE7B2474844B0
:10209000E35BF5F03E8501BF85465686CA852685F9
:1020A0008299E30165F1050A5C443247998FE34563
:1020B000FAFEE9BF014A930A94017D5BF5B75D71B1
:1020C00022D406D62A842EDA32DC36DEBAC0BEC26C
:1020D000C2C4C6C617E5FF0F0325451019C51C4D20
:1020E00089E72AC6EF10E05232450C455418228683
:1020F00036CEEF200018B250225461618280AA854A
:1021000017E5FF0F0325850D19CD1C4D89EF011132
:1021100006CE2EC62AC4EF10C04F2245B245F2406B
:102120001045056119A01045F5BF011122CC06CE5E
:102130002A8409C91C4D99E732C62EC4EF10604DA0
:102140003246A245975700009387C799631CF60251
:1021500050401C46FD171CC663DA0700184E63C3C7
:10216000E70493F7F50F2947638EE7021C4213F546
:10217000F50F1387170018C22380B700F24062449E
:1021800005618280975700009387C7976314F60014
:102190001044C1B7975700009387C792E31BF6FA24
:1021A000504445BF22856244F240056181AC011173
:1021B00026CA4AC806CE22CC4EC652C4AA842E894C
:1021C00009C51C4D99E3EF10C0449C4C804481E745
:1021D0002685EF100044975700009387A790631C53
:1021E000F402C0408357C400A18BB1C71C48A1C7EB
:1021F000FD59294A1C4483450900FD17B1E91CC457
:1022000063DE07062286A9452685CD2AFD57630889
:10221000F502294535A0975700009387A78E6314D0
:10222000F4008044C1B7975700009387A789E31B48
:10223000F4FAC04445BFA2852685612455D97D5551
:10224000F2406244D2444249B249224A0561828046
:102250001CC4050963D70700184C63CBE7006389EA
:1022600045011C401387170018C02380B70059B7D9
:10227000228626856122E31F35F7D1B71C401387DC
:10228000170018C029472380E70061B7AA8517E522
:10229000FF0F0325A5F421BF411122C42A842E85F6
:1022A0009717001023A8078E06C6EFE06FD9FD57D9
:1022B0006318F5009717001083A7C78D91C31CC042
:1022C000B2402244410182803367B500FD530D8B3B
:1022D00079E7B7877F7F9387F7F710419441B3720F
:1022E000F6003363F600BE92B3E262006397720CAD
:1022F0006318D6065041D441B372F6003363F6003A
:10230000BE92B3E262006398720A631BD604104562
:102310009445B372F6003363F600BE92B3E26200F6
:102320006391720A631ED6025045D445B372F6001B
:102330003363F600BE92B3E26200639A72086311DF
:10234000D60210499449B372F6003363F600BE9288
:10235000B3E26200639372085105D105E30FD6F62C
:102360001317060193970601631CF7001357060124
:1023700093D706013305F7409375F50F91E98280F5
:102380004183C1833305F7409375F50F91E1828056
:102390001377F70F93F7F70F3305F7408280034663
:1023A000050083C60500050585056313D60065FA9B
:1023B0003305D640828011059105E312D6FE014512
:1023C00082802105A105E31CD6FC014582803105F0
:1023D000B105E316D6FC014582804105C105E31035
:1023E000D6FC01458280AA8703C7070085076DFFD9
:1023F0003385A7407D1582806FE0EFC1011122CCAB
:1024000026CA4AC806CE4EC6AA842E89328409C579
:102410001C4D99E3EF10E01F974700009387876CEE
:10242000631BF406C0401C4C1CC48357C400A18B22
:10243000D9C31C48C9C31C4808409379F90F1379C4
:10244000F90F1D8D5C486347F500A2852685EF10C6
:10245000800A35E51C440505FD171CC41C40138784
:10246000170018C0238037015C486389A700835791
:10247000C400858B89CBA9476317F900A2852685FF
:10248000EF1060070DEDF2406244D244B2494A8534
:10249000424905618280974700009387A7666314CD
:1024A000F400804449B7974700009387A761E31C75
:1024B000F4F6C0448DBFA285268521202DDD7D59EF
:1024C000D9B7411122C426C24AC006C697E4FF0FFD
:1024D00083A4C4D02A892E8491C49C4C81E726858C
:1024E000EF102013974700009387C75F6317F4022C
:1024F000C0408317C4001397070193F687004183F8
:10250000B5EA9376070195EA25472320E90093E78A
:1025100007042316F4007D5545A0974700009387D4
:10252000675E6314F4008044E9B79747000093871F
:102530006759E310F4FCC0446DBF118B15C74C58AC
:1025400091C9930744046385F5004A85EFF02F8114
:10255000232A04028357C4002322040093F7B7FD03
:102560002316F4001C481CC08357C40093E787005F
:102570002316F4001C4889EF8357C400130700207A
:1025800093F707286386E700A2854A85EF10402667
:102590008317C4001397070193F6170041839DC268
:1025A000544823240400B306D04014CC14480145F9
:1025B00081E61377070821FFB24022449244024982
:1025C0004101828093762700014691E2504810C471
:1025D000F1BFAA881385018C1C4185E31707001001
:1025E0001307875218C117E5FF7F1305A5A1BA8706
:1025F00009C51C412324F708BA87D8437D487D5577
:102600006346E804638D080203A887086300080492
:1026100013152700429510C10323081005463316F1
:10262000E6003363C300232068102320D5088946C1
:102630006397D80083264810558E2322C81093062E
:1026400017000A07D4C3BA978CC7014582800111CD
:1026500022CC1C49804906CE26CA4AC84EC652C45E
:1026600056C263C087127D142A89138A4501131547
:102670002400B30AAA009309490183A70A004E95D2
:1026800018418507B354F7026365F7064168D2889D
:102690004E83014E814E7D1803A608001103910858
:1026A0003377060141823307970233069602729709
:1026B00093560701B3770701B387FE40369683260A
:1026C000C3FF135E06013376060133F70601BA979E
:1026D000C18213D70741918EBA9693DE0641B3F7B4
:1026E0000701C206D58F232EF3FEE3F71AFB1C4128
:1026F000B5CB4A85EF10B00A6349050441668504ED
:10270000CE8501457D1603280A0098419105B376D0
:10271000C800158DB376C700AA96935707011358C2
:10272000080113D70641B3870741BA9713D507416C
:10273000F18EC207D58F110A23AEF5FEE3F54AFDEF
:1027400093172400CE9798431DC72685F240624414
:10275000D2444249B249224A924A056182801C41D0
:1027600089E77D147115E3ECA9FE2328890051B790
:10277000984309E77D14F117E3ECF9FE232889005B
:10278000E9B70145E1B735713EDC5C5122CD26CB7E
:102790004AC94EC752C55AC106CF56C3DEDEE2DC77
:1027A000E6DAEAD8EED636CA3ACE46D0AA842E8BDE
:1027B000328442892E8AB28989EF4145EFE07FD980
:1027C000C8D023220500232405002320050023264A
:1027D0000500DC508C4389CDD84385472685B397C7
:1027E000E7009CC5D8C1EF10C030DC5023A0070023
:1027F000635304048547931914002320F90093D9E7
:102800001900B707F07F33F7F9006314F706625732
:102810008967B2099387F77093D9C9001CC3B3E9DC
:102820006901E3870932825791EB9747000093874C
:1028300027293EC639A823200900E1B797470000A1
:10284000938707283EC6974700009387972702572C
:102850001CC3FA406A443245DA444A49BA492A4A12
:102860009A4A0A4BF65B665CD65C465DB65D0D61C6
:102870008280014681465A85CE855AD44ED6EF20B5
:10288000101D05E1625785471CC3974700009387D9
:10289000271A3EC68257D5DF9747000093875719FE
:1028A0007DB7B808F4084E86DA852685EF10F00566
:1028B00093D7490113975701E64A2A8413F9F77F02
:1028C00063060712B2572255130919C09395C70022
:1028D000B181B707F03FDD8D82C097E7FF0F938787
:1028E000E7909043D443EF20907697E7FF0F9387CC
:1028F00067909043D443EF20F03097E7FF0F938722
:10290000E78F9043D443EF103061AA8B4A852E8B1A
:10291000EF30E05D97E7FF0F9387C78E9043D44376
:10292000EF20502E2A86AE865E85DA85EF10D05EC7
:10293000AA8B2E8BEF306055AA8D014681465E85AD
:10294000DA85EF20D021635B05006E85EF30205AD9
:102950005E86DA86EF20B00F11C1FD1D0547D9470D
:102960003AD863E3B70313973D0097470000938776
:10297000E71EBA979043D4432255B255EF20301E3C
:1029800063530500FD1D02D833892A41930BF9FFDB
:10299000014B63D60B00054B330B2B41814B63C8B6
:1029A0000D08EE9B6ED2814C5247A54763EBE714AE
:1029B0009547854A63D6E7009307C7FF3ECA814A19
:1029C00052479147630BF70695476300F712894713
:1029D000630BF7108D4702CC630BF71085473ECC95
:1029E000FD573EC87D5DC94702CE95A07649930745
:1029F000000256999305294363D6B70213050004D4
:102A00000D8D930529413395A900335BBB003365D8
:102A10006501EF306054B70710FEBE9585477D19FC
:102A2000BEC065BD3385B7403315AB00DDB7330B92
:102A3000BB41B30CB04102D285BF85473ECCF247C3
:102A40006344F00C854705473EC8054D3ACE03A9BF
:102A500044021147232209009306470183254900B8
:102A600063F8D70A2685EF00F07FDC502320A90009
:102A70009C433EC6B94763E7A71D63850A1C6350A4
:102A8000B00D13F7FD009317370017470000130729
:102A9000E70C3E9713D94D401C43032C4700137796
:102AA0000901894A15C3174700001307A7081053E7
:102AB00054532255B2553EDA1379F900EF20C02461
:102AC000D2572A8AAE898D4A174700001307870616
:102AD000631509043E86E2865285CE85EF20C0222A
:102AE0002A8AAE8969A802CC99BF85473ECCF247B5
:102AF000EE973EC8138D1700EA87E34AA0F5854795
:102B0000B9B7854A02CAD9BDF2473EC83E8D81B7E2
:102B100085052322B900060781B79376190081CE77
:102B2000104354433E85E2853ADAEF20B00D525708
:102B3000850AAA872E8C13591940210751BF894A4B
:102B4000638F0D023309B0419377F9001397370073
:102B50009747000093878700BA979043D443225544
:102B6000B25513594940174C0000130CACFCEF2030
:102B700070092A8AAE898147631A0912B5F3C257D0
:102B80006385071417D7FF0F130747681043544393
:102B90005285CE8552DAEF20807C63580512630996
:102BA0000D12C247635EF008D25717D7FF0F130705
:102BB0006766104354433E85CE85EF20B004C2477C
:102BC000138CFDFF2A8AAE89850A5685BEC24EDA6D
:102BD00052DEEF30C031725852574E894286BA8663
:102BE000EF20500297D6FF0F938646639042D4425F
:102BF000B709C0FCEF1050329647AA8AAE99E1EFB0
:102C000097D7FF0F93870762725852579043D44368
:102C10004285BA85EF20B0435686CE862A8A2E8911
:102C2000EF2080696348A054B7070080B3C737011D
:102C30005686BE865285CA85EF206072634905526A
:102C4000225AB259F64763C4073039476341B73156
:102C500013973D0097470000938747F0BA9703AB5F
:102C6000070083AB4700F24763DF071E634DA01FD9
:102C7000631F0D4E97D7FF0F9387C75A9043D443D6
:102C80005A85DE85EF2000785286CE86EF20C0621E
:102C9000814A01496355054AB2473247850D9389F8
:102CA0001700930710032300F70071A91377190089
:102CB00009CB03260C0083264C00850AEF20807484
:102CC000854713591940210C45BD6E8CEA87F5BD27
:102CD0006E8C8147DDBDB2459386F7FF13963600B3
:102CE000AE973EDEE24797460000938626E7B2960F
:102CF0009042D442DDCB97D7FF0F93872753884369
:102D0000CC43CEC256DAEF202000525816474286F6
:102D1000BA86EF20D033B249AA8A2EDACA85528504
:102D2000EF30A016AAC2EF30801C2A86AE865285EC
:102D3000CA85EF20D0319647D2568509938707037D
:102D4000A38FF9FE56862A892E8AEF2040616341BF
:102D5000051097D7FF0F9387674B8843CC434A866C
:102D6000D286EF20D02ED2565686EF20405F634A9F
:102D70000518F257E386F9EC97D7FF0F9387874939
:102D80009043D443D2555685EF20C06797D7FF0FA5
:102D9000938747489043D4432EDAAA8AD2854A853E
:102DA000EF2040662A8A2E8995BF5685CE85EF2072
:102DB0006065F257B249AAC2AEC43EDA97DAFF0F95
:102DC000938A4A45CA855285EF30200CAAC6EF3057
:102DD00000122A86AE865285CA85EF2050273647D4
:102DE000F257850913070703A38FE9FE2A8A2E8964
:102DF0006392F90697DAFF0F938A4A4303A60A0003
:102E000083A64A001645A645EF1010112A86AE8605
:102E10005285CA85EF20404A6345A00E1646A64655
:102E200003A50A0083A54A00EF2070222A86AE86F9
:102E30005285CA85EF20A052E35405E093070003B2
:102E4000D2591387F9FF3ADA03C7F9FFE30AF7FE0D
:102E5000E28D79A003A60A0083A64A00EF20805ADB
:102E60002A8A2E8985B7B247D28C4E8C138A1700D6
:102E70003E9D97DAFF0F938AEA395A86DE86668589
:102E8000E285EF107068EF3040002A89EF302006AD
:102E90005A86DE86EF200057AE862A86E285668552
:102EA000EF20F01A93060903A30FDAFED28963110B
:102EB0004D092A86AE86EF1030065A86DE86AA8A2B
:102EC0002E8AEF20603F634DA0025A86DE8656852B
:102ED000D285EF20C03709E5137919006312090282
:102EE0002685A285EF00F040E25723800900138574
:102EF0001D0088C38257E38E079423A0370191BA3F
:102F00006E8CCE8713079003BE8983C6F7FFFD172B
:102F1000639AE600B246E399F6FE13070003050C38
:102F20002380E60003C7070005072380E7000DB7ED
:102F300003A60A0083A64A00050AEF20A04C01461A
:102F40008146AA8C2E8CEF20803005F951BF624754
:102F500063010710D24605476346D70C064793879F
:102F6000374309E7664793076003998FE68A5A8CCF
:102F7000854526853E9BBE9BEF00B0502A89635E47
:102F80008001635C7001E28763D38B01DE87330BC2
:102F9000FB40330CFC40B38BFB4063810C04E247E5
:102FA000CDCF63545003CA8556862685EF00306521
:102FB0002286AA852A892685EF00504E2AD4A2852A
:102FC0002685EF001033A2573E8433865C41638729
:102FD0005C01A2852685EF0090622A8485452685BE
:102FE000EF00304A9257AA8A635BF0063E86AA85B4
:102FF0002685EF00D06052478547AA8A814C63C876
:10300000E706814C63120A069397C900D28CA9EF98
:10301000B705F07FB3F9B90063880904050B850B88
:10302000854C99A0930AFDFF63CA5C01B38A5C4199
:10303000635E0D00330CAB4181471DBF9257B38CCB
:103040009A41E6973ED2D68C814ADDB75A8CEA8700
:1030500005B7E68A5A8C01491DB766869DBF52475F
:103060008547814CE3DFE7F89257054589CF83A771
:103070000A018D078A07D697C843EF00903593075A
:1030800000023385A7405E957D8951C193070002F8
:10309000898F1147635AF706F1473385A7402A9B6A
:1030A0002A9CAA9B63586001A2855A862685EF0058
:1030B00090602A8463587001D6855E862685EF006D
:1030C000905FAA8AC257B1C7D6852285EF00306DBE
:1030D00063510504A285814629462685EF00D02547
:1030E000E247FD1D2A8463830728CA858146294655
:1030F0002685EF007024C2472A896345F0085247AD
:10310000894763D1E70829A8E38EE7F83E85710572
:1031100079B76345A0075247894763D1E7066AC874
:10312000C24791EFD685814615462685EF00D0200F
:10313000AA8AAA852285EF009066E34FA0B4F247E1
:10314000B24993CDF7FF014BD6852685EF00701A63
:10315000E30809D863080B0063062B01DA8526858E
:10316000EF003019CA852685EF00B01895BB814A5B
:103170000149F1B7E28D814A014939BEE2476AC887
:10318000638D071E63588001CA8562862685EF001D
:1031900090522A894A8563860C0283254900268538
:1031A000EF00500C03260901AA899305C9000906FE
:1031B0000A063105EF0000730546CE852685EF002F
:1031C000904FB24742474A8B138C1700BA973ECCB8
:1031D00093771A002A893EC8D6852285EFF02FC73B
:1031E000DA85AA8C130A05032285EF00505BD68589
:1031F000AA8B4A862685EF00305E5445130DFCFFEE
:10320000AA85054799E62ACE2285EF005059F24556
:103210002A8726853ACEEF00D00DD2477247E28941
:10322000B3E6E700C247DD8E81EE13079003630823
:10323000EA0463547001138A1C0323004D0129B76B
:1032400063CA0B00D247B3EB7701C247B3EBFB0075
:1032500063980B04E353E0FEA28505462685EF0044
:103260009045D6852A84EF0090536346A00071F5FF
:1032700013771A0079D313079003E31EEAFA930732
:1032800090032300FD00CE8793069003BE8903C7F9
:10329000F9FFFD176305D70A05072380E7006DB521
:1032A000635BE00013079003E30BEAFC93071A004B
:1032B0002300FD0051BDE247A30F4CFF6388870543
:1032C000A285814629462685EF0010072A8481467B
:1032D0002946DA85268563182B01EF00F0052A8B35
:1032E0002A89050CD5BDEF003005CA852A8B814699
:1032F00029462685EF0050042A89E5B7C24785494B
:103300006353F000BE89B247014BBE99A2850546C2
:103310002685EF00503AD6852A84EF005048E344D2
:10332000A0F601E593771A00B9FFCE8713070003D3
:10333000BE8983C6F7FFFD17E38CE6FE31B5324741
:10334000E316F7F493071003850D2300F700EDBB98
:103350000257973700009387E7753EC697370000FE
:103360009387C775631507CE6FF0AFCEC24763462C
:10337000F00052478947E3C5E7DA8149D6852285BF
:10338000EFF0EFACB247130A050333873701C247AA
:10339000230047018509E3D3F9F6A2858146294632
:1033A0002685EF0060792A84D1BF83D7C50001113B
:1033B00022CC26CA06CE4AC84EC613F78700AA8476
:1033C0002E846DE7D8416347E000B8416344E000D4
:1033D0000145C9A058546DDF03A904009396370135
:1033E00023A0040063DF060668488357C400918B5E
:1033F00099C75C401D8D5C5899C33C401D8D5C5441
:103400000C502A86814626858297FD570357C400B3
:10341000631DF5009440F54763E5D708B7074020E2
:103420008507B3D7D700858BADCF1C482322040076
:103430001CC09317370163D80700FD576314F500CC
:103440009C4091E368C84C5823A02401D1D1930734
:1034500044046385F5002685EFE06F90232A04027B
:1034600085BF0C508546014626850297FD57E31E11
:10347000F5F69C40BDDB75476385E70059476395CA
:10348000E70023A02401A9B78357C40093E70704EA
:103490002316F400F2406244D2444249B249056125
:1034A0008280136707042316E400EDB783A90501A2
:1034B000E38009F203A905008D8B23A035013309B0
:1034C0003941014791E3D84918C4E35320F11C5412
:1034D0000C50CA864E8626858297634AA000835781
:1034E000C4007D5593E707042316F40065B7AA9935
:1034F0003309A940D9BF9C49B9CF011122CC06CECE
:103500002A8411C51C4D81E72EC62122B24597376A
:1035100000009387275D639BF5004C408397C500AF
:1035200095C722856244F240056141B59737000096
:103530009387475D6394F5000C44CDB7973700003F
:1035400093874758E39CF5FC4C44C9BFF240624462
:1035500001450561828001458280411122C406C671
:103560002A842316B5002317C50023200500232233
:103570000500232405002322050623280500232A0D
:103580000500232C0500214681451305C5052D2185
:1035900097170000938707F85CD097170000938770
:1035A00067FA1CD4971700009387A7FE5CD497177F
:1035B000000093876701B24000D01CD8224441012B
:1035C000828097050000938545F399A2411126C298
:1035D000130680069384F5FFB384C4024AC02E8983
:1035E00022C406C693854407EFE0CF812A8419C917
:1035F0002320050023222501310508C413868406F3
:1036000081455D2EB2402285224492440249410107
:1036100082801C4DADE3411122C406C6970700000D
:10362000938767FA1CD52324050423260504232841
:10363000050483A7C1802A846314F50085471CCD47
:1036400022851D2848C02285052808C422852D20F2
:1036500048C4484001469145093708440546A545F8
:10366000ED3D48440946C945CD3D8547B2401CCC97
:103670002244410182808280411126C283A4C180FC
:103680009C4C4AC006C622C42A8999E32685513734
:10369000938484048044DC40FD1763D607009C407B
:1036A000B1CF8440C5BF0317C40031E7C177850798
:1036B00023220406232004002322040023240400E0
:1036C0005CC423280400232A0400232C0400214680
:1036D00081451305C405CD24232A0402232C0402AA
:1036E0002324040423260404B24022852244924465
:1036F0000249410182801304840679BF91454A85BD
:10370000F13588C02A8451FDB1472320F900E9BF73
:10371000797122D44AD04ECE52CC5AC85EC606D653
:1037200026D256CA2A892E8A130485048149054B5C
:10373000FD5B0444832A4400FD1A63D00A02004062
:103740006DF8B250225492540259624AD24A424B06
:10375000B24B4E85F2494561828083D7C400637BBA
:10376000FB008397E40063877701A6854A85029A68
:10377000B3E9A90093848406C1B797D7FF0F83A745
:10378000E7A5885309E517D5FF0F1305A58D130588
:10379000050F82805971CAD02E898395E500A2D485
:1037A000A6D286D63284B68463DC05008357C9006E
:1037B00023A0040093F7070895E3930700400DA0AA
:1037C0003000EF00D068E34305FE3247BD67F98F54
:1037D0007977BA9793B717009CC0C5B793070004D1
:1037E000B6501CC026549654065901456561828026
:1037F00083D7C500011122CC06CE26CA4AC8898BC0
:103800002E8489CF930774041CC01CC885475CC8EC
:10381000F2406244D2444249056182807400300023
:103820002A898D3FA245AA844A85EFD0BFDD01EDEC
:103830008317C40013F7072061FFF19B93E727006C
:103840002316F400C1B7970700009387C7D7232436
:10385000F9028357C40008C008C893E70708231675
:10386000F400A2475CC8B24791CF8315E4004A85B3
:10387000EF00106101C98357C400F19B93E7170063
:103880002316F4000355C400C98C2316940049B7CD
:1038900085E141116C00014511CA795581CA834700
:1038A00006009CC1034506003335A000410182801B
:1038B000014519CA795589CA834706009CC1034549
:1038C00006003335A0008280828093F5F50F2A969A
:1038D0006314C5000145828083470500E38DB7FE70
:1038E0000505FDB7B3C7A5008D8BB306C50081E7FD
:1038F0008D4763EEC700AA876378D50A03C7050022
:1039000085078505A38FE7FEE3EAD7FE828013775C
:103910003500AA8711CB03C7050085078505A38F4E
:10392000E7FE13F73700FDB713F7C6FF130607FED0
:1039300063FBC70483A3050083A2450083AF850012
:1039400003AFC50083AE050103AE450103A38501A6
:1039500083A8C50123A0770023A2570003A805026E
:1039600023A4F70123A6E70123A8D70123AAC701AF
:1039700023AC670023AE1701938545029387470266
:1039800023AE07FF75B72E883E866360E602138874
:10399000D7FF0146636607010D071D8F1376C7FF2A
:1039A000B297B295E3ECD7F4828083280800110621
:1039B0001108232E16FFD1BF3D432A876373C3022C
:1039C0009377F700BDEFADE5937606FF3D8ABA9693
:1039D0000CC34CC30CC74CC74107E36BD7FE11E2C5
:1039E0008280B306C3408A069702000096966780DD
:1039F000A6002307B700A306B7002306B700A30558
:103A0000B7002305B700A304B7002304B700A3033E
:103A1000B7002303B700A302B7002302B700A30136
:103A2000B7002301B700A300B7002300B7008280CE
:103A300093F5F50F93968500D58D93960501D58D59
:103A400061B7939627009702000096968682E780DA
:103A500086FA9680C1171D8F3E96E374C3F8A5B70A
:103A6000828082805C51411122C426C206C64AC0AF
:103A70002A84AE8489EF4145EFD0BFAD48D02322E0
:103A80000500232405002320050023260500032923
:103A900044028327C90095C758509397240058477C
:103AA000BA97884321E10549331999001306590053
:103AB0000A0685452285252719CD44C123242501E1
:103AC00025A01306100291452285112F5C50232654
:103AD000A900DC47F1F30145B24022449244024977
:103AE00041018280184198C3232805002326050040
:103AF000E5B75C51411122C426C206C6AA842E84B1
:103B000089EF4145EFD0FFA4C8D02322050023242C
:103B10000500232005002326050011C8D4505C4071
:103B200013972700DC46BA97984318C080C3B24069
:103B30002244924441018280011122CC26CA4AC803
:103B400084492E84368993864501C16552C406CEC8
:103B50002A8A4EC60145FD159C429106050533F79C
:103B6000B7003307C702C183B387C7024A97135808
:103B700007016D8FC29713D90701C207BA9723AE09
:103B8000F6FEE34B95FC630D09021C4463C2F4028C
:103B90004C4052858505F93510489305C400AA8923
:103BA00009060A0631053D3BA285528599374E84A8
:103BB000938744008A07A29723A22701850404C89B
:103BC000F24022856244D2444249B249224A056108
:103BD00082804177698FAA87014519E3C207414571
:103BE000370700FF7D8F19E32105A207370700F093
:103BF0007D8F19E311059207370700C07D8F19E308
:103C000009058A0763C90700139717000505634470
:103C100007001305000282801C412A8793F6770073
:103C200085C293F617000145A1EE93F6270089C6D9
:103C300085831CC30545828089831CC30945828016
:103C400093960701C182014599E2C183414593F6EC
:103C5000F70F99E22105A18393F6F70099E2110588
:103C6000918393F6370099E20905898393F617004B
:103C700081E68583050599C31CC382801305000274
:103C80008280411122C42E84854506C6E13BB240A4
:103C900040C92244054718C94101828098491C4AFD
:103CA000011122CC4AC806CE26CA4EC652C42E8462
:103CB00032896354F70032842E89032A0401832950
:103CC00009011C444C40B3043A0163D397008505B5
:103CD000513B93064501139824003698B68763E656
:103CE00007051303440193152A001306490193980D
:103CF00029009A9593075401B298114E63E8F50094
:103D0000338485402D147198130E4400C16EFD1E3E
:103D100063611603634F900CF240624404C9424948
:103D2000D244B249224A0561828023A0070091074C
:103D30007DB7832F0600B3FFDF01638B0F04B683CB
:103D40009A82014903A7020003A403009103337F71
:103D5000D701330FFF03B377D401418091023E9F17
:103D600093570701B387F7034A9F13570F01337F18
:103D7000DF01A297BA9713D90701C207B3E7E7019A
:103D800023AEF3FEE3E0B2FCB387C60123A0270114
:103D900083532600638C03049C42B68F1A8F8142A2
:103DA00003270F0003D42F00B3F7D7013377D701D0
:103DB00033077702910F110F22971697931207017D
:103DC000B3E7F20023AEFFFE8357EFFF83A20F009D
:103DD0004183B3877702B3F2D2019697BA9793D211
:103DE0000701E36FBFFA3387C6011CC311069106B2
:103DF00005B78327C8FF711885F3FD1421BF011192
:103E000026CA4AC84EC606CE22CC52C49377360084
:103E10002A89B284AE8989CFFD17173700001307AE
:103E200067E08A07BA9790438146EFF0FFD0AA89EE
:103E30008984ADC88327490291EF4145EFD06FF1E6
:103E40002322A902232205002324050023200500A4
:103E500023260500032A490203248A0011E893055A
:103E600010274A85393D2324AA002A8423200500EF
:103E700093F7140099CBCE8522864A8505352A8A88
:103E8000CE854A85EFF0FFC6D289858481CC084073
:103E900001E92286A2854A85113508C02320050044
:103EA0002A84F9B7F2406244D2444249224A4E85FC
:103EB000B24905618280011122CC2E845AC0032BA5
:103EC000040126CACC41935456401C44269B4AC840
:103ED00052C456C206CE4EC6AA8A3289130A1B00A5
:103EE00063C0470B5685EFF0FFB793074501AA89DA
:103EF000BE86014791066348970863D30400814456
:103F00008A04B38697001C48130744011376F9010D
:103F10008A07BA972DCE130800023308C840B68826
:103F200081450843910811073315C500C98D23AE9B
:103F3000B8FE8325C7FFB3D50501E364F7FE130779
:103F40005401114663E7E700818FAD17F19B13869B
:103F50004700B2968CC299C1130A2B007D1A23A880
:103F600049015685A285EFF0DFB8F2406244D244A1
:103F70004249224A924A024B4E85B24905618280EB
:103F800085058607B1BF23AE06FE0507A5B710431A
:103F90001107910623AEC6FEE36BF7FEC1B71449C5
:103FA0009849AA873385E6406397E6020A07D10756
:103FB000D105B386E700BA9503A6C6FF03A7C5FFE0
:103FC000F116F1156307E6007D556366E6000545C9
:103FD0008280E3E3D7FE8280011122CC2E844AC87E
:103FE000B2852A89228526CA06CE4EC6B284453FAE
:103FF00005E181454A85EFF0FFA685471CC9232AC4
:104000000500F2406244D2444249B24905618280CF
:10401000854963460500A6878149A2843E84CC4039
:104020004A85EFF03FA483A8040118481383440194
:1040300013982800930744010A07416F232635018E
:104040001A98BA9713064501D14E014E7D1F33874A
:10405000D40114433307D401832F0700B3F5E601DD
:10406000F29533F7EF01998D93DF0F0113D7060116
:104070003307F74193D605413697135E0741B3F5F1
:10408000E5014207B306D5014D8F910E98C23387E3
:104090008E00E36EF7FA93065401114763E7D700E9
:1040A000818FAD17F19B13874700B306E30032976A
:1040B0004163BA8EB6857D1363E405031386D6FF8C
:1040C00081476367C8000D083308D8409377C8FF5D
:1040D000BA9703A7C7FFF1171DC72328150115B706
:1040E0009C41910E910533F667007296135E06416E
:1040F000C183F29713DE074133766600C207D18F82
:1041000023AEFEFE55BFFD18E9B7797156CAAE8AD7
:10411000854522D426D232844AD04ECE52CCB6899E
:104120003A8906D6EFF01F94370710009307F7FF80
:10413000E18F518093165401AA84137AF47FB5E27B
:104140003EC663840A06280056C4EFF0FFACA246C0
:1041500039C9324793070002898FB317F700D58F0B
:104160003357A700DCC83AC6324480CC33348000D1
:10417000050480C863060A04130ADABC2A9A930766
:10418000500323A049013385A7402320A900B25042
:1041900022540259F249624AD24A26859254456114
:1041A0008280D98F71BFD4C8C1B76800EFF0DFA695
:1041B000B247130505020544DCC885479CC85DBFAE
:1041C0009307E5BC23A0F90093172400A697884B1A
:1041D0001604EFF01FA0098C232089004DBF338601
:1041E000C502011122CC06CEB28532C6EFD08FC1F6
:1041F0002A8409C532468145EFF00FFCF240228542
:104200006244056182801C46FD171CC663DA070004
:10421000184E63C5E700A9476394F5006FE00F9E51
:104220001C422E851387170018C22380B700828096
:10423000011122CC26CA4AC84EC652C406CE2A89CB
:10424000AE893284B304D6007D5A631494000145CC
:1042500009A8834504004E864A8575370504E31690
:1042600045FFF2406244D2444249B249224A0561C4
:104270008280357122CD26CB4AC94EC706CF52C5A2
:1042800056C35AC1DEDEE2DCE6DAAA89AE843289A0
:10429000368409C51C4D99E3EFF0AFB7973700009E
:1042A00093874784639CF40C83A4490083D7C4009C
:1042B000A18BFDC79C48EDC793070002A304F10240
:1042C0009307000302D22305F10222C6930B50028A
:1042D000973A0000938ACA95054C294B4A84834734
:1042E000040099C36391770FB30C2441630D24013B
:1042F000E6864A86A6854E85253FFD576307F51E4F
:104300009257E6973ED2834704006380071EFD570D
:104310001309140002C802CE3ECA02CCA30901044C
:1043200082D48345090015465685EFF00FDAC2475F
:104330001304190059E913F7070109C7130700020D
:10434000A309E10413F7870009C71307B002A30903
:10435000E104834609001307A0026380E608F247E0
:104360004A84814625460347040093051400130739
:1043700007FD6379E60AB5CA3ECE85A897270000F7
:10438000938747786395F40083A4890005B797273E
:10439000000093872773E39BF4F083A4C90039B727
:1043A000A6854E85EFE0EF9101D97D55FA406A442C
:1043B000DA444A49BA492A4A9A4A0A4BF65B665C89
:1043C000D65C0D618280050419BF33055541331554
:1043D000AC00C98F3EC82289A9B73247930647006F
:1043E000184336C6634907023ACE034704009307D1
:1043F000E002631FF704034714009307A002631B46
:10440000F702B2470904138747009C433AC663C1C9
:1044100007023ECA35A83307E04093E727003ACEAB
:104420003EC8E1B7B38767032E848546BA9725BF98
:10443000FD57C5B7050402CA814681472546034793
:10444000040093051400130707FD6378E606F1F2F4
:10445000834504000D46172500001305E57DEFF0A8
:10446000CFC611CD972700009387077D1D8D930739
:104470000004B397A700424505045D8D2AC8834513
:1044800004001946172500001305457B1309140085
:104490002304B102EFF06FC32DC197D7FFFF9387BD
:1044A000673D95E74247B2471377071009CF910759
:1044B0003EC69257D2973ED215B5B38767032E8476
:1044C0008546BA97ADBF9D07E19BA107D5B7780098
:1044D00097060000938606D626860C084E85EFD0F8
:1044E0002FB9FD572A8AE316F5FC83D7C40093F74A
:1044F0000704E39C07EA125555BD780097060000B3
:10450000938646D326860C084E85EFD01F94D1BFE4
:10451000411122C42E848395E50006C6E122634939
:1045200005007C48AA977CC8B240224441018280A1
:104530008357C4007D777D17F98F2316F400EDB7FC
:1045400083D7C500011122CC26CA4AC84EC606CE62
:1045500093F70710AA842E843289B68991C7839570
:10456000E50089460146A9228357C4007D777D175F
:10457000F98F8315E4002316F4006244F240CE86DE
:104580004A86B24942492685D2440561B9A84111FB
:1045900022C42E848395E50006C6192AFD570357C9
:1045A000C400631BF500FD77FD17F98F2316F40097
:1045B000B2402244410182808567D98F2316F400DE
:1045C00068C8FDB78395E50099A891CD9307F00FD2
:1045D00063F7C7009307A0081CC17D558280238024
:1045E000C5000545828001458280411122C42A848C
:1045F0002E85B285368697E7FF0F23AD075806C68E
:10460000EFC00FA7FD576318F50097E7FF0F83A7CB
:10461000675891C31CC0B2402244410182804111BD
:1046200022C42A842E8597E7FF0F23A5075606C6C6
:10463000EFC0AF9BFD576318F50097E7FF0F83A707
:10464000675591C31CC0B240224441018280411190
:1046500022C42A842E85B28597E7FF0F23AC075228
:1046600006C6EFC06F99FD576318F50097E7FF0F77
:1046700083A7475291C31CC0B240224441018280AB
:10468000411122C42A842E8597E7FF0F23A40750E7
:1046900006C6EFC04F98FD576318F50097E7FF0F68
:1046A00083A7474F91C31CC0B2402244410182807E
:1046B000411122C42A842E85B285368697E7FF0FE2
:1046C00023AA074C06C6EFC04F95FD576318F500A7
:1046D00097E7FF0F83A7074C91C31CC0B240224449
:1046E00041018280411122C42A842E85B2853686FA
:1046F00097E7FF0F23A0074A06C6EFC04F92FD576A
:104700006318F50097E7FF0F83A7C74891C31CC044
:10471000B240224441018280370810007D18011107
:10472000B377B80013D745013378D80093D8460142
:1047300022CC8E071374F77F1357D50126CAD98F61
:1047400093D4F5011357D60193F8F87F93D5F6016A
:104750000E0806CE4AC84EC60E05336707010E0680
:10476000B30614416395B4226351D00E63980802D6
:10477000B365C700638B05209385F6FF89E92A9608
:104780003335A600BA97AA9732850544B1A8130815
:10479000F07F639D06011304F07F71AA9305F07FFB
:1047A000630BB418B70580004D8FB6859306800360
:1047B00063C9B608FD4663C0B60613080002330895
:1047C000B840B3160701B358B60033160601B3E676
:1047D00016013336C000558E3357B7002A963E97E0
:1047E000B337A600BA97328513978700635507142D
:1047F00005041307F07F6305E448B70680FFFD1644
:10480000FD8E9355150005899397F6014D8D5D8DAD
:1048100093D716000DA2938605FE93080002B356A7
:10482000D70001486388150113080004B305B84098
:104830003318B7003366C8003336C000558E0147C1
:1048400071BF598E3336C000DDBFD5CAB3858840ED
:104850000DE4B3E6A700638C06409386F5FF99E666
:104860003295BA973336C500B29705B71308F07F73
:10487000639D0501BA87328539BF9306F07FE38BCC
:10488000D8FEB7068000D58FAE869305800363C43B
:10489000D506FD4563CBD502130800023308D84086
:1048A0003353D500B395070133150501B3E5650012
:1048B0003335A0004D8DB3D6D7003295B387E600CF
:1048C0003336C500B297468405B7938506FE1303B9
:1048D0000002B3D5B70001486388660013080004DE
:1048E000B306D8403398D7003365A8003335A0000D
:1048F0004D8D8146D9B75D8D3335A000DDBF930660
:10490000140093F5E67FBDE1B3E6A70029E46384D4
:104910000636B366C70085C22A96BA973335A60015
:10492000AA9713978700328563570700370780FFE0
:104930007D17F98F054413777500630507341377E6
:10494000F50091466300D7349306450033B5A600C1
:10495000AA97368505AE99DE598EE30E06E28144AC
:10496000B707400001451304F07F29AE9305F07F9F
:104970006386B6302A963E97B337A6003E97131546
:10498000F7010582518D9357170036846DB7635632
:10499000D00C63910808B365C700E5D99385F6FF8D
:1049A00091E93306C5403335C500998F898F32852B
:1049B0000544B1A01308F07FE38F06DD9306800362
:1049C00063C9B608FD4663C0B60613080002330883
:1049D000B840B3160701B358B60033160601B3E664
:1049E00016013336C000558E3357B7003306C54025
:1049F0003387E740B337C500B307F74032851397D5
:104A00008700E35A07F2370980007D1933F927013F
:104A1000AA8975A29305F07FE30FB4F0B705800073
:104A20004D8FB68561BF938605FE93080002B3568D
:104A3000D70001486388150113080004B305B84086
:104A40003318B7003366C8003336C000558E0147AF
:104A500071BF598E3336C000DDBFF9C2338888403C
:104A600015E8B3E6A700638F06269306F8FF91EAE0
:104A70003305A640B307F7403336A600918FAE84C6
:104A800005BF1303F07F631F6800BA8732851304E4
:104A9000F07F7DA09306F07FE389D8FEB706800003
:104AA000D58FC286130880036348D8067D48634EBD
:104AB000D802130300023303D340335ED50033988A
:104AC0006700331565003368C8013335A0003365CE
:104AD000A800B3D6D7003305A640B307D740333676
:104AE000A600918F4684AE8419BF138806FE130E6C
:104AF000000233D8070101436388C6011303000491
:104B0000B306D3403393D7003365A3003335A000F9
:104B10003365A8008146C1B75D8D3335A000DDBF88
:104B20009306140093F6E67FB5E633E8A700B36674
:104B3000C70031E463180800638A061ABA87328511
:104B4000AE84D5BBE38906DE3308C540B338050122
:104B5000B386E740B38616419398860063DA08006F
:104B60003305A640B307F7403336A600918FC9BF7F
:104B70003365D80063000518B68742856DBB63189E
:104B80000800638B0616BA873285AE8429B1E384A8
:104B900006C0F1B3B309C540B33635013389E740E8
:104BA0003309D9409316890063D80606B309A64095
:104BB000B307F740333636013389C740AE84630309
:104BC00009064A85EFC0FF89130785FFFD4763C1CA
:104BD000E70693060002998EB317E900B3D6D90011
:104BE000DD8E3395E900634E8706018F930717002A
:104BF0007D466345F604130700021D8FB355F5008B
:104C00003396E6003315E5004D8E3335A000518D07
:104C1000B3D7F600014405B333E529014DF18147CF
:104C20000144F9A04E85EFC0DF831305050269BF7B
:104C3000130585FDB396A900014575B705179305C2
:104C4000000233D7E60001466387B700130600046D
:104C50001D8E3396C600518D3335A000598D814786
:104C600055BFB70780FFFD17198CF58FE9B1BA87DB
:104C700032852E84C9B1BA87328575B91304F07FA5
:104C80008147014513978700635B070005041307FD
:104C9000F07F6308E406370780FF7D17F98F1397CD
:104CA000D7010D81598D1307F07F8D836319E400BF
:104CB0005D8D814709C5B707080001458144131779
:104CC0004401B706F07FB207F2406244758FB183AA
:104CD000FE04D98F33E797004249D244B249BA85DE
:104CE00005618280BA873285428499BD814701453A
:104CF000814449BF8147EDBF01458144B70740006A
:104D00009DB18147014561BF797193D7450126D295
:104D10004AD052CC5EC662C49394C50006D622D453
:104D20004ECE56CA5AC8139757012A89B28B368C71
:104D3000B18013DAF50151C793FAF77F9307F07F3B
:104D4000638BFA0C9359D5018E04B3E49900B7092B
:104D50008000B3E9340113143500938A1AC0014B63
:104D600093574C019314CC0013975701B18093F5DE
:104D7000F77F135CFC0179C39307F07F638BF51019
:104D80001395340093D7DB015D8DB7048000C98C87
:104D9000939F3B00138515C0014693172B00D18FBD
:104DA000FD173947B3468A01B385AA406365F710FA
:104DB00017270000130747F98A07BA979C43BA9749
:104DC0008287B3E9A400638209069DC82685EFC0E7
:104DD0004FE9930755FF71476349F702F5491304FB
:104DE00085FFB389F940B3948400B3593901B3E91D
:104DF0009900331489009305D0C0B38AA54085B7C4
:104E0000EFC02FE613050502E9B7930485FDB3193A
:104E100099000144CDB7B3E9A400638C09002A844A
:104E2000A689930AF07F0D4B25BF0144814A054BAB
:104E300005BF0144930AF07F094B1DB7B3EF74011E
:104E400063820F069DC82685EFC0AFE1AA859387D0
:104E500055FF71476349F702F546938F85FF9D8E95
:104E60003395F401B3D6DB00B3E4A600B39FFB0196
:104E70001307D0C03305B74005B75E85EFC06FDEBE
:104E800093050502E9B7138585FDB394AB00814F07
:104E9000C5B7B3EF7401638B0F00DE8F1305F07F8E
:104EA0000D46E5BD814401450546C5BD8144130558
:104EB000F07F0946DDB563E634016396992A6364A1
:104EC000F42B1396F901135714009317F40193D997
:104ED00019003364E6001395840093D88F01B3E87A
:104EE000A800418133D8A902939E080193DE0E01E8
:104EF0001357040113938F00B3F4A902C28F3386B2
:104F00000E039399040133673701637CC70046970A
:104F1000930FF8FF636717016375C700930FE8FFEE
:104F20004697118F335EA702420441803377A70270
:104F300072863388CE034207418F637C0701469710
:104F40001306FEFF63671701637507011306EEFF83
:104F5000469733040741C20F4168B3EFCF00130EE9
:104F6000F8FF13D60F0133F7CF01135F0301337E30
:104F7000C301B303EE02B304C6033307EF02B30267
:104F8000E6033306970013D7030132976373970044
:104F9000C292135607011696C162FD12337857006C
:104FA0004208B3F353001E986367C400FE84631E77
:104FB000C40263FC07039A9733B7670046973A9495
:104FC0009384FFFF63E688006391880263EF6700C4
:104FD0006366C400631B860063F907019A9733B7C1
:104FE000670046979384EFFF3A9433880741118C0A
:104FF000B3B707011D8CFD5F6387880EB35FA40202
:10500000135708013374A4027E86B387FE0342045B
:10501000598C637CF40046941386FFFF6367140188
:105020006375F4001386EFFF46941D8C3357A4027A
:105030004208135808013374A402BA87B38EEE02F3
:10504000420433648800637CD40146949307F7FFDD
:10505000636714016375D4019307E7FF4694420622
:105060005D8E93170601C183135706013308EF02C3
:105070003304D441330FFF02B38EC703330EC7038B
:1050800093D70E01729FFA9763F4C70141673A986C
:1050900013D70701429741687D1833F50701420590
:1050A000B3FE0E0176956366E4006310E41AB28FD6
:1050B0001DC94694930FF6FF636114036366E40011
:1050C0006314E418637DA3009317130033B36700E0
:1050D0009A98930FE6FF46943E836314E4006304BA
:1050E000650093EF1F009387F53F635BF00A13F7AA
:1050F0007F0001CF13F7FF0011466308C700138636
:105100004F00B33FF601FE94B28F139774006358BB
:105110000700B70700FFFD17FD8C938705401307B5
:10512000E07F6342F70693DF3F001397D4013367B4
:10513000F70113D53400D2073706F07F3205B2509D
:105140002254F18F31815D8DFE06B367D5009254F4
:105150000259F249624AD24A424BB24B224C3A853A
:10516000BE8545618280FD158147B5B3D286CE8468
:10517000A28F5A868D47630BF60A8547630FF60A9E
:105180008947E312F6F6014501479307F07F65B7BB
:10519000E286CDB7B7040800814F81460D46D9BFDE
:1051A00005451D8D130780036349A7087D476349A3
:1051B000A7049385E541B397B40033D7AF00B39507
:1051C000BF00D98FB335B000CD8F33D5A40013F70E
:1051D000770001CF13F7F70011466308C700138764
:1051E0004700B337F7003E95BA8713178500634928
:1051F00007041317D5018D835D8F0D81814725BF6E
:105200000557B307F74013060002B3D7F400014770
:105210006306C5009385E5433397B400B36FF70188
:10522000B33FF001B3E7F701014555B73705080073
:1052300001479307F07F8146FDBD014501477DBFD2
:10524000014501478547C5BD7E86B28F59BD13D73D
:105250004501B7071000FD1713D846012A83AA8E0F
:105260001377F77F1305F07FB3F8B700328FF58F10
:10527000FD811378F87FFD82631AA70033EE680082
:10528000054563140E006305E80082806315A800DD
:105290005D8E05457DFA0545E31907FFE397F8FEA6
:1052A000E395EEFF6388D5006DF333E56800333591
:1052B000A000828001458280370710007D1713D837
:1052C0004501B378B700AA872A831378F87F13D5EE
:1052D000F501930EF07F93D54601758F328E93F5CD
:1052E000F57FFD826318D801B3EEF80063840E06E3
:1052F000795582806396D501B36EC700E39A0EFE9E
:10530000631C0804B3E7F80093B7170099E1598EBE
:105310000DCE81EB6314D50063D905010DC57D5514
:1053200082807D5591C6368582806354B80065D9E8
:105330008280E36517FF639CE800E3616EFEE3682B
:10534000C3FF0145828005458280E5FFC1BFE3E0E0
:10535000E8FEC5BFE38205FBD5FD81474DBF37079A
:1053600010007D1713D84501B378B700AA872A83A8
:105370001378F87F13D5F501930EF07F93D546018E
:10538000758F328E93F5F57FFD826318D801B3EEE9
:10539000F80063840E06094582806396D501B36EDA
:1053A000C700E39A0EFE631C0804B3E7F80093B746
:1053B000170099E1598E0DCE81EB6314D50063D9A6
:1053C00005010DC57D5582807D5591C6368582804B
:1053D0006354B80065D98280E36517FF639CE800D9
:1053E000E3616EFEE368C3FF01458280054582806C
:1053F000E5FFC1BFE3E0E8FEC5BFE38205FBD5FDE5
:1054000081474DBF797193D7450122D426D24ECE24
:1054100052CC56CA9394C50006D64AD05AC85EC626
:10542000139757012A84B289B68AB18013DAF5013D
:1054300041C713FBF77F9307F07F6307FB0C93577C
:10544000D5018E04DD8CB7078000DD8C1319350083
:10545000130B1BC0814B93D74A011394CA001397B7
:105460005701318013F5F77F93DAFA0161C393078F
:10547000F07F6305F51093D7D9010E045D8CB70753
:1054800080005D8C130515C09397390001479396F2
:105490002B00D98E5A95FD16394833465A0193058B
:1054A0001500636ED80E172500001305A58D8A061A
:1054B000AA969442AA96828633E9A400630F09044F
:1054C0008DC82685EFB0FFF9130755FFF14763C775
:1054D000E702F547130985FF998FB3942401B35769
:1054E000F400DD8C33192401130BD0C0330BAB4017
:1054F00095B7EFB01FF713050502F9B7930485FDC3
:10550000B31494000149CDB733E9A400630B09003B
:105510002A89130BF07F8D4B3DBF8144014B854B96
:105520001DBF8144130BF07F894B35B7B36734013E
:10553000B1CF0DC82285EFB0DFF2930655FFF147DA
:1055400063C8D7027547930785FF158F3314F4009E
:1055500033D7E900598CB397F9001307D0C033054E
:10556000A7402DB74E85EFB0DFEF13050502F1B769
:10557000130485FD339489008147C5B7B3673401AF
:1055800091CBCE871305F07F0D4711B7014401453C
:105590000547F5BD01441305F07F0947CDBD416FB7
:1055A0001307FFFF9356090113D307013379E9006D
:1055B000F98FB30823033308F902B38FF602B38ED1
:1055C000F80193580801F698338E660263F3F801E8
:1055D0007A9E93D20801B3F8E8003378E800135FAD
:1055E0000401C208798CC298338786023308890285
:1055F00033092F03B30EE900135908017699B386D6
:10560000E6036374E9004167BA96935E0901B69EAA
:10561000C166938FF6FF3379F9013378F80113D718
:1056200004014209B3F4F401B38397024299CA9288
:1056300033089302B307F702B30FE3023303F80012
:1056400013D803011A986373F800B69F93570801A3
:10565000C166BE9F9387F6FF3378F800B3F7F30077
:10566000B303940242083E9833048702B3049F02B6
:105670003303EF02A29413D70301BA9463F38400B7
:105680003693C167FD17B3F6F400C206B3F7F30013
:10569000169EBE9633392E01F69633872601429E1A
:1056A00033380E01330FF701B3020F01B3B6D60141
:1056B00033372701558F33B80201C180B33FFF0153
:1056C000269733E80F0193179E0042971A97B3E786
:1056D00017012607B337F000135E7E0113D4720161
:1056E000B3E7C701A60293167700598CB3E75700BA
:1056F00063DA060A13D71700858BD98F1317F401C5
:10570000D98F05809386F53F6350D00A13F7770051
:1057100001CF13F7F70011456308A700138747006F
:10572000B337F7003E94BA87131774006358070025
:10573000370700FF7D17798C938605401307E07FBC
:10574000634ED70E13D737009317D401D98F0D802E
:10575000139746013204B706F07F758F3180598C5C
:105760007E06B2503367C400225492540259F24963
:10577000624AD24A424BB24B3E85BA85456182802D
:1057800052862684CA875E8789466309D70A8D4672
:10579000630FD7088546E317D7F6014481479DA0DC
:1057A0005686DDB7AA85B9BF0545158D1307800359
:1057B000E345A7FE7D476349A7049385E541331779
:1057C000B400B3D6A700B397B700558FB337F00036
:1057D000D98F3354A40013F7770001CF13F7F700E4
:1057E00091466308D70013874700B337F7003E940C
:1057F000BA8713178400634807041317D4018D83F5
:10580000D98F0D808146A9B70557158F130800025F
:105810003357E4008146630605019385E543B316DB
:10582000B400D58FB337F000D98F01446DB737047A
:10583000080081479306F07F014619BF0144814764
:105840009306F07F31B701448147854611B7370889
:1058500010007D180111B377B80013D745013378D4
:10586000D80093D8460122CC8E071374F77F1357C4
:10587000D50126CAD98F93D4F5011357D60193D5F4
:10588000F6010E0806CE4AC84EC693F8F87F930676
:10589000F07F0E05336707010E066395D800B366E7
:1058A000C70099E293C5150033081441639395220C
:1058B000635C000F63950804B366C7008DC21308CC
:1058C000F4FF631A08002A963335A600BA97AA9700
:1058D0003285054495A89306F07F6319D4021377A7
:1058E00075006305074E1377F50091466300D74EA8
:1058F0009306450033B5A600AA973685C1A993063D
:10590000F07FE30ED4FCB7068000558F930680032A
:1059100063C80609FD4663C0060793050002B38508
:105920000541B316B700B35806013316B600B3E607
:1059300016013336C000558E335707012A963E971D
:10594000B337A600BA97328513978700E35907F853
:1059500005041307F07F6309E446B70680FFFD16D0
:10596000FD8E9355150005899397F6014D8D5D8D3C
:1059700093D71600ADB7930608FE93080002B356FE
:10598000D700814563081801930500043388054159
:10599000B31507014D8E3336C000558E014779BFD0
:1059A000598E3336C000DDBF630B080AB3858840CB
:1059B0000DE4B3E6A700638006409386F5FF99E601
:1059C0003295BA973336C500B29721B71308F07FE6
:1059D000639D0501BA873285EDAC9306F07FE38BBA
:1059E000D8FEB7068000D58FAE869305800363C4CA
:1059F000D506FD4563CBD502130800023308D84015
:105A00003353D500B395070133150501B3E56500A0
:105A10003335A0004D8DB3D6D7003295B387E6005D
:105A20003336C500B297468405B7938506FE130347
:105A30000002B3D5B700014863886600130800046C
:105A4000B306D8403398D7003365A8003335A0009B
:105A50004D8D8146D9B75D8D3335A000DDBF9306EE
:105A6000140093F5E67FA9E5B3E6A7001DE463887B
:105A70000634B366C700E38406E62A96BA97333540
:105A8000A600AA97139787003285E35A07E43707E1
:105A900080FF7D17F98F054499B58DDE598E630A15
:105AA00006228144B707400001451304F07F39AE58
:105AB0009305F07F6388B6302A963E97B337A600E9
:105AC0003E971315F7010582518D935717003684C1
:105AD00039B56356000D63930808B366C700E380C9
