:0200000480007A
:100000007370043073504030971100109381819CBD
:1000100017010110130101FF97020000938242387B
:100020007390523073F05130170500001305050925
:1000300097050000938585086300B50217A60000A8
:100040001306467163FAC5008322050023A05500FC
:1000500011059105E3EAC5FE17A500001305856F9C
:1000600097050010938505FA1386819D63FAC500F4
:100070008322050023A0550011059105E3EAC5FE82
:100080001385819D938501C16377B5002320050009
:100090001105E36DB5FE312B175500001305E53A48
:1000A000EF504039EF50C03DD92B01458145292003
:0600B000EF00B00E01A0FC
:1000B8000111294506CE22CC26CA4AC84EC6EF50A1
:1000C800706417A50000130565B3EF50507C17A6A0
:1000D8000000130666B597A500009385E5B517A53A
:1000E80000001305E5B5EF50305E17A500001305B5
:1000F800A5B7EF50D079930700009384819E0546F9
:100108009305400605459CC0EF00D00F88401709AD
:1001180000101309290D1544EF50C00C03270900DE
:10012800832749002A86AE8617A50000130585B4E3
:10013800EF50905983A904009705001083A5051571
:100148004E85EF40207A6353A000054493050000D4
:100158004E85EF402079635BA0002285EF40F06573
:10016800CE85EF40004EEF40505F2A846343800005
:100178000544A28517A50000130585B2EF50D05499
:1001880097A50000938545AB17A50000130505B397
:10019800EF5090532945EF50F05617A5000013056E
:1001A80025B5EF50D06E9305400693020000014636
:1001B800228523A05400EF00F00417A500001305C2
:1001C80025B8EF50705083A90400930500004E85B0
:1001D800EF4040716355A00C2285EF40105E9705F3
:1001E800001083A5E50AEF40E07E2A8497050010F9
:1001F80083A5C5084E85EF40E07DAA852285EF409E
:1002080040441389C19E2320A9004E85EF40907D6C
:10021800AA89032509002E84EF40D07C2A864E87C0
:10022800AE86A28717A500001305C5B2EF50D049C6
:1002380017A50000130505B3EF5010498840EF409B
:10024800707AAA8417050010032585F8AE89EF4057
:100258007062AA8503250900EF40A03E97050010AB
:1002680083A50502EF400077EF40D0772A86AE8657
:100278002687CE8717A500001305C5ADEF50D044DB
:100288009305000003A5419EEF40606005C1F24060
:100298006244D2444249B2490145056182801389CA
:1002A800C19E930000002320190085B717A5000000
:1002B800130585ACEF505041D9BFA54723A6F1C01F
:1002C8007D5582807D15854763E7A700096323A2D2
:1002D800650001458280A54223A651C07D558280D4
:1002E800054582800145828019C17D558280411172
:1002F8003735011022C406C62E84B52A2300A4006F
:10030800B2402244054541018280170700101307B7
:10031800E7EB1C43938601C13E95636BD50097F2CA
:1003280000109382A24D63E5A20008C33E85828037
:10033800FD573E858280011122CC4EC606CE26CAC4
:100348004AC82E84B289EF50505639C13309340156
:10035800A944638C09008345040037350110638E76
:1003680095000504F528E31824FF4E85F240624401
:10037800D2444249B24905618280B545D5208345BA
:100388000400373501100504E128E31689FCF1BFA4
:100398007D55E9BF5D7106C012C216C41AC61EC8D3
:1003A8002ACA2ECC32CE36D03AD23ED442DC46DEF1
:1003B800F2C0F6C2FAC4FEC6F322103416D6F322EF
:1003C800203416D8F322003016DA732520348A85B3
:1003D800F522B25273901234C25273902234D25220
:1003E8007390023082401242A2423243C2435245C5
:1003F800E245724682561257A2576258F258064E84
:10040800964E264FB64F616173002030AA8711C5FA
:10041800584D0145D98DCCCF82807D558280AA87E1
:1004280015CD170700100327A7DAB355B7029302B3
:100438000008232655001308600C8D4801451383D6
:10044800F5FF9353830013F6F30FD0C39376F30F9E
:1004580094C323A4070123A6170182807D558280B7
:1004680009C95C4993F20702E38D02FE0CC10145FC
:1004780082807D55828011C95C4993F21700E38D13
:1004880002FE08411375F50F82801305F00F828074
:10049800B7C7000283A687FF83A7C7FF37C6000236
:1004A800B682032786FF8327C6FF3A83732700B0E7
:1004B800E38962FEB7C3000203A583FF83A6C3FFD7
:1004C800F32500B0E30AA3FE83A7C3FF83A683FF37
:1004D800B7C50002368883A885FF83A7C5FF732E9A
:1004E80000B0E30A18FFB7CE0002130F300683AF3F
:1004F8008EFF83A5CEFF33861F41F32700B0E37834
:10050800CFFEB382C74133F7C20233D3C20293137B
:10051800F70033D5C3029316F30036958280411154
:1005280022C42A84179500001305C55C06C6EF503F
:100538001036A285179500001305055DEF50D018F9
:10054800F3251034179500001305055DEF50D017FB
:10055800F3253034179500001305055DEF50D016CC
:1005680001A0411122C42A84179500001305C55C17
:1005780006C6EF50D031A285179500001305C5585F
:10058800EF509014F3251034179500001305C55843
:10059800EF509013F32530342244B24017950000F1
:1005A8001305855841016F503012B7B7C4049382C0
:1005B800074017070010232D57C08280411106C637
:1005C8009317450122C493D0470163420504294685
:1005D8002A87AE86637E160017030000130363F4B0
:1005E800B6853A850293B240224401454101828092
:1005F80093922000938341A2338453000323040081
:10060800E31003FEB24022440145410182802D4897
:10061800638D000193982000138EC19FB30E1E01B5
:1006280003A30E00E31003FC7DBF732F40F1B7074F
:10063800200C931FCF009380470033871F0000438F
:10064800C146E3E286FA13162400138301A5B30218
:10065800C30083A30200638303008293732540F1E0
:100668003708200C9315C50093084800338E1501F0
:1006780023208E008DBF411106C622C4113DAA87D2
:10068800170400101304C4B4B7050300372501107C
:100698001CC0AD3BF165938505203735011041330A
:1006A800179600001306864A979500009385C54A59
:1006B800179500001305054BEF50100197950000A2
:1006C8009385C54C179500001305854CEF50C07FE6
:1006D8000C40179500001305E54CEF50E07E97029B
:1006E8000000938242E8138701A51706000013064D
:1006F80046E3938641A21383C19F90C2D0C290C69D
:10070800D0C690CAD0CA90CED0CE90D2D0D290D6F1
:10071800232057002322570023245700232657005D
:1007280023285700232A5700232C5700232E57002D
:100738002320570223225702232457022326570235
:1007480023285702232A5702232C5702232E570205
:10075800232057042320530023225300232453002B
:100768002326530023285300232A5300232C530005
:10077800232E53002320530223225302F32340F154
:100788003728000C13957300B308050103AE080061
:10079800B70E000C137FEEFF23A0E80123A00E0084
:1007A800F32F40F193977F00338407010C4093F2B5
:1007B800D5FF2320540023A20E00732740F11316FF
:1007C8007700B306060103A306009373B3FF23A0C3
:1007D800760023A40E00732540F193187500338E1C
:1007E8000801032F0E00937F7FFF2320FE0123A61D
:1007F8000E00F32740F113947700B305040183A298
:10080800050013F7F2FE98C123A80E00732640F1E5
:1008180093167600338306018323030013F5F3FD53
:100828002320A30023AA0E00F32840F1139E78008A
:10083800330F0E01832F0F0093F7FFFB2320FF00D8
:1008480023AC0E00732440F193157400B3820501A4
:1008580003A702001376F7F723A0C20023AE0E0009
:10086800F32640F113937600B303030103A50300B5
:100878009378F5EF23A0130123A00E02732E40F105
:10088800131F7E00B30F0F0183A70F0013F4F7DFC8
:1008980023A08F0023A20E02F32540F19392750046
:1008A8003387020110439376F6BF14C323A40E02C4
:1008B800732340F193137300B388030103AE080058
:1008C8007D7F1305FF7FB37FAE0023A0F80123A629
:1008D8000E02F32740F113947700B302040183A5B5
:1008E80002001307FFFF33F6E50023A0C20023A888
:1008F8000E02F32640F113937600B303030183A895
:100908000300797E130FFEFF33F5E80123A0A3004F
:1009180023AA0E02F32F40F193977F003384070137
:1009280083220400F1751387F5FF33F6E20010C047
:1009380023AC0E02F32640F113937600B3030301B0
:1009480083A80300617E130FFEFF33F5E80123A09F
:10095800A30023AE0E02F32F40F193977F003E9839
:1009680003240800C1729385F2FF3377B400232073
:10097800E80023A00E04F32E40F1B706200CB24085
:1009880022441396CE003303D600232003004101EE
:100998008280828082808280B7C7000203A587FF99
:1009A80083A5C7FF411106C6EF4060769705001082
:1009B80083A5C58AEF40000223A0A19EB24083A26E
:1009C800019E23AE519C41018280B7C7000203A556
:1009D80087FF83A5C7FF411106C6EF4040739705FF
:1009E800001083A5A587EF30F07E23A0A19E03A564
:1009F800019E83A5C19DEF400020B24023ACA19C7D
:100A0800410182801971D6D293973500939A1500C7
:100A180086DEA2DCCAD82E84D2D43387BA00B3804B
:100A2800B7402ED21308200D9305901513093038BE
:100A3800130A8026CED6DAD0B302B4029316570032
:100A4800A6DAE6CADECEE2CCEAC8EEC6AA8C2AC688
:100A5800B308040332CC130300001386419E93931A
:100A68001000931454003385E64016D62320660000
:100A78001ECAB309240326D82ADE46D0330B440302
:100A88004EDA5ADC113F634490016F10E05B131C8F
:100A9800440097F4FF0F83A4A47C97FBFF0F83AB5C
:100AA8006B7C330D8C405ED4131A3D002689A68DCD
:100AB800DE8917F4FF0F0324247B014B014C635C90
:100AC8004007EE854E85EF309006CA85EF30300638
:100AD800A685EF404012A285EF30D06FEE85AA8937
:100AE800EF30F004CA85EF400011A685EF303004DE
:100AF800A285EF30306EAA85AA8D4E85EF40A00FF3
:100B0800CA85EF30D002A685EF307002A285EF309B
:100B1800706C2A89CE856E85EF40E00DCA85EF306E
:100B28001001A685EF30B000A285EF30B06A050C41
:100B3800AA84E3184CF9A2855E85EF40C00B050B2B
:100B48002A84E39D6CF7513597F5FF0F83A505734C
:100B580003A5819DEF30F02E23ACA19C3245138D67
:100B6800419E138A819EEF4040452A8E03250D0041
:100B7800938E819DA68503AC0E0072CEEF30207B4C
:100B8800979700009387472003DF070083D2270049
:100B980083D3470003D3670083D8870003D6A70011
:100BA80083D6C70003D7E70083DB0701AA8F032595
:100BB8000A00938C41A9138881B3E2852320FD01A3
:100BC800232288012399EC01239A5C00239B7C0053
:100BD800239C6C00239D1C01239ECC00239FDC00DA
:100BE8002390EC0223917C03EF3060742320AA0049
:100BF800624585456314B5006F10204051E103A597
:100C080001B6EF40205E2A86AE86179500001305D0
:100C1800E5FA938561AAEF50202B930500006285C1
:100C2800EF30504C6344A0006F1020409250338442
:100C38001A0013156400EF404038F245EF30905920
:100C48002A8D97F5FF0F83A5A5636285EF3090582D
:100C5800AA856A85EF30F01EEF40C058AA8A2E8B0D
:100C6800138E81B303254E00EF40C0572A87AE8705
:100C78005686DA8617950000130545F5EF50C0240F
:100C8800213BB24E635AD02F17FAFF0F032A0A5E90
:100C980017F4FF0F0324445D02C8D28C528CD28B08
:100CA800528BD24F014DFE8A6357F02BCE856E854D
:100CB800EF30E067CA85EF308067A685EF30B07304
:100CC800A285EF303051AA89CE856E85EF30206637
:100CD800CA85EF305072A685EF306065A285EF3087
:100CE800704FAA8DAA854E85EF30F070CA85EF3017
:100CF8000064A685EF30A063A285EF30B04D2A8945
:100D0800CE856E85EF30306FCA85EF304062A6859C
:100D1800EF30E061D285EF30F04BAA84CE856E8546
:100D2800EF30E060CA85EF308060A685EF30B06CA8
:100D3800A285EF30304AEE85AA89EF30405FCA8538
:100D4800EF30706BA685EF30805EA285EF3090485B
:100D5800AA8DAA854E85EF30106ACA85EF30205DCE
:100D6800A685EF30C05CA285EF30D0462A89CE85B3
:100D78006E85EF305068CA85EF30605BA685EF302E
:100D8800005BE685EF301045AA84CE856E85EF308E
:100D9800005ACA85EF30A059A685EF30D065A285E4
:100DA800EF305043EE85AA89EF306058CA85EF309E
:100DB8009064A685EF30A057A285EF30B041AA8D88
:100DC800AA854E85EF303063CA85EF304056A68538
:100DD800EF30E055A285EF30F03F2A89CE856E8549
:100DE800EF307061CA85EF308054A685EF3020540B
:100DF800E285EF30303EAA84EE854E85EF302053F1
:100E0800CA85EF30C052A685EF30F05EA285EF307C
:100E1800703CAA89AA856E85EF306051CA85EF308B
:100E2800905DA685EF30A050A285EF30B03AAA8D2C
:100E3800AA854E85EF30305CCA85EF30404FA685D5
:100E4800EF30E04EA285EF30F0382A89CE856E85E6
:100E5800EF30705ACA85EF30804DA685EF30204DAF
:100E6800DE85EF303037AA84EE854E85EF30204C92
:100E7800CA85EF30C04BA685EF30F057A285EF301A
:100E88007035AA89AA856E85EF30604ACA85EF3029
:100E98009056A685EF30A049A285EF30B033AA8DD1
:100EA800AA854E85EF303055CA85EF304048A68573
:100EB800EF30E047A285EF30F0312A89CE856E8584
:100EC800EF307053CA85EF308046A685EF30204654
:100ED800DA85EF303030AA84EE854E85EF30204534
:100EE800CA85EF30C044A685EF30F050A285EF30B8
:100EF800702EAA89AA856E85EF306043CA85EF30C7
:100F0800904FA685EF30A042A285EF30B02CAA857D
:100F1800AA8D4E85EF30304ECA85EF304041A68508
:100F2800EF30E040A285EF30F02A2A89CE856E8521
:100F3800EF30704CCA85EF30803FA685EF30203FF8
:100F480097F7FF0F938787328C43050DEF30902872
:100F5800AA84E39DAAD517FFFF0F130FAF3003250F
:100F68000F00A285EF303049C24232432A8493836E
:100F780012001EC8E31773D2893C138A419E0325C9
:100F88000A009388819DA68503A40800EF30203AC3
:100F9800179E0000130E4EDF03284E0103268E0114
:100FA8008326CE0103270E02835E4E02938C819E18
:100FB800AA8503A50C00938B41A9138C81B3232028
:100FC800BA0023248C00A28523A20B0323A4CB02FE
:100FD80023A6DB0223A8EB02239ADB03EF3020359C
:100FE800624B23A0AC0005456314AB006F10600092
:100FF80063130B0803A541B6EF40C01E2A86AE86D0
:1010080017950000130585BB938581ABEF40D06B26
:10101800930500002285EF30F00C6344A0006F10A8
:10102800A001925F9300005433851F02EF30F078DF
:10103800F245EF30301AAA8997F5FF0F83A54524AA
:101048002285EF303019AA854E85EF30805FEF405A
:1010580060192A8DAE8A938D81B303A58D00EF4068
:1010680060182A87AE876A86D6861795000013050A
:10107800E5B5EF407065EFF03F92B247054401498E
:101088008544635FF00AB253BE826358700AE3096D
:101098009430338F83401373EFFF135A1300937800
:1010A8007A00B3058300638608040904635674084C
:1010B800054E6380C8050948638A08038D4C63841C
:1010C80098031146638EC80095466388D800994EE8
:1010D800E390D82F0904635174060904635E74040D
:1010E8000904635B740409046358740409046355B0
:1010F8007404130C2400930B440013056400130BB1
:101108008400130DA400930AC4001307E4006314B9
:10111800B4006F001054410463507C0263DE7B000E
:10112800635C7500635A7B0063587D0063D67A0060
:1011380063547700E34F74FA01440509E39722F5F5
:10114800EFF0BF882285EF3050671389419EAA8D42
:1011580003250900EE859389819DEF30401D9797FF
:101168000000938767C283A4090083D2870283D3D0
:10117800A70203D3C70283D8E70203DE070303D815
:10118800270383DC470303D6670383D68703138AC1
:10119800819EAA8F03250A00938E41A9138F81B3DC
:1011A800A6852320F90123269F00239B5E02239C0A
:1011B8007E02239D6E02239E1E03239FCE0323904F
:1011C8000E0523919E052392CE042393DE04EF306F
:1011D8000016624C2320AA0085456314BC006F00EA
:1011E800504C63130C0803A581B6EF30B07F2A86F4
:1011F800AE86179500001305659C9385A1ACEF405A
:10120800B04C930500002685EF30C06D6344A00004
:101218006F00B06012559300B04033051502EF30EF
:10122800D059F245EF30007B2A8D97F5FF0F83A543
:1012380025052685EF30007AAA856A85EF3060405B
:10124800EF30507AAA8B2E8B938A81B303A5CA00FC
:10125800EF3050792A87AE875E86DA8617950000C8
:1012680013054598EF405046EFF00FF3324C130B3F
:101278000000DA8B814A635A8013025417FAFF0F71
:10128800032A4AFE97F9FF0F83A9C9FE17F9FF0F32
:10129800032909FE97F4FF0F83A4C4FE814C63530E
:1012A8008010937D2400638C0D06854F6386FD05B1
:1012B80063930D025A85D285EF306007CE85EF30F3
:1012C8000007CA85EF30A0062A8BA6855E85EF3019
:1012D8000006AA8B854C5A85D285EF304005CE850D
:1012E800EF30E004CA85EF3080042A8BA6855E853E
:1012F800EF30E003AA8B850C5A85D285EF302003A6
:10130800CE85EF30C002CA85EF3060022A8BA685F1
:101318005E85EF30C001850CAA8B630594095A8558
:10132800D285EF30C000CE85EF306000CA85EF303F
:1013380000002A8DA6855E85EF20707FAA8DD28554
:101348006A85EF20D07ECE85EF20707ECA85EF209B
:10135800107E2A8BA6856E85EF20707DAA8BD2859C
:101368005A85EF20D07CCE85EF20707CCA85EF208F
:10137800107C2A8DA6855E85EF20707BAA8DD2858C
:101388006A85EF20D07ACE85EF20707ACA85EF2063
:10139800107A2A8BA6856E85EF207079910CAA8B1E
:1013A800E31F94F7850AE31B5CEFEFF00FE2DE859D
:1013B8005A85EF20D077AA8C02551389419E9389CC
:1013C800819EEF30903FAA856685EF308027F245F1
:1013D800EF3020272A8403250900A285EF203075E5
:1013E800979300009383439A9387819D844303A333
:1013F800C30303AE030403A8430403A6830483D6EC
:10140800C304AA8203A50900138F41A9938881B355
:10141800A6852320590023A8980023246F04232697
:10142800CF0523280F05232ACF04231CDF04EF2030
:101438001070E24523A0A900854EE387D525C9E1B0
:1014480003A5C1B6EF30105A2A86AE86178500006C
:101458001305C5769385C1ADEF40102793050000AD
:101468002685EF302048E35EA03A925F85601385B9
:10147800E0C43385AF02EF305034F245EF30805589
:101488002A8B97F5FF0F83A5A5DF2685EF308054BB
:10149800AA855A85EF30E01AEF30D0542A8A2E8C6C
:1014A800938B81B303A50B01EF30D0532A87AE8706
:1014B8005286E286178500001305C572EF40D020DA
:1014C800EFF08FCD324DE358A01D425C97F9FF0F26
:1014D80083A949D917F4FF0F032444D9814DA28465
:1014E80017F9FF0F032949D84E8A4E8B6EC8854AD3
:1014F800854C63D38A0D2685EF00D070AA8D26858A
:10150800EF00B067A2852A8D2685EF205062EF0094
:10151800D066A285AA8A2685EF30E06DEF00F065D7
:10152800AA8BEE856E85EF209060EA85EF30804AC1
:10153800AA84DE855685EF20905FCE85EF30A06BBC
:10154800AA852685EF30E00FEF001039CA85EF3005
:101558006048AA842285EF00F06AAA8D2285EF00F0
:10156800D061A2852A8D2685EF20705CEF00F0609F
:10157800A285AA8A2685EF300068EF001060AA8B42
:10158800EE856E85EF20B05AEA85EF30A0442A84B4
:10159800DE855685EF20B059D285EF30C065AA8523
:1015A8002285EF30000AEF003033CA85EF308042E1
:1015B800850C2A84E3119CF5CA855A85EF30A0630F
:1015C800C242B2432A89938712003EC8E391F3F2DC
:1015D800EFF0AFBF1389419E032509001383819D56
:1015E800A285032A0300EF20905497850000938575
:1015F800A57983DE050503DE250583DF450583D848
:10160800650503D8850503D6A50583D6C50503D783
:10161800E50503DB05069389819E2A8F03A509004A
:10162800938C41A9138C81B32320E901D285232A05
:101638004C01239DDC05239ECC05239FFC052390AC
:101648001C0723910C072392CC062393DC062394D2
:10165800EC0623956C07EF20904DE24423A0A900E7
:101668000545E384A418BDEC03A501B7EF30903716
:101678002A86AE8617850000130545549385E1AE8A
:10168800EF409004930500005285EF30A025E35FFA
:10169800A016925A9300003433851A02EF30F011E5
:1016A800F245EF302033AA8B97F5FF0F83A545BD90
:1016B8005285EF302032AA855E85EF209078EF3092
:1016C8007032AA8D2E8D138481B34848EF30903143
:1016D8002A87AE876E86EA8617850000130585502F
:1016E800EF40807EA25BEFF02FABB24A5E8B814960
:1016F80063555019525A17F9FF0F0329E9B697F4A1
:10170800FF0F83A464B817F4FF0F032424B6014D18
:101718006352401793723A006382020A85476385D1
:10172800F2068943638A7202DA855E85EF203040CB
:10173800CA85EF30202ADE852A8CEF20503FA68507
:10174800EF304029AA852A8B6285EF20503EA2857A
:10175800EF304028AA8B054DDA855E85EF20303DB5
:10176800CA85EF302027DE85AA8CEF20503CA6855D
:10177800EF304026AA852A8B6685EF20503BA2854C
:10178800EF304025AA8B050DDA855E85EF20303ACB
:10179800CA85EF302024DE85AA8DEF205039A68532
:1017A800EF304023AA852A8B6E85EF205038A2851A
:1017B800EF304022050DAA8B630EAA0BDA855E85F1
:1017C800EF20F036CA85EF30E020DE852A8CEF2046
:1017D8001036A685EF300020AA8CAA856285EF20F6
:1017E8001035A285EF30001FE685AA8DEF20303432
:1017F800CA85EF30201EEE85AA8BEF205033A685D0
:10180800EF30401D2A8BAA855E85EF205032A285D5
:10181800EF30401CDA852A8CEF207031CA85EF3012
:10182800601BE285AA8CEF209030A685EF30801AE5
:10183800AA85AA8D6685EF20902FA285EF308019A2
:10184800EE85AA8BEF20B02ECA85EF30A018DE8572
:101858002A8CEF20D02DA685EF30C017AA852A8BB9
:101868006285EF20D02CA285EF30C016110DAA8B0F
:10187800E316AAF58509E39C3AE9EFF00F95138D75
:10188800419E03250D001383819DDE8503240300FB
:10189800EF20F029978500009385054F83AE450614
:1018A80003AE850683AFC50683A8050703D8450799
:1018B8001389819E2A8F03250900938641A91386DF
:1018C80081B32320ED01A28500CE23A6D60723A845
:1018D800C60723AAF60723AC1607239E0607EF20A0
:1018E800102562472320A90005456300A75C49E34A
:1018F80003A541B7EF30100F2A86AE861785000082
:101908001305C52B938501B0EF40005C93050000DB
:101918002285EF20307D6355A072925785609382AF
:10192800205133855702EF304069F245EF30800A85
:10193800AA8A97F5FF0F83A5A5942285EF30800921
:10194800AA855685EF20F04FEF30D009AA842E8A59
:10195800938381B303A58301EF30D0082A87AE872C
:101968002686D2861785000013054526EF40C05508
:10197800EFF08F82324B63516055E25EDA8017F4E4
:10198800FF0F0324E48E17FFFF0F032FAF8E0143D1
:101998006356D0079D4F85472286FA8C638AFF04D9
:1019A800894863811F050D48638A0F039146638345
:1019B800DF029545638CBF0019456385AF008947F1
:1019C8007A86A28C328785076686BA8CB2848507A8
:1019D8006686A68C328B85076686DA8CB282850786
:1019E8006686968CB283850766869E8C11A0A107B1
:1019F800938D1700E39DBEFF3284668F0503E3993C
:101A080060F8EFE09FFC138C419E03250C00A28533
:101A18001789000013094937EF207011938B819DB6
:101A280083AB0B00835EA9070353C907035EE9076D
:101A3800835F0908835829080358490883566908A9
:101A48009389819E835A8907035A89082A8D03A599
:101A58000900138741A9138F81B3DE852320AC01C8
:101A6800232E7F01231F57072310D7092311670847
:101A78002312C7092313F709231417092315070984
:101A88002316D70823174709EF20700A23A0A900B7
:101A9800624585456307B556E24063910012138A93
:101AA800C1B50325CA01EF30E0732A86AE861785D3
:101AB80000001305A510938521B1EF40E040930580
:101AC80000005E85EF2010626356A0541253930EF7
:101AD80080733305D303EF30404EF245EF20906F0B
:101AE8002A8B97E5FF0F83A5A5795E85EF20906E79
:101AF800AA855A85EF20F034EF30C06EAA89AE84EB
:101B0800138E81B30325CE01EF30C06D2A87AE87CF
:101B18004E86A686178500001305C50CEF40C03A0F
:101B2800EFE09FE7B24F6340F00BEFE01FEA938CC2
:101B3800419E03A50C009388819D97E5FF0F83A51F
:101B4800A57383AD0800EF20807E978500009385FC
:101B5800A52303A8C50883A2050983A6450903A7E9
:101B6800850983D3C509138C819E2A8F03250C0010
:101B7800138641A9938781B323A0EC01EE8523A0A6
:101B8800B70323280609232A5608232CD608232E10
:101B9800E6082310760AEF2080792320AC0029ACD0
:101BA800639983CE05090144639522CF6FF04FD91D
:101BB8000904634174D201446FF02FD8EFE0DFDDF0
:101BC800B2446350904A7259B24917E5FF0F032592
:101BD800A56A814417E4FF0F0324046B014A635B81
:101BE800201593707900638C000A854B638D70090A
:101BF800094D6380A0098D4A63835007914E63861F
:101C0800D005154363896002194B638C6001EF00AE
:101C1800F018A285EF20F022EF003007EF0090289F
:101C2800054AEF00B017A285EF20B021EF00F005BC
:101C3800EF005027050AEF007016A285EF207020EC
:101C4800EF00B004EF001026050AEF003015A2855A
:101C5800EF20301FEF007003EF00D024050AEF00DB
:101C6800F013A285EF20F01DEF003002EF00902363
:101C7800050AEF00B012A285EF20B01CEF00F000BB
:101C8800EF005022050AEF007011A285EF20701BAB
:101C9800EF00A07F050AEF00F020630D4909EF006F
:101CA800F00FA285EF20F019EF00207EEF00901FC3
:101CB800EF00D00EA285EF20D018EF00007DEF00D6
:101CC800701EEF00B00DA285EF20B017EF00E07B8B
:101CD800EF00501DEF00900CA285EF209016EF004A
:101CE800C07AEF00301CEF00700BA285EF20701552
:101CF800EF00A079EF00101BEF00500AA285EF203B
:101D08005014EF008078EF00F019EF003009A28539
:101D1800EF203013EF006077EF00D018EF001008C5
:101D2800A285EF201012EF004076210AEF009017ED
:101D3800E31749F78504E39399EAAA8A938C419EAD
:101D4800EFE0BFC803A50C00138E819DD685832DB7
:101D58000E00EF20C05D978800009388E80203AF6B
:101D6800C80803A8080983A2480983A6880903D7D5
:101D7800C809138C819EAA8F03250C00938741A95B
:101D8800938381B3EE8523A0FC0123A0B30323A88A
:101D9800E70923AA070923AC570823AED7082390DD
:101DA800E70AEF20C05862462320AC008545630A45
:101DB800B60A45EE138AC1B503250A02EF30804200
:101DC8002A86AE8617850000130545DF938541B244
:101DD800EF40800F930500006E85EF20B030635A06
:101DE800A0249250130540173385A002EF30E01C61
:101DF800F245EF20303E2A8D97E5FF0F83A5454831
:101E08006E85EF20303DAA856A85EF209003EF307C
:101E1800603DAA8DAE8B938A81B303A50A02EF3089
:101E2800603C6654F650D6544659B659265A965AC6
:101E3800065B664CD64C464D6E86DE86B64DF64B36
:101E48002A87AE87178500001305C5D909616F4039
:101E5800A00705090544638422016FF00FA36FF002
:101E68002FAE138AC1B523205A03F6506654D654B0
:101E78004659B659265A965A065BF64B664CD64CC6
:101E8800464DB64D0961828023A681B6EFE0DFB0EA
:101E9800324D634CA0E317E4FF0F0324243D6FF099
:101EA8002FF323A4B1B76FF02FBC23AA71B7EFE0CB
:101EB800BFAE324BE34360ADEFE03FB1938C419E40
:101EC80003A50C0097E5FF0F83A5853A97890000C5
:101ED800938989EBEF20A045938D819D83AB0D00FD
:101EE80003DFA90703D3C90783DEE90703DE09086F
:101EF80083DF290883D8490803D8690803D68908E5
:101F08001389819E03DD89072A8C0325090093869E
:101F180041A9138481B3DE8523A08C01232E74018B
:101F2800239FA6072390E609239166082392D609E2
:101F38002393C6092394F6092395160923960609BF
:101F48002397C608EF20A03E2320A90062458545B7
:101F5800E314B5B417E7FF0F03278731138AC1B518
:101F6800232EEA00938A419EEFE01FA3EFE0FFA52E
:101F780003A50A0097E5FF0F83A505309384819D8B
:101F8800EF20E03A97870000938707E003AB04004F
:101F980083A3C70883AD070983AB470903AC870947
:101FA80083D9C709938C819EAA8203A50C00138943
:101FB80041A9138D81B323A05A00DA8523206D032C
:101FC80023287908232AB909232C7909232E89097A
:101FD8002310390BEF20A03597EAFF0F83AACA29EF
:101FE80023A0AC0023205A0349B523A881B66FF07B
:101FF8006FEF23A291B66FF00F8823A091B66FE020
:102008003FC823AC81B6EFE03F9975BE814D014DC5
:102018006FF06FEB81498144E5B4814B014B6FF060
:10202800AFA2014A014C6FF0AFC7814A014B6FE084
:102038003FC3814D814BC5B3014D814A6FF0AF81DC
:102048008144014A6FF0DF9097E4FF0F83A4442195
:1020580097E9FF0F83A909214ED42689A68D6FE041
:102068009FAEEFE09F96138B419E03250B00938252
:10207800819D97E5FF0F83A5252083AC0200EF2003
:10208800002B97870000938727D083ADC70803A646
:10209800070983AB470903AD870903D9C709138C1F
:1020A800819EAA8303250C00938A41A9138481B3D6
:1020B80023207B00E6852320940323A8BA0923AABA
:1020C800CA0823AC7A0923AEAA0923902A0BEF2069
:1020D80000262320AC0051BB011126CA9314150019
:1020E80022CC4EC606CE4AC852C48580B707805057
:1020F8002A84AA8963C4F402B707807F63CB971444
:102108006357A01C17E5FF0F0325C518F24062446A
:10211800D2444249B249224A05618280B707E03E6B
:1021280063D5F416B707003163C0F4147D5AA2854D
:102138002285EF20300AAA852A89EF20B00997E581
:10214800FF0F83A52516AA84EF20D00897E5FF0F77
:1021580083A58515EF20A01DA685EF20B00797E57C
:10216800FF0F83A5A514EF20801CA685EF209006FD
:1021780097E5FF0F83A5C513EF20601BA685EF2009
:10218800700597E5FF0F83A5E512EF20401AA68595
:10219800EF20500497E5FF0F83A50512EF202019C3
:1021A800CA85EF20300397E5FF0F83A525112A89FB
:1021B8002685EF20300297E5FF0F83A56510EF20F5
:1021C8009023A685EF20100197E5FF0F83A5850FC3
:1021D800EF207022A685EF20E07F97E5FF0F83A50B
:1021E800A50EEF205021A685EF20C07E97E5FF0FB2
:1021F80083A5C50DEF203020A685EF20A07DAA85F8
:102208004A85EF20C012A285EF20C07CFD57AA8521
:10221800630BFA0C97870000938707C10A0A3E9A56
:1022280083250A01EF20301DA285EF20D01CAA8546
:1022380003250A00EF20301CE3DA09ECF24062447F
:10224800B7070080D2444249B249224A3D8D056110
:102258008280AA85EF20A00DF2406244D244424910
:10226800B249224A0561828097E5FF0F83A50503DD
:10227800EF20E00B97E5FF0F83A5C5FEEF208066F2
:10228800AA872285E354F0EA51B5952AB707983F03
:102298002A8463D5F406B707303F63DBF40AAA85BE
:1022A800EF20E00897E5FF0F83A5C5FBEF20B014EA
:1022B800AA8497E5FF0F83A5E5FB2285EF20200779
:1022C800AA852685EF20E0372A84014A8DB5F24099
:1022D8006244D2444249B249224A17E5FF0F032516
:1022E800A5FB056182802285EF20F010F240624450
:1022F800D2444249B249224A05618280B7071C404C
:1023080063DEF40297E5FF0F83A585F9EF20B00E91
:10231800AA8797E5FF0F83A5A5F822853E84EF20BD
:10232800606B97E5FF0F83A5E5F3EF204000AA85D2
:102338002285EF2000312A84094AD5BBAA8517E5F2
:10234800FF0F0325E5F1EF20C02F2A840D4AC5B3FE
:1023580097E5FF0F83A505F1EF20F009AA8497E51B
:10236800FF0F83A525F02285EF10707CAA852685AE
:10237800EF20202D2A84054A5DBB011122CC3704A9
:1023880000809347F4FF3717493F06CEE98F1307BC
:1023980087FD635EF7023707807F63C9E700AA8578
:1023A800EF207005F2406244056182802C00EF0046
:1023B80030140D8985476304F5028947B245630BDC
:1023C800F5020DC522450546EF100074E1BF9305DF
:1023D8000000EF00F056F240624405618280B24589
:1023E80022450546EF104072218D6DBF2245EF0052
:1023F80030554DBF2245EF00B054218D65B7060515
:1024080005818280011122CC370400809347F4FFB4
:102418003717493F06CEE98F130787FD635EF7023A
:102428003707807F63C9E700AA85EF20C07CF240A8
:102438006244056182802C00EF00900B0D8985476E
:102448006305F5028947B245630BF50205C52245C8
:10245800EF00104F218DE1BF014693050000EF10FA
:10246800A06AF240624405618280B2452245EF00CD
:10247800304D75BF22450546EF1000694DBF224516
:102488000546EF106068218D5DB7397122DC26DAC8
:102498004AD806DE17E9FF0F1309C9D3AA84D12445
:1024A80003270900FD572A846308F7022685EF10E1
:1024B80000771DC197E5FF0F83A585E12685EF20ED
:1024C8006042634CA00897E5FF0F83A5A5E0268529
:1024D800EF20C04863490500F25022856254D25467
:1024E80042592161828091473EC426859787000022
:1024F800938787953EC602D4EF20D04E2A860325BF
:10250800090032CC2ECE32C82ECA02D002D2894758
:10251800630FF5022800EF10100B15C9A257B5EB91
:1025280002559255EF2070552A84F2502285625444
:10253800D25442592161828017E7FF0F130787CBD6
:1025480010435443894732D036D2E315F5FCEF20C7
:10255800B06E930720021CC1D1B78D473EC42685B3
:10256800978700009387478E3EC602D4EF20904796
:102578002A860325090032CC2ECE32C82ECA4DFD3C
:1025880097E7FF0F938787C69843DC433AD03ED23C
:1025980051B7EF20706AA2571CC159B7397122DCB4
:1025A80026DA4AD806DE2A848D29FD5717E9FF0F57
:1025B800032949C2AA846309F90AA2852285EF2062
:1025C80090165DE1930500002285EF20A031634D50
:1025D800A008978700009387A78722853EC602D464
:1025E800EF2050402ACC2ECE2AC82ECA63170902E3
:1025F80097E7FF0F938787C09843DC439305000054
:1026080022853AD03ED2EF20802851E589473EC442
:102618002800EF10407B31E19DA097E7FF0F9387DB
:1026280067BE9843DC439305000022853AD03ED22A
:10263800EF20E02529C185473EC48947631FF90477
:10264800EF20905F930710021CC117750000130557
:10265800A553EF1080772AD02ED2A25785EB0255CA
:102668009255EF209041AA84F2506254425926852F
:10267800D2542161828089473EC4E31BF9F8EF20D8
:10268800B05B930720021CC1A257F1DBEF20D05AA0
:10269800A2571CC1E9B785473EC42800EF10A072B5
:1026A8004DF579BF397122DC26DA4AD806DE2A844C
:1026B800EF00901BFD5717E9FF0F0329A9B1AA8462
:1026C800630EF900A2852285EF20F00501E9930544
:1026D80000002285EF20802863490500F2506254EB
:1026E80042592685D2542161828085473EC422857D
:1026F80097770000938747763EC602D4EF20902E46
:102708002ACC2ECE2AC82ECA630009040146814667
:102718003285B685EF10406D2AD02ED289476317CF
:10272800F902EF207051930710021CC1A2578DE7E0
:1027380002559255EF207034F2506254AA844259DF
:102748002685D2542161828002D002D22800EF105F
:10275800806761D9A257E9DFEF20104EA2571CC14C
:10276800C1BF01119317150022CC06CE26CA4AC84C
:102778004EC652C456C25AC085833707807F2A8402
:10278800636EF7109354F501638BE7203777B142F6
:10279800130777216341A712634A051E3777B13EB5
:1027A800130787216371F7123717853F13071759E6
:1027B8006368F720139924009387819CCA978C43F8
:1027C8002285EF2040431387019C4A978547832A37
:1027D8000700858FAA89B3849740D6854E85EF2058
:1027E8008041AA852A84EF20E01E97E5FF0F83A584
:1027F80065AF2A89EF20001E97E5FF0F83A5C5AEB8
:10280800EF20603FCA85EF20E01C97E5FF0F83A506
:10281800E5ADEF10D031CA85EF20C01B97E5FF0F5B
:1028280083A505ADEF20203DCA85EF20A01A97E5C6
:10283800FF0F83A525ACEF10902FCA85EF208019D4
:10284800AA852285EF20203B2A89AA852285EF20A8
:1028580060184A8B2A8A63800410CA8517E5FF0F1F
:10286800032545A1EF202039AA855285EF10705D18
:10287800AA855685EF202038CE85EF20C037AA8557
:1028880017E5FF0F0325059EEF20E036930730F884
:1028980063CDF410939774013E9521A0AA85EF109B
:1028A8001029F2406244D2444249B249224A924A2B
:1028B800024B0561828097E5FF0F83A5259E2E8533
:1028C800EF204011F9BF3707803163F2E70297E53F
:1028D800FF0F83A5A59C2285EF10702597E4FF0FB5
:1028E80083A44498A685EF10F07F6343A012A285C5
:1028F8002285EF20200E97E5FF0F83A5A59EAA84C9
:10290800EF20400D97E5FF0F83A5059EEF20A02E31
:10291800A685EF20200C97E5FF0F83A5259DEF10D6
:102928001021A685EF20000B97E5FF0F83A5459C96
:10293800EF20602CA685EF20E00997E5FF0F83A51F
:10294800659BEF10D01EA685EF20C008AA852285BA
:10295800EF20602A2A8BDA852285EF20A007AA8437
:1029680097E5FF0F83A505915A85EF20C028AA8512
:102978002685EF10104DA285EF20E027AA8517E5E0
:10298800FF0F0325258EEF20002721BF37F7CF4201
:102998001307571B13050000E372F7E019B7130577
:1029A8000000E39004F02285EDBD93874406DE071E
:1029B80097E5FF0F83A545943E95EF20A001D5B577
:1029C80097E5FF0F83A545912285EF20A000938707
:1029D800019D8A04BE948C40EF107015EF20E057DB
:1029E800AA84EF20805D97E5FF0F83A5258F2A89AC
:1029F800EF10507EAA852285EF20E01FAA8997E56F
:102A0800FF0F83A5E58D4A85EF10D07CAA8AF1B324
:102A1800A6852285EF10B01169B5797106D622D442
:102A280026D24AD04ECE52CC56CA5AC85EC61317C2
:102A380015005DCBAA85AA87634B050C3707807FF5
:102A48006351E50A370780008146635AE50097E538
:102A5800FF0F83A5E58AEF10F077AA879D563709FF
:102A680080009304F9FF37074B00FD8C130707B26A
:102A7800269733772701DD873705803F398D938780
:102A880017F8B6975D8797D5FF0F83A5A57D458D68
:102A98003304F700EF2020169387F400411933F927
:102AA8002701AA89631C090693050000EF10305E10
:102AB800631F05181305000021C02285EF20E04F91
:102AC80097E5FF0F83A58581AA84EF10B0702A844B
:102AD80097E5FF0F83A5C5802685EF10B06FAA85FF
:102AE8002285EF10D00409A89305000017E5FF0F11
:102AF8000325C580EF10F034B25022549254025985
:102B0800F249624AD24A424BB24B45618280EF2079
:102B1800800E93050000EF10D032F9BF97D5FF0F54
:102B280083A54575EF10B000AA854E85EF1070316A
:102B3800AA8A2285EF206048D6852A8B5685EF1011
:102B48007069AA85AA8BEF10F06897D5FF0F83A547
:102B5800657B2A89EF10106897D5FF0F83A5C57A82
:102B6800EF10E07CCA85EF10F06697D5FF0F83A5BC
:102B7800E579EF10C07BCA85EF10D06597D5FF0FB8
:102B880083A50579EF10A07ADE85EF10B064AA8BD3
:102B980097D5FF0F83A505784A85EF10B06397D5C1
:102BA800FF0F83A56577EF108078CA85EF109062D4
:102BB80097D5FF0F83A58576EF106077CA85EF104C
:102BC8007061AA855E85EF108076376ACFFFB7C738
:102BD8003500130A0AC393878728269AB384974037
:102BE800B3E444012A896350900C97D5FF0F83A55D
:102BF800E5674E85EF10105ECE85EF10B05DAA85B3
:102C0800AA844A85EF10A072D685EF10B05C2A8995
:102C18004DC897D5FF0F83A5656C5A85EF10905B5B
:102C280097D5FF0F83A5C56B2A845A85EF10905A54
:102C3800CA85EF10C06FAA852685EF10D07BCE8598
:102C4800EF10707BAA852285EF10F07A75B597D5BD
:102C5800FF0F83A565664E85EF10D057AA8517D557
:102C6800FF0F0325A560EF101079AA84CE854E8545
:102C7800EF105056AA852685EF10D055AA840DCCA2
:102C88002285EF20803397D5FF0F83A525652A89F4
:102C9800EF1050542A8497D5FF0F83A565644A85A1
:102CA800EF10505349BFAA854E85EF10D074D685D2
:102CB800EF105052AA8419ECA6854E85EF10B07318
:102CC80025BDAA852685EF101073AA854E85EF10BD
:102CD80090721DB597D5FF0F83A545605A85EF10F3
:102CE800704F2A8497D5FF0F83A5855F5A854DBFFE
:102CF800397122DC3717493F1314150026DA06DE2E
:102D08004AD84ED652D456D25AD05ECE62CC05801E
:102D1800130787FDAE846351871237D71640130710
:102D280037BE2A8963428706419897D5FF0F83A546
:102D3800255F6353A02CEF10106CB717C93F93871A
:102D480007FD2A896307F41097D5FF0F83A5855DD2
:102D5800EF10706AAA8588C04A85EF10D06997D5A8
:102D6800FF0F83A5255CEF101069C8C0854BF25092
:102D78006254D2544259B259225A925A025B624C56
:102D88005E85F24B2161828037174943130707F8A4
:102D9800635C870E3707807F6356E40A9359744152
:102DA8009389A9F7939779011D8C2285EF20E01A62
:102DB800EF20A020AA8522852EC2EF10D06397D5D8
:102DC800FF0F83A5A557EF10F0402A8AEF20E018DF
:102DD800EF20A01EAA852A84528522C4EF10B06174
:102DE80097D5FF0F83A58555EF10D03E93050000BA
:102DF8002AC6EF10D0298D4609E9930500002285DF
:102E0800EF10F028B336A000850697770000938767
:102E1800270D09474E86A6854800012BAA8BE35843
:102E280009F49840DC40B7060080358FB58F98C00C
:102E3800DCC0B30BA04025BF88C093070000DCC1ED
:102E4800814B35B7AA85EF10105BC8C088C0814B8D
:102E580039BF97D5FF0F83A5254DEF10D05997D5CA
:102E6800FF0F83A5A54C2A84EF10F058AA8588C0C7
:102E78002285EF10505897D5FF0F83A5254BEF10EB
:102E88009057C8C0854BE5B5EFF06FD797D5FF0FC2
:102E980083A5054AAA89EF10F03397D5FF0F83A5BC
:102EA800E53CEF10C048EF20400BAA8BEF20E01064
:102EB80097D5FF0F83A5C5462A8BEF10B031AA8599
:102EC8004E85EF105053AA8A97D5FF0F83A58545E5
:102ED8005A85EF103030FD472A8AAA85568563CA7D
:102EE8007705EF1050519387FBFF139727009777CB
:102EF80000009387E7F6BA979843937704F0AA8976
:102F0800638CE70223A03401CE855685EF10B04EBE
:102F1800D285EF10504EC8C0E35B09E4B7070080C4
:102F2800B3C937013D8D23A03401C8C0B30B70412C
:102F38003DBDEF10504CAA8993D779015D8493F772
:102F4800F70FB307F4402147E35EF7FA97D5FF0F71
:102F580083A5853D5A85EF10F027AA89AA8556854D
:102F6800EF107049AA852A8C5685EF10D048CE8577
:102F7800EF107048AA8997D5FF0F83A5253B5A857E
:102F8800EF105025CE85EF101047AA852A8A628552
:102F9800EF1070469357750193F7F70F1D8CE547AF
:102FA800AA8963C5870088C0E28AB9BF97D5FF0F91
:102FB80083A545385A85EF10F0212A84AA856285B1
:102FC800EF107043AA85AA8A6285EF10D042A285C5
:102FD800EF1070422A8497D5FF0F83A5E5355A85EF
:102FE800EF10501FA285EF101041AA852A8A568536
:102FF800EF107040AA8939B7EF106033B717C93F8F
:10300800938707FD2A896306F40297D5FF0F83A5E6
:103018006531EF10C031AA8588C04A85EF10B03DF0
:1030280097D5FF0F83A50530EF106030C8C0FD5B52
:103038003DBB97D5FF0F83A5252FEF10402F97D5C0
:10304800FF0F83A5A52E2A84EF10602EAA8588C0BD
:103058002285EF10503A97D5FF0F83A5252DEF1045
:10306800002DC8C0FD5B21B341111317150022C400
:1030780006C605833706807F2A84AA856376C70833
:103088003DCFAA866340050A698E9357754111EEB4
:10309800B705800033F4A5004DE086061396860038
:1030A80022870504E35B06FE998F370680009305A7
:1030B800F6FF138717F8ED8ED18E137617009397C6
:1030C800160031EE13581740E5460145814537078C
:1030D80000013386E500FD1663C6C700B305E600A8
:1030E800918F3A9586070583EDF699C30505799979
:1030F8000585B705003FAA9593177801BE95B2409C
:1031080022442E8541018280EF10D00CA285EF1059
:103118000022B2402244AA852E85410182809397DD
:1031280026004DB7EF10302DAA85EF108051B24020
:103138002244AA852E85410182807D57998FB5B793
:10314800011126CA931415004AC852C406CE22CCCF
:103158004EC656C28580B70700322A892E8A63D1A7
:10316800F40CEF10905F630D051ACA854A85EF10BD
:10317800700697D5FF0F83A5251D2A84EF109005AB
:1031880097D5FF0F83A5851CEF10601AA285EF1055
:10319800700497D5FF0F83A5A51BEF10D025A28536
:1031A800EF10500397D5FF0F83A5C51AEF1020180D
:1031B800A285EF10300297D5FF0F83A5E519EF1010
:1031C8009023A285EF10100197D5FF0F83A505194D
:1031D800EF10E015A285EF10E07FAA8997D5FF0FC1
:1031E80083A5C5082285EF10E07EAA87CE852285B3
:1031F8003E84EF10207EAA84D2854A85EF10807D18
:10320800AA852685EF10301FAA852285EF10B01EEB
:10321800AA8517D5FF0F0325E504EF10D01DF9A8DF
:10322800AA85EF10207B97D5FF0F83A5E5112A8487
:10323800EF10407A97D5FF0F83A54511EF10200FA7
:10324800A285EF10207997D5FF0F83A56510EF10A1
:10325800901AA285EF10007897D5FF0F83A5850FE8
:10326800EF10E00CA285EF10E07697D5FF0F83A54D
:10327800A50EEF105018A285EF10C07597D5FF0F57
:1032880083A5C50DEF10A00AA285EF10A074B7A7FB
:10329800993E93879799AA89E3D297F4B707483F4D
:1032A80063C79706B70700FFBE94A68517D5FF0F1B
:1032B800032545FBEF103014AA8A97D5FF0F83A585
:1032C800E5FA2285EF100071A685EF10D012AA87C3
:1032D800CE8522853E84EF10E06FAA84D2854A8588
:1032E800EF10406FAA852685EF10F010AA85228579
:1032F800EF107010AA855685EF10F00FF240624467
:10330800D2444249B249224A924A0561828097DAF8
:10331800FF0F83AAEA0297D4FF0F83A4A40271BF08
:1033280017D5FF0F032505F4D1BF21712324411BB5
:10333800368A131827003AD83ED0177700001307AB
:10334800A7EB9307FAFF232E71194297232E111A20
:10335800232C811A232A911A2328211B2326311B67
:103368002322511B2320611B232C8119232A911905
:103378002328A1192326B11932DCF1562AC62ED6E4
:103388003EC4832B07006349D66C1307D6FF9357B7
:10339800F7419D8BBA978D873ECC85078E073EDA1D
:1033A800E2461307FAFFB387EB003384E64062571F
:1033B800D256138917000409158F3AC8229963C297
:1033C8000702825993172400CE971305000063451E
:1033D80004008843EF10703E88C005049104E3138D
:1033E80024FF63CC0B04A24C324D1C0993942C008F
:1033F80013844400930901136689BE94B38A4B0170
:103408006A94A68D6A8C130B000063C10C0283A515
:103418000D0003250C00110CF11DEF10A05BAA850F
:103428005A85EF00D0702A8BE3138CFE23A0690124
:10343800050991099104E31659FD939D2B00741811
:10344800EE9613878DFF36D4940036973ACE3247DE
:103458009387FBFF13142A008A073A941803BA9734
:10346800130B011317DDFF0F032DCDEF97DCFF0FB3
:1034780083ACCCEC3ED2DE8A5ECA139A2A001C03C7
:10348800D29703A907FB635550059309CAFFDA9938
:103498008400EA854A85EF10E053EF10102CEF10F6
:1034A800D031E685AA8BEF10E052AA854A85EF1045
:1034B8008074EF10902A83A50900AA879CC05E85B6
:1034C800EF00F066CE872A899104F119E313FBFC1B
:1034D800C24B4A85DE85EF00900197D7FF0F93878F
:1034E800A7E88C43AA84EF10E04EEF00207497D72A
:1034F800FF0F9387A7E78C43EF10C04DAA85268559
:10350800EF10606FAA84EF105025AA89EF10F02AF7
:10351800AA852685EF10206E2A89635D701193872E
:10352800FAFF18038A07BA9783A407EC21473307E1
:103538007741B3D6E4403397E6003387E4409D44AF
:10354800B384744123A0E7ECB3549740B699634021
:103558009010930500004A85EF1060336317051C2F
:10356800D2471389FAFF6340F90293972A0022563B
:103578009800F117BA9701479443F117558FE39DC7
:10358800C7FE6316072C9257054783A607ECF24738
:10359800639A062A94430507F117EDDE93871A000C
:1035A8003E8ABA9A2247B304F70062478A04B309ED
:1035B800F7001803BA9402578A098A07BA9903A52B
:1035C80009003309FB009384C4F0EF10101FA247D1
:1035D800C8C063C60704B24D268C930B000021A017
:1035E80003250C00711C83A50D00910DEF10803E82
:1035F800AA855E85EF00B053AA8BE3938DFE232046
:103608007901050A910911099104E3C84AE703A55C
:103618000900EF10901AA247C8C0E3DE07FA930B1F
:10362800000023207901050A910911099104E3D0CA
:103638004AFFA1B5C247639F071C9387FAFF8A0711
:103648001803BA9783A407ECA184E35490F0850982
:103658006358504186468547639C061A6380FA067C
:103668009646D000054793071700110689EA638735
:10367800FA0414423E87930717001106EDDA100387
:103688000A07329713060010B306D6402320D7EC5A
:1036980063D557038A07180394003E97338646017B
:1036A800B697032707EC9306F00F11A098433387CA
:1036B800E64098C39107E39BC7FE8546424763539C
:1036C800E0028547630EF7368947631DF700938745
:1036D800FAFF18038A07BA9703A707EC1377F703CB
:1036E80023A0E7EC8947E396F4E697D7FF0F938783
:1036F80067B78843CA8536DEEF10E04FF2562A894D
:10370800E38906E497D7FF0F9387C7B5C245884377
:10371800F92BAA854A85EF10004E2A8993050000E7
:103728004A85EF10C016E30D05E2A6876257D684D6
:10373800BE8AD2574A85D24BB385E7404D2B17D95D
:10374800FF0F0329A9BFCA852A84EF10A019634572
:10375800053697D5FF0F83A5E5C02285EF10802792
:10376800EF10A07FEF107005CA852A8BEF10802616
:10377800AA852285EF102048EF10207E1803AA871B
:103788003A9A138914002320FAEC131429005A8555
:103798003A94EF10807CC2472320A4ECA1073EC8CE
:1037A80097D7FF0F938707ACC245884389232A849C
:1037B8006352090E4257894763CEE7326343E034C8
:1037C8001305000001EB63850A00B70700803D8DF3
:1037D800B25788C38320C11B0324811B8324411B48
:1037E8000329011B032A811A832A411A032B011A70
:1037F800832BC119032C8119832C4119032D01191D
:10380800832DC11813F579008329C11A3961828083
:103818000147B5B597D7FF0F938747A58C438144D8
:10382800EF10400CE34705D285098944E34450E38F
:1038380097D7FF0F938707A38843CA85EF10A03B4C
:103848002A8901BB93871A003E8ABE8AA1BBA68734
:103858001803D684BE8A93172900BA97424783A7CC
:1038680007ECD24B61173AC881EF8A04938784FF2B
:103878009400B69794437D19F1176117E5DE3AC8AD
:1038880097D7FF0F9387079EC24588438D212A84C7
:10389800E34209F293172900181AB304F7009800B5
:1038A8003EC4B30CF700268A17DCFF0F032C8CAB41
:1038B80003A50C00711AEF104070A285EF1080115B
:1038C800AA872322FA002285E285EF10A010E68756
:1038D80098002A84F11CE31DF7FC130C010E628A80
:1038E800014463CD0B0497D7FF0F938767A78843DD
:1038F800977D0000938D4D91268D130B0000814C10
:1039080039A0110D6341940303A50D00910D832582
:103918000D00850CEF10000CAA855A85EF003021A8
:103928002A8BE3D09BFF23206A0193071400110A16
:10393800F114630F89003E84E3D70BFA130B0000E0
:1039480023206A0193071400110AF114E31589FE74
:103958004257894763C7E702BA876345E0102247A1
:1039680013050000330BEC00E39607E683250B00F4
:10397800EF00F01BDA87711BE31AFCFEE38A0AE406
:10398800A9B542578D47E317F7E4630009042247B6
:103998001C0313142900BA9783A407F671146294C0
:1039A800032A04002685268BD285EF005018AA85A5
:1039B800AA845285EF102024DA85EF005017A287D9
:1039C80048C004C07114E31DFCFC854713050000C2
:1039D80063DF270522471C0393142900338BE70074
:1039E80003240BF6F11433099C00032A09002285ED
:1039F800228BD285EF00B013AA852A845285EF1056
:103A0800801FDA85EF00B0124A8A2322A9002320FA
:103A180089007119E31B2CFD9104269C13050000F5
:103A280083250C00711CEF009010E31B8AFF8E5653
:103A38001E57639C0A08B25794C3D8C388C759BB9A
:103A48009387FAFF18038A07BA9703A707EC137737
:103A5800F70723A0E7EC79B1A1473EDA02CC89B297
:103A68008146A9B9A247330BFC00930700003E85A5
:103A780083250B00EF00B00BDA87711BE31AFCFEFD
:103A8800AA870E55639D0A043257BE851CC3EF10E2
:103A9800801663502003C41105448C40050491042A
:103AA800EF00F008E35B89FE63850A00B707008032
:103AB8003D8DB257C8C339BB2285EF10004A1C039D
:103AC8003E9A2320AAEC268965BB3256B7070080A8
:103AD800BD8E3D8FA98F14C258C21CC6E5B9B25617
:103AE800370700803D8F98C2BE85EF10C010E344B1
:103AF80020FB6DBF42578D4713050000E309F7F21D
:103B0800D1B993070000B5BF01119317150022CC56
:103B18004AC856C206CE26CA4EC652C4858337073F
:103B280000322A842E89B28A63D7E700EF10E04278
:103B3800AA872285D1C7A2852285EF00B069AA8409
:103B4800AA852285EF00106997D5FF0F83A54582C6
:103B5800AA892685EF00106897D5FF0F83A5858170
:103B6800EF106009A685EF00F06697D5FF0F83A5D3
:103B7800A580EF00C07BA685EF00D06597C5FF0F35
:103B880083A5C57FEF102007A685EF00B06497C511
:103B9800FF0F83A5E57EEF0080792A8A639B0A02DE
:103BA800AA852685EF00106397C5FF0F83A5857446
:103BB800EF106004CE85EF00F061A285EF0020775A
:103BC800F2406244D2444249B249224A924A0561CB
:103BD800828097C5FF0F83A565694A85EF00905FCE
:103BE800AA8AD2854E85EF00F05EAA855685EF1029
:103BF8008000A685EF00105ECA85EF00D07FAA84FA
:103C080097C5FF0F83A5056F4E85EF00B05CAA85A9
:103C18002685312FAA852285EF00F07D55B7060548
:103C2800B707807F05813325F500828001114AC8D6
:103C3800131915001359190026CA9354790122CC77
:103C480006CE4EC652C456C2938414F8D9472A8465
:103C580063CE97042A8A63C40406B70A80001389CE
:103C6800FAFF33599940B377A900AA8995C797C530
:103C7800FF0F83A5A562652D93050000EF00904610
:103C8800635CA00063560400B3D49A40338A84006E
:103C98009349F9FFB3F94901F2406244D2444249D9
:103CA800224A924A4E85B24905618280B707807FD1
:103CB800AA89E363F9FEAA859D2DAA89F1BF97C554
:103CC800FF0F83A5A55DA52593050000EF00904192
:103CD800A289E353A0FC93090000E35F04FAA289D8
:103CE800E30C09FA97C9FF0F83A9895775B713170A
:103CF80015000583AA8721C7411106C622C43706C5
:103D0800807F6378C702B376C5002E8495EA97C58D
:103D1800FF0F83A5E55EEF00F04B5177130707CB44
:103D2800AA876348E406135775411377F70F1D17E1
:103D380009A8AA85ED2BB2402244410182808280E5
:103D48005D8322979306E00F63CCE6006348E002A8
:103D5800A9566357D7043167130707356350870699
:103D680017C4FF0F03248453BE852285B520A2857E
:103D7800EF005046B240224441018280B2402244C2
:103D8800B7078080FD17E98F131577015D8D410115
:103D9800828097C5FF0F83A5E55EEF00B04361BF42
:103DA800B7078080FD1765075E077D8D97C5FF0FF4
:103DB80083A5855D598DEF00F041B5BF17C4FF0F8E
:103DC8000324445C55B70145828097C7FF0F93874A
:103DD800E7438843CC438280B707008013C7F7FFC7
:103DE800798DED8F5D8D8280797193D7450126D2CB
:103DF8004AD052CC5EC662C49394C50006D622D47B
:103E08004ECE56CA5AC8139757012A89B28B368C98
:103E1800B18013DAF50151C793FAF77F9307F07F62
:103E2800638BFA0C9359D5018E04B3E49900B70952
:103E38008000B3E9340113143500938A1AC0014B8A
:103E480093574C019314CC0013975701B18093F505
:103E5800F77F135CFC0179C39307F07F638BF51040
:103E68001395340093D7DB015D8DB7048000C98CAE
:103E7800939F3B00138515C0014693172B00D18FE4
:103E8800FD173947B3468A01B385AA406365F71021
:103E9800176700001307C7398A07BA979C43BA9770
:103EA8008287B3E9A400638209069DC82685EF10BE
:103EB8002054930755FF71476349F702F5491304E6
:103EC80085FFB389F940B3948400B3593901B3E944
:103ED8009900331489009305D0C0B38AA54085B7EB
:103EE800EF10005113050502E9B7930485FDB319D6
:103EF80099000144CDB7B3E9A400638C09002A8472
:103F0800A689930AF07F0D4B25BF0144814A054BD2
:103F180005BF0144930AF07F094B1DB7B3EF740145
:103F280063820F069DC82685EF10804CAA8593876B
:103F380055FF71476349F702F546938F85FF9D8EBC
:103F48003395F401B3D6DB00B3E4A600B39FFB01BD
:103F58001307D0C03305B74005B75E85EF10404959
:103F680093050502E9B7138585FDB394AB00814F2E
:103F7800C5B7B3EF7401638B0F00DE8F1305F07FB5
:103F88000D46E5BD814401450546C5BD814413057F
:103F9800F07F0946DDB563E634016396992A6364C8
:103FA800F42B1396F901135714009317F40193D9BE
:103FB80019003364E6001395840093D88F01B3E8A1
:103FC800A800418133D8A902939E080193DE0E010F
:103FD8001357040113938F00B3F4A902C28F3386D9
:103FE8000E039399040133673701637CC700469732
:103FF800930FF8FF636717016375C700930FE8FF16
:104008004697118F335EA702420441803377A70297
:1040180072863388CE034207418F637C0701469737
:104028001306FEFF63671701637507011306EEFFAA
:10403800469733040741C20F4168B3EFCF00130E10
:10404800F8FF13D60F0133F7CF01135F0301337E57
:10405800C301B303EE02B304C6033307EF02B3028E
:10406800E6033306970013D703013297637397006B
:10407800C292135607011696C162FD123378570093
:104088004208B3F353001E986367C400FE84631E9E
:10409800C40263FC07039A9733B7670046973A94BC
:1040A8009384FFFF63E688006391880263EF6700EB
:1040B8006366C400631B860063F907019A9733B7E8
:1040C800670046979384EFFF3A9433880741118C31
:1040D800B3B707011D8CFD5F6387880EB35FA40229
:1040E800135708013374A4027E86B387FE03420483
:1040F800598C637CF40046941386FFFF63671401B0
:104108006375F4001386EFFF46941D8C3357A402A1
:104118004208135808013374A402BA87B38EEE021A
:10412800420433648800637CD40146949307F7FF04
:10413800636714016375D4019307E7FF4694420649
:104148005D8E93170601C183135706013308EF02EA
:104158003304D441330FFF02B38EC703330EC703B2
:1041680093D70E01729FFA9763F4C70141673A9893
:1041780013D70701429741687D1833F507014205B7
:10418800B3FE0E0176956366E4006310E41AB28FFD
:104198001DC94694930FF6FF636114036366E40038
:1041A8006314E418637DA3009317130033B3670007
:1041B8009A98930FE6FF46943E836314E4006304E1
:1041C800650093EF1F009387F53F635BF00A13F7D1
:1041D8007F0001CF13F7FF0011466308C70013865D
:1041E8004F00B33FF601FE94B28F139774006358E3
:1041F8000700B70700FFFD17FD8C938705401307DD
:10420800E07F6342F70693DF3F001397D4013367DB
:10421800F70113D53400D2073706F07F3205B250C4
:104228002254F18F31815D8DFE06B367D50092541B
:104238000259F249624AD24A424BB24B224C3A8561
:10424800BE8545618280FD158147B5B3D286CE848F
:10425800A28F5A868D47630BF60A8547630FF60AC5
:104268008947E312F6F6014501479307F07F65B7E2
:10427800E286CDB7B7040800814F81460D46D9BF05
:1042880005451D8D130780036349A7087D476349CA
:10429800A7049385E541B397B40033D7AF00B3952E
:1042A800BF00D98FB335B000CD8F33D5A40013F735
:1042B800770001CF13F7F70011466308C70013878B
:1042C8004700B337F7003E95BA871317850063494F
:1042D80007041317D5018D835D8F0D81814725BF95
:1042E8000557B307F74013060002B3D7F400014798
:1042F8006306C5009385E5433397B400B36FF701B0
:10430800B33FF001B3E7F701014555B7370508009A
:1043180001479307F07F8146FDBD014501477DBFF9
:10432800014501478547C5BD7E86B28F59BD4111FC
:1043380013577501370680007D164AC01379F70FA9
:1043480013D77501B377A60026C26D8E1377F70FC2
:1043580006C622C49354F501FD818E070E06B306E6
:10436800E9406394B412635AD00621E3630C06262D
:10437800FD168DE6B2974A879396570063DB060CC5
:1043880005079306F00F6305D726B706007E13F6D8
:104398001700FD168583F58FD18F65A81307F00FD9
:1043A800631CE9001307F00F6DA01307F00FE30B70
:1043B800E9FE37070004598EED45054763CDD50062
:1043C800930500023357D600B386D5403316D6007E
:1043D8003336C000518FBA9779BFA9CAB3052741B0
:1043E800631D090089CBFD1599E1B29771B7930652
:1043F800F00F631BD700B287A9A89306F00FE30C50
:10440800D7FEB7060004D58F6D458546634DB500C8
:10441800930600028D8E33D5B700B397D700B33714
:10442800F000B366F500B387C600B9B79305190065
:1044380013F7E50F39E363190902D5DF19CAB297F3
:104448009396570063D70600370700FC7D17F98F4E
:10445800054793F67700638E061893F6F700114622
:104468006389C618910771A26380071805DE814425
:10447800B70700021307F00FADAA1307F00F638701
:10448800E516B29785832E87E9B76354D00621EBEA
:104498004A8761D2FD1681EE918F93965700E3DA31
:1044A80006FA370400047D147D8C3A89C5A8930563
:1044B800F00F1307F00FE30EB9F8ED45054763CD8C
:1044C800D500930500023357D600B386D54033167E
:1044D800D6003336C000518F998F4A877DBF930528
:1044E800F00F1307F00FE306B9F637070004598EEB
:1044F800E9B7A1CE330527416310090299CB7D1591
:1045080009E5B307F640AE8449BF9306F00F631C74
:10451800D700B287AE8435BF9306F00FE30BD7FE02
:10452800B7060004D58F6D488546634DA8009306ED
:104538000002898E33D8A700B397D700B337F000AD
:10454800B366F800B307D6407DBF13071900137789
:10455800E70F05EF6314090289E745FE81478144A7
:1045680049A8E30806EEB386C74013955600B3077B
:10457800F640E34105FAFDD2B687E1BDE39807EEC0
:10458800E30706EEB287AE8431BD3384C740131704
:104598005400635E07023304F640AE842285EF00C0
:1045A80030651307B5FF3314E40063462703330768
:1045B8002741050793060002B357E4003387E64016
:1045C8003314E40033348000C18F014759B579F4BE
:1045D8008147014769B7B70700FCFD173307E94072
:1045E800E18F85BD4A87B5B5B2876DBB1307F00F5C
:1045F80081479396570063DB060005079306F00F83
:10460800630FD702B70600FCFD16F58F9306F00F6F
:104618008D836316D70081C7B70740008144B24035
:1046280022443705807F5E07A607698FA583139507
:10463800F401D98F924402495D8D410182808147FE
:10464800F1B7011126CA935475014AC84EC652C41F
:104658009319950006CE22CC56C293F4F40F2E8AF5
:1046680093D999001359F501ADC49307F00F638FDF
:10467800F4068E09B7070004B3E9F900938414F827
:10468800814A93577A0113149A0093F7F70F2580FC
:10469800135AFA01B5C71307F00F638FE7060E0424
:1046A80037070004598C938717F8814613962A0018
:1046B800558E9D8C7D16B9473345490163E7C7067A
:1046C80017670000130787BA0A063A961C42BA977A
:1046D8008287638409024E85EF0090519307B5FFE6
:1046E8009304A0F8B399F900898C59BF9304F00F8B
:1046F800894AE38809F88D4A69B78144854A51B7E0
:1047080015C02285EF00D04E9307B5FF3314F4008F
:104718009307A0F8898F51BF9307F00F894659D4A2
:104728008D4669B78147854651B79315540063FC98
:10473800890CFD14814613D40501B3D88902C167D9
:10474800FD17ED8FC18233F7890246863388170338
:104758004207558F637C07012E971386F8FF63671E
:10476800B700637507011386E8FF2E9733070741E3
:104778003358870233778702B386070393170701F5
:10478800428763FCD700AE971307F8FF63E7B700CB
:1047980063F5D7001307E8FFAE9713140601958F4A
:1047A800598CB337F0005D8C1387F4076359E00820
:1047B8009377740099C79377F40091466383D70081
:1047C80011049317440063D80700B70700F8FD17D2
:1047D8007D8C138704089307E00F0D8063C6E704F8
:1047E8009317770126043707807FF98F25805D8C22
:1047F8007E05F240418D6244D2444249B249224A80
:10480800924A056182809396F90193D9190025B7D8
:104818004A854E84D6868D476382F606854763852A
:10482800F6068947E392F6F801441307F00F4DBFE7
:104838005285D5B73704400001458D46E9BF854705
:10484800998F6D476342F7049384E409B357F400E2
:1048580033149400333480005D8C9377740099C7C7
:104868009377F40011476383E7001104931754000A
:104878000D8063DC0700014405479DB737044000FD
:104888001307F00F0145A9BF0144014791BF37073E
:1048980080007D17935675013378A70013D67501EC
:1048A8009357F50193F6F60F1305F00F6D8F1376F6
:1048B800F60FFD816395A6000545631408021305EC
:1048C800F00F6314A600054509EF0545639BC60074
:1048D8006319E8006386B70089E6333500018280F2
:1048E8000145828093567501B7078000FD1713D7DD
:1048F800750193F6F60F1308F00F33F6A700137738
:10490800F70FED8F7D81FD816395060139C27955D9
:10491800828063130701E5FF9DEE11E38DCB01CA89
:104928006314B5006359D7000DC17D5582807D554C
:1049380091C52E85828063D4E60065D98280E3E53F
:10494800C7FEE36CF6FE014582800545828065DE80
:10495800E1BFE302D7FC69F7E1DBD9B793567501EC
:10496800B7078000FD1713D7750193F6F60F1308E4
:10497800F00F33F6A7001377F70FED8F7D81FD81D8
:104988006395060139C20945828063130701E5FF73
:104998009DEE11E38DCB01CA6314B5006359D700AE
:1049A8000DC17D5582807D5591C52E85828063D449
:1049B800E60065D98280E3E5C7FEE36CF6FE0145B3
:1049C80082800545828065DEE1BFE302D7FC69F796
:1049D800E1DBD9B701114AC81359750126CA4EC679
:1049E80052C49314950006CE22CC56C21379F90FFF
:1049F8002E8AA5809359F501630709069307F00FDE
:104A08006300F9088E04B7070004DD8C130919F850
:104A1800814A93577A0113149A0093F7F70F258068
:104A2800135AFA01BDC71307F00F6380E7080E0495
:104A380037070004598C938717F8014793962A0083
:104A4800D98ECA97FD16B94533C549011386170093
:104A580063E6D50697650000938505858A06AE96B8
:104A68009C42AE9782879DC02685EF0070189307F9
:104A7800B5FF1309A0F8B394F4003309A94049BF5E
:104A88001309F00F894AD1D48D4A61B70149854A83
:104A980049B715C02285EF00B0159307B5FF331449
:104AA800F4009307A0F8898F49BF9307F00F0947CF
:104AB80051D40D4761B78147054749B74167930806
:104AC800F7FF93D6040193550401B3F4140133742A
:104AD80014013308940233848602B386B602B38580
:104AE800950293540801A295AE9463F38400BA9694
:104AF80033F71401420733781801429713146700FB
:104B0800C180333480006983B694418F9A0433E4BA
:104B1800E400139744006357070693571400058869
:104B28005D8C1307F6076351E0069377740099C705
:104B38009377F40091466383D700110493174400D8
:104B480063D80700B70700F8FD177D8C1307060820
:104B58009307E00F0D8063DDE70601441307F00FAC
:104B680085A84E85268456878947E308F7FE8D4732
:104B7800630BF7048547E316F7FA0144014789A850
:104B88005285DDB73E8671BF8547998F6D47E346ED
:104B9800F7FE1306E609B357F4003314C4003334A0
:104BA80080005D8C9377740099C79377F400114760
:104BB8006383E7001104931754000D80E3D007FCCA
:104BC8000144054731A0370440001307F00F0145A1
:104BD8009317770126043707807FF98F25805D8C2E
:104BE8007E05F240418D6244D2444249B249224A8C
:104BF800924A05618280B70680004111FD1613565E
:104C0800750193D87501B3F7A60026C2ED8E4AC088
:104C18001376F60F9354F50193F8F80F06C622C4DD
:104C28001305F00F32898E074687FD818E06639340
:104C3800A80099E293C515003308164163929512AE
:104C4800635D000763920804638E06267D18631669
:104C58000802B69732879396570063DD060C05075E
:104C68009306F00F6306D726B706007E13F61700E3
:104C7800FD168583F58FD18F75A81307F00F631C78
:104C8800E6001307F00F7DA01307F00FE30BE6FE15
:104C980037070004D98EED45054763CE0501130794
:104CA8000002B3D5060133080741B3960601B336AF
:104CB800D00033E7D500BA9771BF630A0804B385FB
:104CC800C84009EE63820720FD1599E1B69761B7E0
:104CD8001306F00F639BC800B68765B71306F00F7D
:104CE800E38CC8FE37060004D18F6D450546634D39
:104CF800B500130600020D8E33D5B700B397C70071
:104D0800B337F0003366F500B307D600A9B79305AB
:104D1800160013F7E50F0DEF0DEA6387071A99CA16
:104D2800B6979396570063D70600370700FC7D17A0
:104D3800F98F054793F67700638D061893F6F70009
:104D480011466388C618910769A2D9D79DDA09AABE
:104D58001307F00F638CE516B69785832E87D9BFA6
:104D680063570007639B08043287E9D67D18631DE3
:104D78000800958F93965700E3DE06FA370400047F
:104D88007D147D8C3A89E5A89305F00F1307F00F81
:104D9800E302B6FAED45054763CE050113070002A5
:104DA800B3D5060133080741B3960601B336D000E0
:104DB80033E7D500998F328775BF9305F00F130736
:104DC800F00FE309B6F637070004D98EE1B7630C94
:104DD80008043385C84019EEB9CF7D1509E5B387B6
:104DE800F640AE8441BF1306F00F639CC800B68737
:104DF800AE8441BD1306F00FE38BC8FE37060004EE
:104E0800D18F6D480546634DA80013060002098E30
:104E180033D8A700B397C700B337F0003366F8005C
:104E2800B387C6407DBF130716001377E70F1DEF42
:104E38000DE681E785C2B68719A8E38D06EE3386AD
:104E4800D7401315560063560500B387F640AE8465
:104E5800D5B571E681478144ADA8E39907EEC1FA5B
:104E68008144B70700021307F00FA5A03384D74089
:104E780013175400635D07023384F640AE8422851D
:104E8800852B1307B5FF3314E40063462703330764
:104E98002741050793060002B357E4003387E6402D
:104EA8003314E40033348000C18F014761B561F8E1
:104EB800814701474DB7B70700FCFD173307E940A5
:104EC800E18F8DBD3287BDB5B687ADB51307F00F3D
:104ED80081479396570063DB060005079306F00F9A
:104EE8006301D704B70600FCFD16F58F9306F00F93
:104EF8008D836316D70081C7B70740008144B2404D
:104F080022443705807F5E07A607698FA58313951E
:104F1800F401D98F924402495D8D41018280B287A4
:104F280011BD8147E1B7B7078000FD1733F7A70028
:104F38005D81ED8F1375F50FDD819306F00F93F505
:104F4800F50F6314D500054501EB1307F00F014574
:104F58006394E5003335F0008280370680001357EC
:104F680075019307F6FF1377F70F9305E007E98FAD
:104F78009356F50163F1E5049305D00963F8E5005C
:104F8800370500801345F5FF3695828033E5C70065
:104F98009307500963DAE7001307A7F63315E5000E
:104FA80081CE3305A0408280930760093387E740AC
:104FB8003355E500F5B701458280411106C622C484
:104FC80026C255C59357F54133C4A7001D8C935489
:104FD800F501228531299307E0092A873385A740FF
:104FE8009307600963C4A702A14763D5E700611767
:104FF8003314E40026045E052580498C1395F401DA
:10500800B240418D22449244410182809307900925
:1050180063DDA7009547998F9306B701B357F4004E
:105028003314D400333480005D8C954763D6E70091
:105038009307B7FF3314F400B70700FCFD17937606
:105048007400E18F91C63D8891466303D4009107AF
:105058009396570063DA0600B70600FCFD161304A2
:10506800F009F58F3305E44013D4370061B7814464
:10507800014449B7411122C406C62A84814719CD83
:10508800852E9307E009898F130760096341F702AA
:1050980021476355A70061153314A4002604258011
:1050A80013957701B240418D224441018280130754
:1050B8009009635DF7001307B50195463317E400BF
:1050C800898E3337E0003354D400598C1547635622
:1050D800A7001307B5FF3314E400370700FC7D175A
:1050E80093767400618F91C63D8891466303D4001E
:1050F80011079316570063D90600B70700FCFD1780
:105108007D8F9307F009898F1354370041BF011130
:1051180006CE22CC26CA4AC84EC652C4B367B500CA
:10512800DDCF2A84AE89A9C12E85D924AA84130982
:10513800E00B330999409307600963CB2703930772
:10514800800263D69700938484FD33149400260468
:10515800131579012580F240418D6244D2444249B9
:10516800B249224A05618280612493040502C1B7CD
:105178009307900963D227031386B4012285CE854D
:1051880099244D8D13065002333AA000058E2285CE
:10519800CE8529243364AA009307500263D697006A
:1051A8009387B4FD3314F400370500FC7D1593771D
:1051B8007400618D91C73D8891476303F400110520
:1051C8009317550063DA0700B70700FCFD171309AA
:1051D800F00B7D8D33099940135435008DBF014480
:1051E8000149B5B793577501411193F7F70F22C4D9
:1051F80026C2131495009354F5011385170006C6AB
:105208001375E50F25800DC51385073893573400AE
:105218007604B2075205B183C98F1395F401B240E1
:1052280033E7A700228522449244BA85410182804F
:1052380095EB65D022856D2AA94763CFA700AD47B6
:10524800898F13075501B357F4003314E40013078B
:1052580090383305A74075BF930755FFB317F4007F
:105268000144F5B7814719C493573400370708003C
:105278007604D98F1305F07F69BF1396C50013D83C
:10528800450131829357D5011378F87F0E065D8E5C
:105298009307180093F7E77FFD8113173500D1C3F3
:1052A800930608C89307E00F63CBD7086342D0067C
:1052B800A55763CAF60CB707800079455D8E158D32
:1052C800FD4763C3A702130828C8B3170701B337FC
:1052D800F000331606013355A700D18FC98F8146D8
:1052E80013F7770025C355A0F957B386D74093071E
:1052F8000002B356D60081486306F500130828CA91
:10530800B3180601B3E7E800B337F000D58FC1BF83
:105318001A053335A0000E069357D701498ED18F51
:10532800C1B7B367E60063150800B337F00045BF9F
:105338009306F00F81CB0E06B7070002CDB7814761
:105348009306F00F13975700635B07008506130752
:10535800F00F6383E604370700FC7D17F98F130706
:10536800F00F8D836396E60081C7B707400081453B
:105378003705807FDE06A607E98EA583D58F1395AE
:10538800F5015D8D82808547814613F7F700114648
:10539800E30AC7FA91077DB78147D1B701CE9307D2
:1053A8000002918F6349F000130506FE014733D5CB
:1053B800A500BA85828033D7C5003355C500B3959B
:1053C800F5004D8DFDB701CE93070002918F63491B
:1053D800F000930506FE0147B315B5003A858280B3
:1053E8003317C500B395C5003355F500C98DFDB712
:1053F800C1676376F5029307F00FB3B7A7008E076E
:10540800130700021D8F3355F50097570000938747
:1054180067ED3E95034505003305A74082803707B1
:105428000001C147E36EE5FCE147D9BFAA85814683
:10543800014601456F00D06403A5C18082804111F7
:10544800975700009387873022C41754000013042D
:10545800E42F1D8C26C206C60984BE8419E42244A2
:10546800B240924441016FB00FD37D1493172400CA
:10547800A6979C438297DDB7411197570000938701
:10548800E72C22C4175400001304442C1D8C26C298
:105498004AC006C6098481443E8963988402EFB0F5
:1054A8006FCF975700009387672A1754000013049B
:1054B800E4291D8C098481443E89639F8400B2409D
:1054C8002244924402494101828093972400CA975A
:1054D8009C4385048297D1B793972400CA979C432D
:1054E80085048297D9BF797122D44AD052CC56CA42
:1054F8005AC806D626D24ECE2E8A328436893A8BA0
:10550800C28A6352060C370700803344C70013076A
:10551800D0022380E70093F4F8FD930760048D46DA
:105528006388F4009307500489466393F4000509DF
:10553800D6879308C100130881004A87D28522863E
:10554800EF00106F93077004AA896396F400137B29
:105558001B00630A0B0493076004338B29016397CC
:10556800F40203C7090093070003631EF70001460E
:1055780081465285A285EF30005D11C58546338985
:10558800264123A02A0183A70A003E9B01468146A3
:105598005285A285EF30205B11E15AC6130700033C
:1055A800B24763E56703B2474257B2502254B38704
:1055B80037411CC392540259624AD24A424B4E8523
:1055C800F2494561828023800700B1B793861700AE
:1055D80036C62380E700E9B72300C50093072500F6
:1055E8001307B00263D60500B305B0401307D00215
:1055F800A300E50025476352B70641111307F100E0
:105608003A88A9481303300633E61503BA867D178E
:1056180013060603A38FC6FE2E86B3C51503E345FE
:10562800C3FE9388E6FF93850503A30FB7FE3E8666
:105638004687636D07010147636518011307110168
:10564800158FBA973385A7404101828083450700AB
:1056580005070506A30FB6FEE9BF9307000323015C
:10566800F5009385050393074500A301B50033852D
:10567800A7408280197186DEA2DCA6DA2E84CAD8F9
:10568800CED6D2D4D6D23A8ADAD0DECEE2CC32899D
:10569800B689E6CAEAC8EEC6AA84EF107059032C88
:1056A80005006285EF00501F032B040002DC834ACB
:1056B800840113770B1083270A00AA8B71CF1387F5
:1056C80047002320EA009C43081098433AD0D84367
:1056D8003AD298473AD4DC473ED6EF40601C28C4FB
:1056E8006CC4832DC40497B7FF0F9387A7B203A890
:1056F800070083A84700832C8404139A1D00135ABB
:105708001A004286C6866685D28542CC46CEEF40D0
:10571800A00351ED6248F24866854286C686D28566
:10572800EF3060536355A008014681466685EE85D3
:10573800EF306052635605009307D002A301F404CA
:1057480093077004175A0000130ACAC963F6570171
:10575800175A0000130A4AC9137BBBFF8D47232041
:1057680064011CC8014B4E87CA867018A28526851D
:10577800D92EFD5C631F95157D55F6506654D65499
:105788004659B659265A965A065BF64B664CD64C7D
:10579800464DB64D096182809D07E19B13878700BE
:1057A8002320EA009843DC4338C47CC41DBF6686C6
:1057B800EE866685EE85EF30307911CD930770045B
:1057C800175A0000130A8AC2E3F857F9175A00005B
:1057D800130A0AC251B75C407D5713FDFA0D639551
:1057E800E70899475CC0544013670B403C183EC01B
:1057F800E6859307310318C002C2D688130841030F
:105808006E862685EFF03FCE93077004D2552A8A1C
:10581800631BFD00F55763C5F5005C4063D8B70806
:10582800F91A93FAFA0F9307500663E65705FD1520
:105838005686130504052EDAEFF01FDA62578546FF
:105848002A8BB307A7001CC863C5E6001840058B60
:1058580019C385071CC883473103E38607F09307FC
:10586800D002A301F40401B713077004E31DEDF699
:10587800BDFB854785BF93076006639BFA025C40C2
:10588800635BB0000CC881E71840058B09CF85071A
:10589800AE971CC809A889E718408546058B19C327
:1058A8009386270014C82CCC014B75B7930A700651
:1058B800E25763C9F5001C400CC8858BEDD7938768
:1058C8001500C1BF05476344B00009470D8FBA975B
:1058D800C9B71C4013F7074015E314485286CA8518
:1058E80026858299E30A95E91C40898B63980724E9
:1058F800F2574844E353F5E83E8541B5130750068F
:10590800637D571928446C4401468146EF30A02333
:1059180039E98546175600001306C6ADCA8526859F
:105928008299E30B95E55257E2576345F7001C400F
:10593800858BDDDBDE866286CA8526858299FD57E2
:10594800E30CF5E2014A930AA4017D5BE257FD17D7
:10595800E35CFAF885465686CA8526858299E30D62
:1059680065E1050AE5B7D2576346F006854617563E
:105978000000130626A8CA8526858299E30E95DFBE
:10598800D2576257D98F81E71C40858BB1DFDE86FD
:105998006286CA8526858299FD57E30FF5DC814A20
:1059A800130BA401FD5BD257B307F04063CBFA0099
:1059B800E2565286CA8526858299FD57E316F5F286
:1059C80065BB85465A86CA8526858299E30675DBB6
:1059D800850AD1BF3C4CE25A63D35701BE8A63495A
:1059E8005007014B130DA401FD5D832C8405D68758
:1059F80063D30A008147B387FC406344FB065257D0
:105A0800E2576349F7061C40858BADE7E25A5257C7
:105A1800B3879A41B38AEA4063D35701BE8A634485
:105A28005007014A130BA401FD5B5257E257998FA7
:105A3800568763D30A000147998FE357FAEA8546E8
:105A48005A86CA8526858299E30875D3050AF1BF67
:105A5800D6865286CA8526858299FD57E313F5F8BE
:105A680021BB85466A86CA8526858299E306B5D113
:105A7800050BA5BFDE866286CA8526858299FD57F5
:105A8800E316F5F8D5B9D68633069A01CA85268570
:105A98008299FD57E317F5F8C5B1E2560547634407
:105AA800D700858BB5C785465286CA8526858299D3
:105AB800FD5AE30355CDDE866286CA85268582991E
:105AC800E30C55CB28446C4401468146EF30A007CF
